{
  "_format": "hh-sol-artifact-1",
  "contractName": "DepositContract",
  "sourceName": "contracts/DepositContract.sol",
  "abi": [
    {
      "inputs": [
        {
          "internalType": "address",
          "name": "_collateralToken",
          "type": "address"
        }
      ],
      "stateMutability": "nonpayable",
      "type": "constructor"
    },
    {
      "inputs": [],
      "name": "ReentrancyGuardReentrantCall",
      "type": "error"
    },
    {
      "anonymous": false,
      "inputs": [
        {
          "indexed": true,
          "internalType": "address",
          "name": "user",
          "type": "address"
        },
        {
          "indexed": false,
          "internalType": "uint256",
          "name": "amount",
          "type": "uint256"
        }
      ],
      "name": "Deposited",
      "type": "event"
    },
    {
      "anonymous": false,
      "inputs": [
        {
          "indexed": true,
          "internalType": "address",
          "name": "user",
          "type": "address"
        },
        {
          "indexed": false,
          "internalType": "uint256",
          "name": "amount",
          "type": "uint256"
        }
      ],
      "name": "Withdrawn",
      "type": "event"
    },
    {
      "inputs": [],
      "name": "collateralToken",
      "outputs": [
        {
          "internalType": "contract IERC20",
          "name": "",
          "type": "address"
        }
      ],
      "stateMutability": "view",
      "type": "function"
    },
    {
      "inputs": [
        {
          "internalType": "uint256",
          "name": "amount",
          "type": "uint256"
        }
      ],
      "name": "deposit",
      "outputs": [],
      "stateMutability": "nonpayable",
      "type": "function"
    },
    {
      "inputs": [
        {
          "internalType": "address",
          "name": "",
          "type": "address"
        }
      ],
      "name": "deposits",
      "outputs": [
        {
          "internalType": "uint256",
          "name": "",
          "type": "uint256"
        }
      ],
      "stateMutability": "view",
      "type": "function"
    },
    {
      "inputs": [
        {
          "internalType": "address",
          "name": "user",
          "type": "address"
        }
      ],
      "name": "getBalance",
      "outputs": [
        {
          "internalType": "uint256",
          "name": "",
          "type": "uint256"
        }
      ],
      "stateMutability": "view",
      "type": "function"
    },
    {
      "inputs": [
        {
          "internalType": "uint256",
          "name": "amount",
          "type": "uint256"
        }
      ],
      "name": "withdraw",
      "outputs": [],
      "stateMutability": "nonpayable",
      "type": "function"
    }
  ],
  "bytecode": "0x608060405234801561001057600080fd5b50604051610bcc380380610bcc833981810160405281019061003291906100e4565b600160008190555080600160006101000a81548173ffffffffffffffffffffffffffffffffffffffff021916908373ffffffffffffffffffffffffffffffffffffffff16021790555050610111565b600080fd5b600073ffffffffffffffffffffffffffffffffffffffff82169050919050565b60006100b182610086565b9050919050565b6100c1816100a6565b81146100cc57600080fd5b50565b6000815190506100de816100b8565b92915050565b6000602082840312156100fa576100f9610081565b5b6000610108848285016100cf565b91505092915050565b610aac806101206000396000f3fe608060405234801561001057600080fd5b50600436106100575760003560e01c80632e1a7d4d1461005c578063b2016bd414610078578063b6b55f2514610096578063f8b2cb4f146100b2578063fc7e286d146100e2575b600080fd5b6100766004803603810190610071919061065a565b610112565b005b61008061036d565b60405161008d9190610706565b60405180910390f35b6100b060048036038101906100ab919061065a565b610393565b005b6100cc60048036038101906100c7919061075f565b61056e565b6040516100d9919061079b565b60405180910390f35b6100fc60048036038101906100f7919061075f565b6105b7565b604051610109919061079b565b60405180910390f35b61011a6105cf565b6000811161015d576040517f08c379a000000000000000000000000000000000000000000000000000000000815260040161015490610813565b60405180910390fd5b80600260003373ffffffffffffffffffffffffffffffffffffffff1673ffffffffffffffffffffffffffffffffffffffff1681526020019081526020016000205410156101df576040517f08c379a00000000000000000000000000000000000000000000000000000000081526004016101d69061087f565b60405180910390fd5b80600260003373ffffffffffffffffffffffffffffffffffffffff1673ffffffffffffffffffffffffffffffffffffffff168152602001908152602001600020600082825461022e91906108ce565b92505081905550600160009054906101000a900473ffffffffffffffffffffffffffffffffffffffff1673ffffffffffffffffffffffffffffffffffffffff1663a9059cbb33836040518363ffffffff1660e01b8152600401610292929190610911565b6020604051808303816000875af11580156102b1573d6000803e3d6000fd5b505050506040513d601f19601f820116820180604052508101906102d59190610972565b610314576040517f08c379a000000000000000000000000000000000000000000000000000000000815260040161030b906109eb565b60405180910390fd5b3373ffffffffffffffffffffffffffffffffffffffff167f7084f5476618d8e60b11ef0d7d3f06914655adb8793e28ff7f018d4c76d505d58260405161035a919061079b565b60405180910390a261036a610615565b50565b600160009054906101000a900473ffffffffffffffffffffffffffffffffffffffff1681565b61039b6105cf565b600081116103de576040517f08c379a00000000000000000000000000000000000000000000000000000000081526004016103d590610813565b60405180910390fd5b600160009054906101000a900473ffffffffffffffffffffffffffffffffffffffff1673ffffffffffffffffffffffffffffffffffffffff166323b872dd3330846040518463ffffffff1660e01b815260040161043d93929190610a0b565b6020604051808303816000875af115801561045c573d6000803e3d6000fd5b505050506040513d601f19601f820116820180604052508101906104809190610972565b6104bf576040517f08c379a00000000000000000000000000000000000000000000000000000000081526004016104b6906109eb565b60405180910390fd5b80600260003373ffffffffffffffffffffffffffffffffffffffff1673ffffffffffffffffffffffffffffffffffffffff168152602001908152602001600020600082825461050e9190610a42565b925050819055503373ffffffffffffffffffffffffffffffffffffffff167f2da466a7b24304f47e87fa2e1e5a81b9831ce54fec19055ce277ca2f39ba42c48260405161055b919061079b565b60405180910390a261056b610615565b50565b6000600260008373ffffffffffffffffffffffffffffffffffffffff1673ffffffffffffffffffffffffffffffffffffffff168152602001908152602001600020549050919050565b60026020528060005260406000206000915090505481565b60026000540361060b576040517f3ee5aeb500000000000000000000000000000000000000000000000000000000815260040160405180910390fd5b6002600081905550565b6001600081905550565b600080fd5b6000819050919050565b61063781610624565b811461064257600080fd5b50565b6000813590506106548161062e565b92915050565b6000602082840312156106705761066f61061f565b5b600061067e84828501610645565b91505092915050565b600073ffffffffffffffffffffffffffffffffffffffff82169050919050565b6000819050919050565b60006106cc6106c76106c284610687565b6106a7565b610687565b9050919050565b60006106de826106b1565b9050919050565b60006106f0826106d3565b9050919050565b610700816106e5565b82525050565b600060208201905061071b60008301846106f7565b92915050565b600061072c82610687565b9050919050565b61073c81610721565b811461074757600080fd5b50565b60008135905061075981610733565b92915050565b6000602082840312156107755761077461061f565b5b60006107838482850161074a565b91505092915050565b61079581610624565b82525050565b60006020820190506107b0600083018461078c565b92915050565b600082825260208201905092915050565b7f416d6f756e74206d7573742062652067726561746572207468616e2030000000600082015250565b60006107fd601d836107b6565b9150610808826107c7565b602082019050919050565b6000602082019050818103600083015261082c816107f0565b9050919050565b7f496e73756666696369656e742062616c616e6365000000000000000000000000600082015250565b60006108696014836107b6565b915061087482610833565b602082019050919050565b600060208201905081810360008301526108988161085c565b9050919050565b7f4e487b7100000000000000000000000000000000000000000000000000000000600052601160045260246000fd5b60006108d982610624565b91506108e483610624565b92508282039050818111156108fc576108fb61089f565b5b92915050565b61090b81610721565b82525050565b60006040820190506109266000830185610902565b610933602083018461078c565b9392505050565b60008115159050919050565b61094f8161093a565b811461095a57600080fd5b50565b60008151905061096c81610946565b92915050565b6000602082840312156109885761098761061f565b5b60006109968482850161095d565b91505092915050565b7f5472616e73666572206661696c65640000000000000000000000000000000000600082015250565b60006109d5600f836107b6565b91506109e08261099f565b602082019050919050565b60006020820190508181036000830152610a04816109c8565b9050919050565b6000606082019050610a206000830186610902565b610a2d6020830185610902565b610a3a604083018461078c565b949350505050565b6000610a4d82610624565b9150610a5883610624565b9250828201905080821115610a7057610a6f61089f565b5b9291505056fea264697066735822122046d67c0aefe405fa72da83fcce518ab86f11c8f6c41cb3fa745daf2e22c3536b64736f6c63430008150033",
  "linkReferences": {},
  "deployedLinkReferences": {}
}