{
  "_format": "hh-sol-artifact-1",
  "contractName": "OptionsEngine",
  "sourceName": "contracts/OptionEngine.sol",
  "abi": [
    {
      "inputs": [
        {
          "internalType": "address",
          "name": "_optionPosition",
          "type": "address"
        }
      ],
      "stateMutability": "nonpayable",
      "type": "constructor"
    },
    {
      "anonymous": false,
      "inputs": [
        {
          "indexed": true,
          "internalType": "uint256",
          "name": "tokenId",
          "type": "uint256"
        },
        {
          "indexed": true,
          "internalType": "address",
          "name": "trader",
          "type": "address"
        },
        {
          "indexed": false,
          "internalType": "uint256",
          "name": "amount",
          "type": "uint256"
        },
        {
          "indexed": false,
          "internalType": "uint256",
          "name": "settlementAmount",
          "type": "uint256"
        }
      ],
      "name": "PositionExercised",
      "type": "event"
    },
    {
      "anonymous": false,
      "inputs": [
        {
          "indexed": true,
          "internalType": "uint256",
          "name": "tokenId",
          "type": "uint256"
        },
        {
          "indexed": true,
          "internalType": "address",
          "name": "trader",
          "type": "address"
        },
        {
          "indexed": false,
          "internalType": "uint256",
          "name": "premium",
          "type": "uint256"
        },
        {
          "indexed": false,
          "internalType": "bool",
          "name": "isLong",
          "type": "bool"
        },
        {
          "indexed": false,
          "internalType": "bool",
          "name": "isCall",
          "type": "bool"
        }
      ],
      "name": "PositionOpened",
      "type": "event"
    },
    {
      "anonymous": false,
      "inputs": [
        {
          "indexed": true,
          "internalType": "bytes32",
          "name": "role",
          "type": "bytes32"
        },
        {
          "indexed": true,
          "internalType": "bytes32",
          "name": "previousAdminRole",
          "type": "bytes32"
        },
        {
          "indexed": true,
          "internalType": "bytes32",
          "name": "newAdminRole",
          "type": "bytes32"
        }
      ],
      "name": "RoleAdminChanged",
      "type": "event"
    },
    {
      "anonymous": false,
      "inputs": [
        {
          "indexed": true,
          "internalType": "bytes32",
          "name": "role",
          "type": "bytes32"
        },
        {
          "indexed": true,
          "internalType": "address",
          "name": "account",
          "type": "address"
        },
        {
          "indexed": true,
          "internalType": "address",
          "name": "sender",
          "type": "address"
        }
      ],
      "name": "RoleGranted",
      "type": "event"
    },
    {
      "anonymous": false,
      "inputs": [
        {
          "indexed": true,
          "internalType": "bytes32",
          "name": "role",
          "type": "bytes32"
        },
        {
          "indexed": true,
          "internalType": "address",
          "name": "account",
          "type": "address"
        },
        {
          "indexed": true,
          "internalType": "address",
          "name": "sender",
          "type": "address"
        }
      ],
      "name": "RoleRevoked",
      "type": "event"
    },
    {
      "stateMutability": "payable",
      "type": "fallback"
    },
    {
      "inputs": [],
      "name": "COLLATERAL_RATIO",
      "outputs": [
        {
          "internalType": "uint256",
          "name": "",
          "type": "uint256"
        }
      ],
      "stateMutability": "view",
      "type": "function"
    },
    {
      "inputs": [],
      "name": "DEFAULT_ADMIN_ROLE",
      "outputs": [
        {
          "internalType": "bytes32",
          "name": "",
          "type": "bytes32"
        }
      ],
      "stateMutability": "view",
      "type": "function"
    },
    {
      "inputs": [],
      "name": "MAX_DURATION",
      "outputs": [
        {
          "internalType": "uint256",
          "name": "",
          "type": "uint256"
        }
      ],
      "stateMutability": "view",
      "type": "function"
    },
    {
      "inputs": [],
      "name": "MIN_DURATION",
      "outputs": [
        {
          "internalType": "uint256",
          "name": "",
          "type": "uint256"
        }
      ],
      "stateMutability": "view",
      "type": "function"
    },
    {
      "inputs": [
        {
          "internalType": "uint256",
          "name": "tokenId",
          "type": "uint256"
        }
      ],
      "name": "exercise",
      "outputs": [],
      "stateMutability": "payable",
      "type": "function"
    },
    {
      "inputs": [
        {
          "internalType": "bytes32",
          "name": "role",
          "type": "bytes32"
        }
      ],
      "name": "getRoleAdmin",
      "outputs": [
        {
          "internalType": "bytes32",
          "name": "",
          "type": "bytes32"
        }
      ],
      "stateMutability": "view",
      "type": "function"
    },
    {
      "inputs": [
        {
          "internalType": "bytes32",
          "name": "role",
          "type": "bytes32"
        },
        {
          "internalType": "address",
          "name": "account",
          "type": "address"
        }
      ],
      "name": "grantRole",
      "outputs": [],
      "stateMutability": "nonpayable",
      "type": "function"
    },
    {
      "inputs": [
        {
          "internalType": "bytes32",
          "name": "role",
          "type": "bytes32"
        },
        {
          "internalType": "address",
          "name": "account",
          "type": "address"
        }
      ],
      "name": "hasRole",
      "outputs": [
        {
          "internalType": "bool",
          "name": "",
          "type": "bool"
        }
      ],
      "stateMutability": "view",
      "type": "function"
    },
    {
      "inputs": [
        {
          "internalType": "uint256",
          "name": "",
          "type": "uint256"
        }
      ],
      "name": "lockedCollateral",
      "outputs": [
        {
          "internalType": "uint256",
          "name": "",
          "type": "uint256"
        }
      ],
      "stateMutability": "view",
      "type": "function"
    },
    {
      "inputs": [
        {
          "internalType": "address",
          "name": "underlying",
          "type": "address"
        },
        {
          "internalType": "uint256",
          "name": "amount",
          "type": "uint256"
        },
        {
          "internalType": "uint256",
          "name": "strikePrice",
          "type": "uint256"
        },
        {
          "internalType": "uint256",
          "name": "expiry",
          "type": "uint256"
        },
        {
          "internalType": "enum OptionPosition.PositionType",
          "name": "positionType",
          "type": "uint8"
        }
      ],
      "name": "openPosition",
      "outputs": [
        {
          "internalType": "uint256",
          "name": "",
          "type": "uint256"
        }
      ],
      "stateMutability": "payable",
      "type": "function"
    },
    {
      "inputs": [],
      "name": "optionPosition",
      "outputs": [
        {
          "internalType": "contract OptionPosition",
          "name": "",
          "type": "address"
        }
      ],
      "stateMutability": "view",
      "type": "function"
    },
    {
      "inputs": [
        {
          "internalType": "bytes32",
          "name": "role",
          "type": "bytes32"
        },
        {
          "internalType": "address",
          "name": "account",
          "type": "address"
        }
      ],
      "name": "renounceRole",
      "outputs": [],
      "stateMutability": "nonpayable",
      "type": "function"
    },
    {
      "inputs": [
        {
          "internalType": "bytes32",
          "name": "role",
          "type": "bytes32"
        },
        {
          "internalType": "address",
          "name": "account",
          "type": "address"
        }
      ],
      "name": "revokeRole",
      "outputs": [],
      "stateMutability": "nonpayable",
      "type": "function"
    },
    {
      "inputs": [
        {
          "internalType": "bytes4",
          "name": "interfaceId",
          "type": "bytes4"
        }
      ],
      "name": "supportsInterface",
      "outputs": [
        {
          "internalType": "bool",
          "name": "",
          "type": "bool"
        }
      ],
      "stateMutability": "view",
      "type": "function"
    },
    {
      "inputs": [
        {
          "internalType": "address",
          "name": "",
          "type": "address"
        }
      ],
      "name": "userCollateral",
      "outputs": [
        {
          "internalType": "uint256",
          "name": "",
          "type": "uint256"
        }
      ],
      "stateMutability": "view",
      "type": "function"
    },
    {
      "stateMutability": "payable",
      "type": "receive"
    }
  ],
  "bytecode": "0x60a060405234801561001057600080fd5b50604051612a25380380612a2583398181016040528101906100329190610249565b60016000819055508073ffffffffffffffffffffffffffffffffffffffff1660808173ffffffffffffffffffffffffffffffffffffffff16815250506100816000801b3361008760201b60201c565b50610276565b610097828261017360201b60201c565b61016f57600180600084815260200190815260200160002060000160008373ffffffffffffffffffffffffffffffffffffffff1673ffffffffffffffffffffffffffffffffffffffff16815260200190815260200160002060006101000a81548160ff0219169083151502179055506101146101de60201b60201c565b73ffffffffffffffffffffffffffffffffffffffff168173ffffffffffffffffffffffffffffffffffffffff16837f2f8788117e7eff1d82e926ec794901d17c78024a50270940304540a733656f0d60405160405180910390a45b5050565b60006001600084815260200190815260200160002060000160008373ffffffffffffffffffffffffffffffffffffffff1673ffffffffffffffffffffffffffffffffffffffff16815260200190815260200160002060009054906101000a900460ff16905092915050565b600033905090565b600080fd5b600073ffffffffffffffffffffffffffffffffffffffff82169050919050565b6000610216826101eb565b9050919050565b6102268161020b565b811461023157600080fd5b50565b6000815190506102438161021d565b92915050565b60006020828403121561025f5761025e6101e6565b5b600061026d84828501610234565b91505092915050565b6080516127716102b4600039600081816105ea015281816108a501528181610af901528181610b2e01528181610c700152610fb201526127716000f3fe6080604052600436106100ec5760003560e01c8063a217fddf1161008a578063b6a6d17711610059578063b6a6d17714610302578063d547741f1461032d578063d9e69a0514610356578063f69f1e4a14610381576100ed565b8063a217fddf14610265578063a87c03c014610290578063b07f0a41146102bb578063b1724b46146102d7576100ed565b806336568abe116100c657806336568abe14610192578063369b07b3146101bb5780633e48f6f8146101eb57806391d1485414610228576100ed565b806301ffc9a7146100ef578063248a9ca31461012c5780632f2ff15d14610169576100ed565b5b005b3480156100fb57600080fd5b50610116600480360381019061011191906116ff565b6103be565b6040516101239190611747565b60405180910390f35b34801561013857600080fd5b50610153600480360381019061014e9190611798565b610438565b60405161016091906117d4565b60405180910390f35b34801561017557600080fd5b50610190600480360381019061018b919061184d565b610458565b005b34801561019e57600080fd5b506101b960048036038101906101b4919061184d565b610479565b005b6101d560048036038101906101d091906118e8565b6104fc565b6040516101e29190611972565b60405180910390f35b3480156101f757600080fd5b50610212600480360381019061020d919061198d565b610a6d565b60405161021f9190611972565b60405180910390f35b34801561023457600080fd5b5061024f600480360381019061024a919061184d565b610a85565b60405161025c9190611747565b60405180910390f35b34801561027157600080fd5b5061027a610af0565b60405161028791906117d4565b60405180910390f35b34801561029c57600080fd5b506102a5610af7565b6040516102b29190611a19565b60405180910390f35b6102d560048036038101906102d0919061198d565b610b1b565b005b3480156102e357600080fd5b506102ec61109e565b6040516102f99190611972565b60405180910390f35b34801561030e57600080fd5b506103176110a3565b6040516103249190611972565b60405180910390f35b34801561033957600080fd5b50610354600480360381019061034f919061184d565b6110a8565b005b34801561036257600080fd5b5061036b6110c9565b6040516103789190611972565b60405180910390f35b34801561038d57600080fd5b506103a860048036038101906103a39190611a34565b6110cf565b6040516103b59190611972565b60405180910390f35b60007f7965db0b000000000000000000000000000000000000000000000000000000007bffffffffffffffffffffffffffffffffffffffffffffffffffffffff1916827bffffffffffffffffffffffffffffffffffffffffffffffffffffffff191614806104315750610430826110e7565b5b9050919050565b600060016000838152602001908152602001600020600101549050919050565b61046182610438565b61046a81611151565b6104748383611165565b505050565b610481611245565b73ffffffffffffffffffffffffffffffffffffffff168173ffffffffffffffffffffffffffffffffffffffff16146104ee576040517f08c379a00000000000000000000000000000000000000000000000000000000081526004016104e590611ae4565b60405180910390fd5b6104f8828261124d565b5050565b600061050661132f565b6001426105139190611b33565b8311610554576040517f08c379a000000000000000000000000000000000000000000000000000000000815260040161054b90611bb3565b60405180910390fd5b600a426105619190611b33565b8311156105a3576040517f08c379a000000000000000000000000000000000000000000000000000000000815260040161059a90611c1f565b60405180910390fd5b600085116105e6576040517f08c379a00000000000000000000000000000000000000000000000000000000081526004016105dd90611c8b565b60405180910390fd5b60007f000000000000000000000000000000000000000000000000000000000000000073ffffffffffffffffffffffffffffffffffffffff1663857a155b8787866040518463ffffffff1660e01b815260040161064593929190611d22565b602060405180830381865afa158015610662573d6000803e3d6000fd5b505050506040513d601f19601f820116820180604052508101906106869190611d6e565b90506000600381111561069c5761069b611cab565b5b8360038111156106af576106ae611cab565b5b14806106df5750600260038111156106ca576106c9611cab565b5b8360038111156106dd576106dc611cab565b5b145b1561072c5780341015610727576040517f08c379a000000000000000000000000000000000000000000000000000000000815260040161071e90611de7565b60405180910390fd5b6108a1565b600160038111156107405761073f611cab565b5b83600381111561075357610752611cab565b5b0361081c578673ffffffffffffffffffffffffffffffffffffffff166323b872dd3330896040518463ffffffff1660e01b815260040161079593929190611e16565b6020604051808303816000875af11580156107b4573d6000803e3d6000fd5b505050506040513d601f19601f820116820180604052508101906107d89190611e79565b610817576040517f08c379a000000000000000000000000000000000000000000000000000000000815260040161080e90611ef2565b60405180910390fd5b6108a0565b600061085961271061084b612ee061083d8a8c61137e90919063ffffffff16565b61137e90919063ffffffff16565b61139490919063ffffffff16565b90508034101561089e576040517f08c379a000000000000000000000000000000000000000000000000000000000815260040161089590611f5e565b60405180910390fd5b505b5b60007f000000000000000000000000000000000000000000000000000000000000000073ffffffffffffffffffffffffffffffffffffffff1663e5964256338a60008a8a8d8b6040518863ffffffff1660e01b81526004016109099796959493929190611f7e565b6020604051808303816000875af1158015610928573d6000803e3d6000fd5b505050506040513d601f19601f8201168201806040525081019061094c9190611d6e565b9050600080600381111561096357610962611cab565b5b85600381111561097657610975611cab565b5b14806109a657506002600381111561099157610990611cab565b5b8560038111156109a4576109a3611cab565b5b145b905060008060038111156109bd576109bc611cab565b5b8660038111156109d0576109cf611cab565b5b1480610a005750600160038111156109eb576109ea611cab565b5b8660038111156109fe576109fd611cab565b5b145b90503373ffffffffffffffffffffffffffffffffffffffff16837fd30d8f1c0eb3432d7b4741c7ef01b13aefff73c4308514ee762bcd48ed93288a868585604051610a4d93929190611fed565b60405180910390a382945050505050610a646113aa565b95945050505050565b60026020528060005260406000206000915090505481565b60006001600084815260200190815260200160002060000160008373ffffffffffffffffffffffffffffffffffffffff1673ffffffffffffffffffffffffffffffffffffffff16815260200190815260200160002060009054906101000a900460ff16905092915050565b6000801b81565b7f000000000000000000000000000000000000000000000000000000000000000081565b610b2361132f565b6000806000806000807f000000000000000000000000000000000000000000000000000000000000000073ffffffffffffffffffffffffffffffffffffffff1663eb02c301886040518263ffffffff1660e01b8152600401610b859190611972565b60e060405180830381865afa158015610ba2573d6000803e3d6000fd5b505050506040513d601f19601f82011682018060405250810190610bc6919061204e565b965096509650965096505095508015610c14576040517f08c379a0000000000000000000000000000000000000000000000000000000008152600401610c0b9061213c565b60405180910390fd5b83421015610c57576040517f08c379a0000000000000000000000000000000000000000000000000000000008152600401610c4e906121a8565b60405180910390fd5b3373ffffffffffffffffffffffffffffffffffffffff167f000000000000000000000000000000000000000000000000000000000000000073ffffffffffffffffffffffffffffffffffffffff16636352211e896040518263ffffffff1660e01b8152600401610cc79190611972565b602060405180830381865afa158015610ce4573d6000803e3d6000fd5b505050506040513d601f19601f82011682018060405250810190610d0891906121c8565b73ffffffffffffffffffffffffffffffffffffffff1614610d5e576040517f08c379a0000000000000000000000000000000000000000000000000000000008152600401610d5590612241565b60405180910390fd5b6000806003811115610d7357610d72611cab565b5b836003811115610d8657610d85611cab565b5b03610e6757610d9e868561137e90919063ffffffff16565b905080341015610de3576040517f08c379a0000000000000000000000000000000000000000000000000000000008152600401610dda906122ad565b60405180910390fd5b8673ffffffffffffffffffffffffffffffffffffffff1663a9059cbb33866040518363ffffffff1660e01b8152600401610e1e9291906122cd565b6020604051808303816000875af1158015610e3d573d6000803e3d6000fd5b505050506040513d601f19601f82011682018060405250810190610e619190611e79565b50610fb0565b60026003811115610e7b57610e7a611cab565b5b836003811115610e8e57610e8d611cab565b5b03610faf57610ea6868561137e90919063ffffffff16565b90508673ffffffffffffffffffffffffffffffffffffffff166323b872dd3330876040518463ffffffff1660e01b8152600401610ee593929190611e16565b6020604051808303816000875af1158015610f04573d6000803e3d6000fd5b505050506040513d601f19601f82011682018060405250810190610f289190611e79565b610f67576040517f08c379a0000000000000000000000000000000000000000000000000000000008152600401610f5e90612342565b60405180910390fd5b3373ffffffffffffffffffffffffffffffffffffffff166108fc829081150290604051600060405180830381858888f19350505050158015610fad573d6000803e3d6000fd5b505b5b7f000000000000000000000000000000000000000000000000000000000000000073ffffffffffffffffffffffffffffffffffffffff166374bf6990896040518263ffffffff1660e01b81526004016110099190611972565b600060405180830381600087803b15801561102357600080fd5b505af1158015611037573d6000803e3d6000fd5b505050503373ffffffffffffffffffffffffffffffffffffffff16887ff30bc0392499ea7de5e644b734d673788ca982c6bb852c80a7c8cd13b583927c8684604051611084929190612362565b60405180910390a35050505050505061109b6113aa565b50565b600a81565b600181565b6110b182610438565b6110ba81611151565b6110c4838361124d565b505050565b612ee081565b60036020528060005260406000206000915090505481565b60007f01ffc9a7000000000000000000000000000000000000000000000000000000007bffffffffffffffffffffffffffffffffffffffffffffffffffffffff1916827bffffffffffffffffffffffffffffffffffffffffffffffffffffffff1916149050919050565b6111628161115d611245565b6113b4565b50565b61116f8282610a85565b61124157600180600084815260200190815260200160002060000160008373ffffffffffffffffffffffffffffffffffffffff1673ffffffffffffffffffffffffffffffffffffffff16815260200190815260200160002060006101000a81548160ff0219169083151502179055506111e6611245565b73ffffffffffffffffffffffffffffffffffffffff168173ffffffffffffffffffffffffffffffffffffffff16837f2f8788117e7eff1d82e926ec794901d17c78024a50270940304540a733656f0d60405160405180910390a45b5050565b600033905090565b6112578282610a85565b1561132b5760006001600084815260200190815260200160002060000160008373ffffffffffffffffffffffffffffffffffffffff1673ffffffffffffffffffffffffffffffffffffffff16815260200190815260200160002060006101000a81548160ff0219169083151502179055506112d0611245565b73ffffffffffffffffffffffffffffffffffffffff168173ffffffffffffffffffffffffffffffffffffffff16837ff6391f5c32d9c69d2a47ea670b442974b53935d1edc7fd64eb21e047a839171b60405160405180910390a45b5050565b600260005403611374576040517f08c379a000000000000000000000000000000000000000000000000000000000815260040161136b906123d7565b60405180910390fd5b6002600081905550565b6000818361138c91906123f7565b905092915050565b600081836113a29190612468565b905092915050565b6001600081905550565b6113be8282610a85565b611435576113cb81611439565b6113d98360001c6020611466565b6040516020016113ea9291906125a2565b6040516020818303038152906040526040517f08c379a000000000000000000000000000000000000000000000000000000000815260040161142c9190612626565b60405180910390fd5b5050565b606061145f8273ffffffffffffffffffffffffffffffffffffffff16601460ff16611466565b9050919050565b60606000600283600261147991906123f7565b6114839190611b33565b67ffffffffffffffff81111561149c5761149b612648565b5b6040519080825280601f01601f1916602001820160405280156114ce5781602001600182028036833780820191505090505b5090507f30000000000000000000000000000000000000000000000000000000000000008160008151811061150657611505612677565b5b60200101907effffffffffffffffffffffffffffffffffffffffffffffffffffffffffffff1916908160001a9053507f78000000000000000000000000000000000000000000000000000000000000008160018151811061156a57611569612677565b5b60200101907effffffffffffffffffffffffffffffffffffffffffffffffffffffffffffff1916908160001a905350600060018460026115aa91906123f7565b6115b49190611b33565b90505b6001811115611654577f3031323334353637383961626364656600000000000000000000000000000000600f8616601081106115f6576115f5612677565b5b1a60f81b82828151811061160d5761160c612677565b5b60200101907effffffffffffffffffffffffffffffffffffffffffffffffffffffffffffff1916908160001a905350600485901c94508061164d906126a6565b90506115b7565b5060008414611698576040517f08c379a000000000000000000000000000000000000000000000000000000000815260040161168f9061271b565b60405180910390fd5b8091505092915050565b600080fd5b60007fffffffff0000000000000000000000000000000000000000000000000000000082169050919050565b6116dc816116a7565b81146116e757600080fd5b50565b6000813590506116f9816116d3565b92915050565b600060208284031215611715576117146116a2565b5b6000611723848285016116ea565b91505092915050565b60008115159050919050565b6117418161172c565b82525050565b600060208201905061175c6000830184611738565b92915050565b6000819050919050565b61177581611762565b811461178057600080fd5b50565b6000813590506117928161176c565b92915050565b6000602082840312156117ae576117ad6116a2565b5b60006117bc84828501611783565b91505092915050565b6117ce81611762565b82525050565b60006020820190506117e960008301846117c5565b92915050565b600073ffffffffffffffffffffffffffffffffffffffff82169050919050565b600061181a826117ef565b9050919050565b61182a8161180f565b811461183557600080fd5b50565b60008135905061184781611821565b92915050565b60008060408385031215611864576118636116a2565b5b600061187285828601611783565b925050602061188385828601611838565b9150509250929050565b6000819050919050565b6118a08161188d565b81146118ab57600080fd5b50565b6000813590506118bd81611897565b92915050565b600481106118d057600080fd5b50565b6000813590506118e2816118c3565b92915050565b600080600080600060a08688031215611904576119036116a2565b5b600061191288828901611838565b9550506020611923888289016118ae565b9450506040611934888289016118ae565b9350506060611945888289016118ae565b9250506080611956888289016118d3565b9150509295509295909350565b61196c8161188d565b82525050565b60006020820190506119876000830184611963565b92915050565b6000602082840312156119a3576119a26116a2565b5b60006119b1848285016118ae565b91505092915050565b6000819050919050565b60006119df6119da6119d5846117ef565b6119ba565b6117ef565b9050919050565b60006119f1826119c4565b9050919050565b6000611a03826119e6565b9050919050565b611a13816119f8565b82525050565b6000602082019050611a2e6000830184611a0a565b92915050565b600060208284031215611a4a57611a496116a2565b5b6000611a5884828501611838565b91505092915050565b600082825260208201905092915050565b7f416363657373436f6e74726f6c3a2063616e206f6e6c792072656e6f756e636560008201527f20726f6c657320666f722073656c660000000000000000000000000000000000602082015250565b6000611ace602f83611a61565b9150611ad982611a72565b604082019050919050565b60006020820190508181036000830152611afd81611ac1565b9050919050565b7f4e487b7100000000000000000000000000000000000000000000000000000000600052601160045260246000fd5b6000611b3e8261188d565b9150611b498361188d565b9250828201905080821115611b6157611b60611b04565b5b92915050565b7f45787069727920746f6f20736f6f6e0000000000000000000000000000000000600082015250565b6000611b9d600f83611a61565b9150611ba882611b67565b602082019050919050565b60006020820190508181036000830152611bcc81611b90565b9050919050565b7f45787069727920746f6f20666172000000000000000000000000000000000000600082015250565b6000611c09600e83611a61565b9150611c1482611bd3565b602082019050919050565b60006020820190508181036000830152611c3881611bfc565b9050919050565b7f496e76616c696420616d6f756e74000000000000000000000000000000000000600082015250565b6000611c75600e83611a61565b9150611c8082611c3f565b602082019050919050565b60006020820190508181036000830152611ca481611c68565b9050919050565b7f4e487b7100000000000000000000000000000000000000000000000000000000600052602160045260246000fd5b60048110611ceb57611cea611cab565b5b50565b6000819050611cfc82611cda565b919050565b6000611d0c82611cee565b9050919050565b611d1c81611d01565b82525050565b6000606082019050611d376000830186611963565b611d446020830185611963565b611d516040830184611d13565b949350505050565b600081519050611d6881611897565b92915050565b600060208284031215611d8457611d836116a2565b5b6000611d9284828501611d59565b91505092915050565b7f496e73756666696369656e74207072656d69756d000000000000000000000000600082015250565b6000611dd1601483611a61565b9150611ddc82611d9b565b602082019050919050565b60006020820190508181036000830152611e0081611dc4565b9050919050565b611e108161180f565b82525050565b6000606082019050611e2b6000830186611e07565b611e386020830185611e07565b611e456040830184611963565b949350505050565b611e568161172c565b8114611e6157600080fd5b50565b600081519050611e7381611e4d565b92915050565b600060208284031215611e8f57611e8e6116a2565b5b6000611e9d84828501611e64565b91505092915050565b7f436f6c6c61746572616c207472616e73666572206661696c6564000000000000600082015250565b6000611edc601a83611a61565b9150611ee782611ea6565b602082019050919050565b60006020820190508181036000830152611f0b81611ecf565b9050919050565b7f496e73756666696369656e7420636f6c6c61746572616c000000000000000000600082015250565b6000611f48601783611a61565b9150611f5382611f12565b602082019050919050565b60006020820190508181036000830152611f7781611f3b565b9050919050565b600060e082019050611f93600083018a611e07565b611fa06020830189611e07565b611fad6040830188611e07565b611fba6060830187611963565b611fc76080830186611963565b611fd460a0830185611963565b611fe160c0830184611d13565b98975050505050505050565b60006060820190506120026000830186611963565b61200f6020830185611738565b61201c6040830184611738565b949350505050565b60008151905061203381611821565b92915050565b600081519050612048816118c3565b92915050565b600080600080600080600060e0888a03121561206d5761206c6116a2565b5b600061207b8a828b01612024565b975050602061208c8a828b01612024565b965050604061209d8a828b01611d59565b95505060606120ae8a828b01611d59565b94505060806120bf8a828b01611d59565b93505060a06120d08a828b01612039565b92505060c06120e18a828b01611e64565b91505092959891949750929550565b7f506f736974696f6e20616c726561647920736574746c65640000000000000000600082015250565b6000612126601883611a61565b9150612131826120f0565b602082019050919050565b6000602082019050818103600083015261215581612119565b9050919050565b7f4e6f742079657420657870697265640000000000000000000000000000000000600082015250565b6000612192600f83611a61565b915061219d8261215c565b602082019050919050565b600060208201905081810360008301526121c181612185565b9050919050565b6000602082840312156121de576121dd6116a2565b5b60006121ec84828501612024565b91505092915050565b7f4e6f7420706f736974696f6e206f776e65720000000000000000000000000000600082015250565b600061222b601283611a61565b9150612236826121f5565b602082019050919050565b6000602082019050818103600083015261225a8161221e565b9050919050565b7f496e73756666696369656e74207061796d656e74000000000000000000000000600082015250565b6000612297601483611a61565b91506122a282612261565b602082019050919050565b600060208201905081810360008301526122c68161228a565b9050919050565b60006040820190506122e26000830185611e07565b6122ef6020830184611963565b9392505050565b7f5472616e73666572206661696c65640000000000000000000000000000000000600082015250565b600061232c600f83611a61565b9150612337826122f6565b602082019050919050565b6000602082019050818103600083015261235b8161231f565b9050919050565b60006040820190506123776000830185611963565b6123846020830184611963565b9392505050565b7f5265656e7472616e637947756172643a207265656e7472616e742063616c6c00600082015250565b60006123c1601f83611a61565b91506123cc8261238b565b602082019050919050565b600060208201905081810360008301526123f0816123b4565b9050919050565b60006124028261188d565b915061240d8361188d565b925082820261241b8161188d565b9150828204841483151761243257612431611b04565b5b5092915050565b7f4e487b7100000000000000000000000000000000000000000000000000000000600052601260045260246000fd5b60006124738261188d565b915061247e8361188d565b92508261248e5761248d612439565b5b828204905092915050565b600081905092915050565b7f416363657373436f6e74726f6c3a206163636f756e7420000000000000000000600082015250565b60006124da601783612499565b91506124e5826124a4565b601782019050919050565b600081519050919050565b60005b838110156125195780820151818401526020810190506124fe565b60008484015250505050565b6000612530826124f0565b61253a8185612499565b935061254a8185602086016124fb565b80840191505092915050565b7f206973206d697373696e6720726f6c6520000000000000000000000000000000600082015250565b600061258c601183612499565b915061259782612556565b601182019050919050565b60006125ad826124cd565b91506125b98285612525565b91506125c48261257f565b91506125d08284612525565b91508190509392505050565b6000601f19601f8301169050919050565b60006125f8826124f0565b6126028185611a61565b93506126128185602086016124fb565b61261b816125dc565b840191505092915050565b6000602082019050818103600083015261264081846125ed565b905092915050565b7f4e487b7100000000000000000000000000000000000000000000000000000000600052604160045260246000fd5b7f4e487b7100000000000000000000000000000000000000000000000000000000600052603260045260246000fd5b60006126b18261188d565b9150600082036126c4576126c3611b04565b5b600182039050919050565b7f537472696e67733a20686578206c656e67746820696e73756666696369656e74600082015250565b6000612705602083611a61565b9150612710826126cf565b602082019050919050565b60006020820190508181036000830152612734816126f8565b905091905056fea264697066735822122013c9cae8caf5a28399199632a155891d7563bb89ce47d5016237ca081562556364736f6c634300081c0033",
  "linkReferences": {},
  "deployedLinkReferences": {}
}