{
  "_format": "hh-sol-artifact-1",
  "contractName": "OptionsEngine",
  "sourceName": "contracts/OptionEngine.sol",
  "abi": [
    {
      "inputs": [
        {
          "internalType": "address",
          "name": "_optionPosition",
          "type": "address"
        }
      ],
      "stateMutability": "nonpayable",
      "type": "constructor"
    },
    {
      "anonymous": false,
      "inputs": [
        {
          "indexed": false,
          "internalType": "uint256",
          "name": "amount",
          "type": "uint256"
        },
        {
          "indexed": true,
          "internalType": "address",
          "name": "to",
          "type": "address"
        }
      ],
      "name": "ETHWithdrawn",
      "type": "event"
    },
    {
      "anonymous": false,
      "inputs": [
        {
          "indexed": true,
          "internalType": "address",
          "name": "previousOwner",
          "type": "address"
        },
        {
          "indexed": true,
          "internalType": "address",
          "name": "newOwner",
          "type": "address"
        }
      ],
      "name": "OwnershipTransferred",
      "type": "event"
    },
    {
      "anonymous": false,
      "inputs": [
        {
          "indexed": true,
          "internalType": "uint256",
          "name": "tokenId",
          "type": "uint256"
        },
        {
          "indexed": true,
          "internalType": "address",
          "name": "trader",
          "type": "address"
        },
        {
          "indexed": false,
          "internalType": "uint256",
          "name": "amount",
          "type": "uint256"
        },
        {
          "indexed": false,
          "internalType": "uint256",
          "name": "settlementAmount",
          "type": "uint256"
        }
      ],
      "name": "PositionExercised",
      "type": "event"
    },
    {
      "anonymous": false,
      "inputs": [
        {
          "indexed": false,
          "internalType": "uint256",
          "name": "tokenId",
          "type": "uint256"
        },
        {
          "indexed": false,
          "internalType": "address",
          "name": "trader",
          "type": "address"
        },
        {
          "indexed": false,
          "internalType": "uint256",
          "name": "premium",
          "type": "uint256"
        },
        {
          "indexed": false,
          "internalType": "uint256",
          "name": "collateral",
          "type": "uint256"
        },
        {
          "indexed": false,
          "internalType": "uint256",
          "name": "strikePrice",
          "type": "uint256"
        },
        {
          "indexed": false,
          "internalType": "uint256",
          "name": "expiry",
          "type": "uint256"
        },
        {
          "indexed": false,
          "internalType": "enum OptionPosition.PositionType",
          "name": "positionType",
          "type": "uint8"
        },
        {
          "indexed": false,
          "internalType": "address",
          "name": "underlying",
          "type": "address"
        }
      ],
      "name": "PositionOpened",
      "type": "event"
    },
    {
      "anonymous": false,
      "inputs": [
        {
          "indexed": true,
          "internalType": "bytes32",
          "name": "role",
          "type": "bytes32"
        },
        {
          "indexed": true,
          "internalType": "bytes32",
          "name": "previousAdminRole",
          "type": "bytes32"
        },
        {
          "indexed": true,
          "internalType": "bytes32",
          "name": "newAdminRole",
          "type": "bytes32"
        }
      ],
      "name": "RoleAdminChanged",
      "type": "event"
    },
    {
      "anonymous": false,
      "inputs": [
        {
          "indexed": true,
          "internalType": "bytes32",
          "name": "role",
          "type": "bytes32"
        },
        {
          "indexed": true,
          "internalType": "address",
          "name": "account",
          "type": "address"
        },
        {
          "indexed": true,
          "internalType": "address",
          "name": "sender",
          "type": "address"
        }
      ],
      "name": "RoleGranted",
      "type": "event"
    },
    {
      "anonymous": false,
      "inputs": [
        {
          "indexed": true,
          "internalType": "bytes32",
          "name": "role",
          "type": "bytes32"
        },
        {
          "indexed": true,
          "internalType": "address",
          "name": "account",
          "type": "address"
        },
        {
          "indexed": true,
          "internalType": "address",
          "name": "sender",
          "type": "address"
        }
      ],
      "name": "RoleRevoked",
      "type": "event"
    },
    {
      "anonymous": false,
      "inputs": [
        {
          "indexed": true,
          "internalType": "address",
          "name": "token",
          "type": "address"
        },
        {
          "indexed": true,
          "internalType": "address",
          "name": "to",
          "type": "address"
        }
      ],
      "name": "TokenWithdrawn",
      "type": "event"
    },
    {
      "stateMutability": "payable",
      "type": "fallback"
    },
    {
      "inputs": [],
      "name": "COLLATERAL_RATIO",
      "outputs": [
        {
          "internalType": "uint256",
          "name": "",
          "type": "uint256"
        }
      ],
      "stateMutability": "view",
      "type": "function"
    },
    {
      "inputs": [],
      "name": "DEFAULT_ADMIN_ROLE",
      "outputs": [
        {
          "internalType": "bytes32",
          "name": "",
          "type": "bytes32"
        }
      ],
      "stateMutability": "view",
      "type": "function"
    },
    {
      "inputs": [],
      "name": "MAX_DURATION",
      "outputs": [
        {
          "internalType": "uint256",
          "name": "",
          "type": "uint256"
        }
      ],
      "stateMutability": "view",
      "type": "function"
    },
    {
      "inputs": [],
      "name": "MIN_DURATION",
      "outputs": [
        {
          "internalType": "uint256",
          "name": "",
          "type": "uint256"
        }
      ],
      "stateMutability": "view",
      "type": "function"
    },
    {
      "inputs": [
        {
          "internalType": "uint256",
          "name": "tokenId",
          "type": "uint256"
        }
      ],
      "name": "exercise",
      "outputs": [],
      "stateMutability": "payable",
      "type": "function"
    },
    {
      "inputs": [],
      "name": "getCurrentTimestamp",
      "outputs": [
        {
          "internalType": "uint256",
          "name": "",
          "type": "uint256"
        }
      ],
      "stateMutability": "view",
      "type": "function"
    },
    {
      "inputs": [
        {
          "internalType": "bytes32",
          "name": "role",
          "type": "bytes32"
        }
      ],
      "name": "getRoleAdmin",
      "outputs": [
        {
          "internalType": "bytes32",
          "name": "",
          "type": "bytes32"
        }
      ],
      "stateMutability": "view",
      "type": "function"
    },
    {
      "inputs": [
        {
          "internalType": "bytes32",
          "name": "role",
          "type": "bytes32"
        },
        {
          "internalType": "address",
          "name": "account",
          "type": "address"
        }
      ],
      "name": "grantRole",
      "outputs": [],
      "stateMutability": "nonpayable",
      "type": "function"
    },
    {
      "inputs": [
        {
          "internalType": "bytes32",
          "name": "role",
          "type": "bytes32"
        },
        {
          "internalType": "address",
          "name": "account",
          "type": "address"
        }
      ],
      "name": "hasRole",
      "outputs": [
        {
          "internalType": "bool",
          "name": "",
          "type": "bool"
        }
      ],
      "stateMutability": "view",
      "type": "function"
    },
    {
      "inputs": [
        {
          "internalType": "uint256",
          "name": "",
          "type": "uint256"
        }
      ],
      "name": "lockedCollateral",
      "outputs": [
        {
          "internalType": "uint256",
          "name": "",
          "type": "uint256"
        }
      ],
      "stateMutability": "view",
      "type": "function"
    },
    {
      "inputs": [
        {
          "internalType": "address",
          "name": "underlying",
          "type": "address"
        },
        {
          "internalType": "uint256",
          "name": "amount",
          "type": "uint256"
        },
        {
          "internalType": "uint256",
          "name": "strikePrice",
          "type": "uint256"
        },
        {
          "internalType": "uint256",
          "name": "expiry",
          "type": "uint256"
        },
        {
          "internalType": "enum OptionPosition.PositionType",
          "name": "positionType",
          "type": "uint8"
        }
      ],
      "name": "openPosition",
      "outputs": [
        {
          "internalType": "uint256",
          "name": "",
          "type": "uint256"
        }
      ],
      "stateMutability": "nonpayable",
      "type": "function"
    },
    {
      "inputs": [],
      "name": "optionPosition",
      "outputs": [
        {
          "internalType": "contract OptionPosition",
          "name": "",
          "type": "address"
        }
      ],
      "stateMutability": "view",
      "type": "function"
    },
    {
      "inputs": [],
      "name": "owner",
      "outputs": [
        {
          "internalType": "address",
          "name": "",
          "type": "address"
        }
      ],
      "stateMutability": "view",
      "type": "function"
    },
    {
      "inputs": [],
      "name": "renounceOwnership",
      "outputs": [],
      "stateMutability": "nonpayable",
      "type": "function"
    },
    {
      "inputs": [
        {
          "internalType": "bytes32",
          "name": "role",
          "type": "bytes32"
        },
        {
          "internalType": "address",
          "name": "account",
          "type": "address"
        }
      ],
      "name": "renounceRole",
      "outputs": [],
      "stateMutability": "nonpayable",
      "type": "function"
    },
    {
      "inputs": [
        {
          "internalType": "bytes32",
          "name": "role",
          "type": "bytes32"
        },
        {
          "internalType": "address",
          "name": "account",
          "type": "address"
        }
      ],
      "name": "revokeRole",
      "outputs": [],
      "stateMutability": "nonpayable",
      "type": "function"
    },
    {
      "inputs": [
        {
          "internalType": "bytes4",
          "name": "interfaceId",
          "type": "bytes4"
        }
      ],
      "name": "supportsInterface",
      "outputs": [
        {
          "internalType": "bool",
          "name": "",
          "type": "bool"
        }
      ],
      "stateMutability": "view",
      "type": "function"
    },
    {
      "inputs": [
        {
          "internalType": "address",
          "name": "newOwner",
          "type": "address"
        }
      ],
      "name": "transferOwnership",
      "outputs": [],
      "stateMutability": "nonpayable",
      "type": "function"
    },
    {
      "inputs": [
        {
          "internalType": "address",
          "name": "",
          "type": "address"
        }
      ],
      "name": "userCollateral",
      "outputs": [
        {
          "internalType": "uint256",
          "name": "",
          "type": "uint256"
        }
      ],
      "stateMutability": "view",
      "type": "function"
    },
    {
      "inputs": [
        {
          "internalType": "uint256",
          "name": "amount",
          "type": "uint256"
        }
      ],
      "name": "withdrawETH",
      "outputs": [],
      "stateMutability": "nonpayable",
      "type": "function"
    },
    {
      "inputs": [
        {
          "internalType": "address",
          "name": "token",
          "type": "address"
        }
      ],
      "name": "withdrawToken",
      "outputs": [],
      "stateMutability": "nonpayable",
      "type": "function"
    },
    {
      "stateMutability": "payable",
      "type": "receive"
    }
  ],
  "bytecode": "0x60a060405234801561001057600080fd5b506040516135783803806135788339818101604052810190610032919061032b565b600160008190555061005661004b6100a360201b60201c565b6100ab60201b60201c565b8073ffffffffffffffffffffffffffffffffffffffff1660808173ffffffffffffffffffffffffffffffffffffffff168152505061009d6000801b3361017160201b60201c565b50610358565b600033905090565b6000600260009054906101000a900473ffffffffffffffffffffffffffffffffffffffff16905081600260006101000a81548173ffffffffffffffffffffffffffffffffffffffff021916908373ffffffffffffffffffffffffffffffffffffffff1602179055508173ffffffffffffffffffffffffffffffffffffffff168173ffffffffffffffffffffffffffffffffffffffff167f8be0079c531659141344cd1fd0a4f28419497f9722a3daafe3b4186f6b6457e060405160405180910390a35050565b610181828261025d60201b60201c565b61025957600180600084815260200190815260200160002060000160008373ffffffffffffffffffffffffffffffffffffffff1673ffffffffffffffffffffffffffffffffffffffff16815260200190815260200160002060006101000a81548160ff0219169083151502179055506101fe6100a360201b60201c565b73ffffffffffffffffffffffffffffffffffffffff168173ffffffffffffffffffffffffffffffffffffffff16837f2f8788117e7eff1d82e926ec794901d17c78024a50270940304540a733656f0d60405160405180910390a45b5050565b60006001600084815260200190815260200160002060000160008373ffffffffffffffffffffffffffffffffffffffff1673ffffffffffffffffffffffffffffffffffffffff16815260200190815260200160002060009054906101000a900460ff16905092915050565b600080fd5b600073ffffffffffffffffffffffffffffffffffffffff82169050919050565b60006102f8826102cd565b9050919050565b610308816102ed565b811461031357600080fd5b50565b600081519050610325816102ff565b92915050565b600060208284031215610341576103406102c8565b5b600061034f84828501610316565b91505092915050565b6080516131e26103966000396000818161072201528181610ad501528181610f1801528181610f4d0152818161108f01526113d101526131e26000f3fe60806040526004361061012e5760003560e01c806391d14854116100ab578063b6a6d1771161006f578063b6a6d177146103e7578063d547741f14610412578063d9e69a051461043b578063f14210a614610466578063f2fde38b1461048f578063f69f1e4a146104b85761012f565b806391d148541461030d578063a217fddf1461034a578063a87c03c014610375578063b07f0a41146103a0578063b1724b46146103bc5761012f565b80633e48f6f8116100f25780633e48f6f81461023a5780636c9230db14610277578063715018a6146102a257806389476069146102b95780638da5cb5b146102e25761012f565b806301ffc9a714610131578063248a9ca31461016e5780632f2ff15d146101ab57806336568abe146101d4578063369b07b3146101fd5761012f565b5b005b34801561013d57600080fd5b5061015860048036038101906101539190611e86565b6104f5565b6040516101659190611ece565b60405180910390f35b34801561017a57600080fd5b5061019560048036038101906101909190611f1f565b61056f565b6040516101a29190611f5b565b60405180910390f35b3480156101b757600080fd5b506101d260048036038101906101cd9190611fd4565b61058f565b005b3480156101e057600080fd5b506101fb60048036038101906101f69190611fd4565b6105b0565b005b34801561020957600080fd5b50610224600480360381019061021f919061206f565b610633565b60405161023191906120f9565b60405180910390f35b34801561024657600080fd5b50610261600480360381019061025c9190612114565b610bdf565b60405161026e91906120f9565b60405180910390f35b34801561028357600080fd5b5061028c610bf7565b60405161029991906120f9565b60405180910390f35b3480156102ae57600080fd5b506102b7610bff565b005b3480156102c557600080fd5b506102e060048036038101906102db9190612141565b610c13565b005b3480156102ee57600080fd5b506102f7610e7a565b604051610304919061217d565b60405180910390f35b34801561031957600080fd5b50610334600480360381019061032f9190611fd4565b610ea4565b6040516103419190611ece565b60405180910390f35b34801561035657600080fd5b5061035f610f0f565b60405161036c9190611f5b565b60405180910390f35b34801561038157600080fd5b5061038a610f16565b60405161039791906121f7565b60405180910390f35b6103ba60048036038101906103b59190612114565b610f3a565b005b3480156103c857600080fd5b506103d16114bd565b6040516103de91906120f9565b60405180910390f35b3480156103f357600080fd5b506103fc6114c3565b60405161040991906120f9565b60405180910390f35b34801561041e57600080fd5b5061043960048036038101906104349190611fd4565b6114c8565b005b34801561044757600080fd5b506104506114e9565b60405161045d91906120f9565b60405180910390f35b34801561047257600080fd5b5061048d60048036038101906104889190612114565b6114ef565b005b34801561049b57600080fd5b506104b660048036038101906104b19190612141565b61168f565b005b3480156104c457600080fd5b506104df60048036038101906104da9190612141565b611712565b6040516104ec91906120f9565b60405180910390f35b60007f7965db0b000000000000000000000000000000000000000000000000000000007bffffffffffffffffffffffffffffffffffffffffffffffffffffffff1916827bffffffffffffffffffffffffffffffffffffffffffffffffffffffff1916148061056857506105678261172a565b5b9050919050565b600060016000838152602001908152602001600020600101549050919050565b6105988261056f565b6105a181611794565b6105ab83836117a8565b505050565b6105b8611888565b73ffffffffffffffffffffffffffffffffffffffff168173ffffffffffffffffffffffffffffffffffffffff1614610625576040517f08c379a000000000000000000000000000000000000000000000000000000000815260040161061c90612295565b60405180910390fd5b61062f8282611890565b5050565b600061063d611972565b60014261064a91906122e4565b831161068b576040517f08c379a000000000000000000000000000000000000000000000000000000000815260040161068290612364565b60405180910390fd5b6103e84261069991906122e4565b8311156106db576040517f08c379a00000000000000000000000000000000000000000000000000000000081526004016106d2906123d0565b60405180910390fd5b6000851161071e576040517f08c379a00000000000000000000000000000000000000000000000000000000081526004016107159061243c565b60405180910390fd5b60007f000000000000000000000000000000000000000000000000000000000000000073ffffffffffffffffffffffffffffffffffffffff1663857a155b8787866040518463ffffffff1660e01b815260040161077d939291906124d3565b602060405180830381865afa15801561079a573d6000803e3d6000fd5b505050506040513d601f19601f820116820180604052508101906107be919061251f565b9050600060038111156107d4576107d361245c565b5b8360038111156107e7576107e661245c565b5b14806108175750600260038111156108025761080161245c565b5b8360038111156108155761081461245c565b5b145b156108e0578673ffffffffffffffffffffffffffffffffffffffff166323b872dd3330846040518463ffffffff1660e01b81526004016108599392919061254c565b6020604051808303816000875af1158015610878573d6000803e3d6000fd5b505050506040513d601f19601f8201168201806040525081019061089c91906125af565b6108db576040517f08c379a00000000000000000000000000000000000000000000000000000000081526004016108d290612628565b60405180910390fd5b610ad1565b600160038111156108f4576108f361245c565b5b8360038111156109075761090661245c565b5b036109d0578673ffffffffffffffffffffffffffffffffffffffff166323b872dd3330896040518463ffffffff1660e01b81526004016109499392919061254c565b6020604051808303816000875af1158015610968573d6000803e3d6000fd5b505050506040513d601f19601f8201168201806040525081019061098c91906125af565b6109cb576040517f08c379a00000000000000000000000000000000000000000000000000000000081526004016109c290612694565b60405180910390fd5b610ad0565b6000610a0d6127106109ff612ee06109f18a8c6119c190919063ffffffff16565b6119c190919063ffffffff16565b6119d790919063ffffffff16565b90508773ffffffffffffffffffffffffffffffffffffffff166323b872dd3330846040518463ffffffff1660e01b8152600401610a4c9392919061254c565b6020604051808303816000875af1158015610a6b573d6000803e3d6000fd5b505050506040513d601f19601f82011682018060405250810190610a8f91906125af565b610ace576040517f08c379a0000000000000000000000000000000000000000000000000000000008152600401610ac590612694565b60405180910390fd5b505b5b60007f000000000000000000000000000000000000000000000000000000000000000073ffffffffffffffffffffffffffffffffffffffff1663e5964256338a60008a8a8d8b6040518863ffffffff1660e01b8152600401610b3997969594939291906126b4565b6020604051808303816000875af1158015610b58573d6000803e3d6000fd5b505050506040513d601f19601f82011682018060405250810190610b7c919061251f565b905060008890507fc96ef33ded7a92bffdf0829334f48b3dc49e4b77abb9430c8ab699590ea6f8a98233858b8b8b8b88604051610bc0989796959493929190612723565b60405180910390a1819350505050610bd66119ed565b95945050505050565b60036020528060005260406000206000915090505481565b600042905090565b610c076119f7565b610c116000611a75565b565b610c1b6119f7565b600073ffffffffffffffffffffffffffffffffffffffff168173ffffffffffffffffffffffffffffffffffffffff1603610c8a576040517f08c379a0000000000000000000000000000000000000000000000000000000008152600401610c81906127ed565b60405180910390fd5b60008173ffffffffffffffffffffffffffffffffffffffff166370a08231306040518263ffffffff1660e01b8152600401610cc5919061217d565b602060405180830381865afa158015610ce2573d6000803e3d6000fd5b505050506040513d601f19601f82011682018060405250810190610d06919061251f565b905060008111610d4b576040517f08c379a0000000000000000000000000000000000000000000000000000000008152600401610d4290612859565b60405180910390fd5b60008273ffffffffffffffffffffffffffffffffffffffff1663a9059cbb610d71610e7a565b846040518363ffffffff1660e01b8152600401610d8f929190612879565b6020604051808303816000875af1158015610dae573d6000803e3d6000fd5b505050506040513d601f19601f82011682018060405250810190610dd291906125af565b905080610e14576040517f08c379a0000000000000000000000000000000000000000000000000000000008152600401610e0b906128ee565b60405180910390fd5b610e1c610e7a565b73ffffffffffffffffffffffffffffffffffffffff168373ffffffffffffffffffffffffffffffffffffffff167faa785f34069ec178fd3d41eb09b40d8a87c47e1024a65a81c044a09a6a16bb7c60405160405180910390a3505050565b6000600260009054906101000a900473ffffffffffffffffffffffffffffffffffffffff16905090565b60006001600084815260200190815260200160002060000160008373ffffffffffffffffffffffffffffffffffffffff1673ffffffffffffffffffffffffffffffffffffffff16815260200190815260200160002060009054906101000a900460ff16905092915050565b6000801b81565b7f000000000000000000000000000000000000000000000000000000000000000081565b610f42611972565b6000806000806000807f000000000000000000000000000000000000000000000000000000000000000073ffffffffffffffffffffffffffffffffffffffff1663eb02c301886040518263ffffffff1660e01b8152600401610fa491906120f9565b60e060405180830381865afa158015610fc1573d6000803e3d6000fd5b505050506040513d601f19601f82011682018060405250810190610fe59190612938565b965096509650965096505095508015611033576040517f08c379a000000000000000000000000000000000000000000000000000000000815260040161102a90612a26565b60405180910390fd5b83421015611076576040517f08c379a000000000000000000000000000000000000000000000000000000000815260040161106d90612a92565b60405180910390fd5b3373ffffffffffffffffffffffffffffffffffffffff167f000000000000000000000000000000000000000000000000000000000000000073ffffffffffffffffffffffffffffffffffffffff16636352211e896040518263ffffffff1660e01b81526004016110e691906120f9565b602060405180830381865afa158015611103573d6000803e3d6000fd5b505050506040513d601f19601f820116820180604052508101906111279190612ab2565b73ffffffffffffffffffffffffffffffffffffffff161461117d576040517f08c379a000000000000000000000000000000000000000000000000000000000815260040161117490612b2b565b60405180910390fd5b60008060038111156111925761119161245c565b5b8360038111156111a5576111a461245c565b5b03611286576111bd86856119c190919063ffffffff16565b905080341015611202576040517f08c379a00000000000000000000000000000000000000000000000000000000081526004016111f990612b97565b60405180910390fd5b8673ffffffffffffffffffffffffffffffffffffffff1663a9059cbb33866040518363ffffffff1660e01b815260040161123d929190612879565b6020604051808303816000875af115801561125c573d6000803e3d6000fd5b505050506040513d601f19601f8201168201806040525081019061128091906125af565b506113cf565b6002600381111561129a5761129961245c565b5b8360038111156112ad576112ac61245c565b5b036113ce576112c586856119c190919063ffffffff16565b90508673ffffffffffffffffffffffffffffffffffffffff166323b872dd3330876040518463ffffffff1660e01b81526004016113049392919061254c565b6020604051808303816000875af1158015611323573d6000803e3d6000fd5b505050506040513d601f19601f8201168201806040525081019061134791906125af565b611386576040517f08c379a000000000000000000000000000000000000000000000000000000000815260040161137d906128ee565b60405180910390fd5b3373ffffffffffffffffffffffffffffffffffffffff166108fc829081150290604051600060405180830381858888f193505050501580156113cc573d6000803e3d6000fd5b505b5b7f000000000000000000000000000000000000000000000000000000000000000073ffffffffffffffffffffffffffffffffffffffff166374bf6990896040518263ffffffff1660e01b815260040161142891906120f9565b600060405180830381600087803b15801561144257600080fd5b505af1158015611456573d6000803e3d6000fd5b505050503373ffffffffffffffffffffffffffffffffffffffff16887ff30bc0392499ea7de5e644b734d673788ca982c6bb852c80a7c8cd13b583927c86846040516114a3929190612bb7565b60405180910390a3505050505050506114ba6119ed565b50565b6103e881565b600181565b6114d18261056f565b6114da81611794565b6114e48383611890565b505050565b612ee081565b6114f76119f7565b6000811161153a576040517f08c379a000000000000000000000000000000000000000000000000000000000815260040161153190612c2c565b60405180910390fd5b600047905081811015611582576040517f08c379a000000000000000000000000000000000000000000000000000000000815260040161157990612859565b60405180910390fd5b600061158c610e7a565b73ffffffffffffffffffffffffffffffffffffffff16836040516115af90612c7d565b60006040518083038185875af1925050503d80600081146115ec576040519150601f19603f3d011682016040523d82523d6000602084013e6115f1565b606091505b5050905080611635576040517f08c379a000000000000000000000000000000000000000000000000000000000815260040161162c90612cde565b60405180910390fd5b61163d610e7a565b73ffffffffffffffffffffffffffffffffffffffff167f6148672a948a12b8e0bf92a9338349b9ac890fad62a234abaf0a4da99f62cfcc8460405161168291906120f9565b60405180910390a2505050565b6116976119f7565b600073ffffffffffffffffffffffffffffffffffffffff168173ffffffffffffffffffffffffffffffffffffffff1603611706576040517f08c379a00000000000000000000000000000000000000000000000000000000081526004016116fd90612d70565b60405180910390fd5b61170f81611a75565b50565b60046020528060005260406000206000915090505481565b60007f01ffc9a7000000000000000000000000000000000000000000000000000000007bffffffffffffffffffffffffffffffffffffffffffffffffffffffff1916827bffffffffffffffffffffffffffffffffffffffffffffffffffffffff1916149050919050565b6117a5816117a0611888565b611b3b565b50565b6117b28282610ea4565b61188457600180600084815260200190815260200160002060000160008373ffffffffffffffffffffffffffffffffffffffff1673ffffffffffffffffffffffffffffffffffffffff16815260200190815260200160002060006101000a81548160ff021916908315150217905550611829611888565b73ffffffffffffffffffffffffffffffffffffffff168173ffffffffffffffffffffffffffffffffffffffff16837f2f8788117e7eff1d82e926ec794901d17c78024a50270940304540a733656f0d60405160405180910390a45b5050565b600033905090565b61189a8282610ea4565b1561196e5760006001600084815260200190815260200160002060000160008373ffffffffffffffffffffffffffffffffffffffff1673ffffffffffffffffffffffffffffffffffffffff16815260200190815260200160002060006101000a81548160ff021916908315150217905550611913611888565b73ffffffffffffffffffffffffffffffffffffffff168173ffffffffffffffffffffffffffffffffffffffff16837ff6391f5c32d9c69d2a47ea670b442974b53935d1edc7fd64eb21e047a839171b60405160405180910390a45b5050565b6002600054036119b7576040517f08c379a00000000000000000000000000000000000000000000000000000000081526004016119ae90612ddc565b60405180910390fd5b6002600081905550565b600081836119cf9190612dfc565b905092915050565b600081836119e59190612e6d565b905092915050565b6001600081905550565b6119ff611888565b73ffffffffffffffffffffffffffffffffffffffff16611a1d610e7a565b73ffffffffffffffffffffffffffffffffffffffff1614611a73576040517f08c379a0000000000000000000000000000000000000000000000000000000008152600401611a6a90612eea565b60405180910390fd5b565b6000600260009054906101000a900473ffffffffffffffffffffffffffffffffffffffff16905081600260006101000a81548173ffffffffffffffffffffffffffffffffffffffff021916908373ffffffffffffffffffffffffffffffffffffffff1602179055508173ffffffffffffffffffffffffffffffffffffffff168173ffffffffffffffffffffffffffffffffffffffff167f8be0079c531659141344cd1fd0a4f28419497f9722a3daafe3b4186f6b6457e060405160405180910390a35050565b611b458282610ea4565b611bbc57611b5281611bc0565b611b608360001c6020611bed565b604051602001611b71929190613013565b6040516020818303038152906040526040517f08c379a0000000000000000000000000000000000000000000000000000000008152600401611bb39190613097565b60405180910390fd5b5050565b6060611be68273ffffffffffffffffffffffffffffffffffffffff16601460ff16611bed565b9050919050565b606060006002836002611c009190612dfc565b611c0a91906122e4565b67ffffffffffffffff811115611c2357611c226130b9565b5b6040519080825280601f01601f191660200182016040528015611c555781602001600182028036833780820191505090505b5090507f300000000000000000000000000000000000000000000000000000000000000081600081518110611c8d57611c8c6130e8565b5b60200101907effffffffffffffffffffffffffffffffffffffffffffffffffffffffffffff1916908160001a9053507f780000000000000000000000000000000000000000000000000000000000000081600181518110611cf157611cf06130e8565b5b60200101907effffffffffffffffffffffffffffffffffffffffffffffffffffffffffffff1916908160001a90535060006001846002611d319190612dfc565b611d3b91906122e4565b90505b6001811115611ddb577f3031323334353637383961626364656600000000000000000000000000000000600f861660108110611d7d57611d7c6130e8565b5b1a60f81b828281518110611d9457611d936130e8565b5b60200101907effffffffffffffffffffffffffffffffffffffffffffffffffffffffffffff1916908160001a905350600485901c945080611dd490613117565b9050611d3e565b5060008414611e1f576040517f08c379a0000000000000000000000000000000000000000000000000000000008152600401611e169061318c565b60405180910390fd5b8091505092915050565b600080fd5b60007fffffffff0000000000000000000000000000000000000000000000000000000082169050919050565b611e6381611e2e565b8114611e6e57600080fd5b50565b600081359050611e8081611e5a565b92915050565b600060208284031215611e9c57611e9b611e29565b5b6000611eaa84828501611e71565b91505092915050565b60008115159050919050565b611ec881611eb3565b82525050565b6000602082019050611ee36000830184611ebf565b92915050565b6000819050919050565b611efc81611ee9565b8114611f0757600080fd5b50565b600081359050611f1981611ef3565b92915050565b600060208284031215611f3557611f34611e29565b5b6000611f4384828501611f0a565b91505092915050565b611f5581611ee9565b82525050565b6000602082019050611f706000830184611f4c565b92915050565b600073ffffffffffffffffffffffffffffffffffffffff82169050919050565b6000611fa182611f76565b9050919050565b611fb181611f96565b8114611fbc57600080fd5b50565b600081359050611fce81611fa8565b92915050565b60008060408385031215611feb57611fea611e29565b5b6000611ff985828601611f0a565b925050602061200a85828601611fbf565b9150509250929050565b6000819050919050565b61202781612014565b811461203257600080fd5b50565b6000813590506120448161201e565b92915050565b6004811061205757600080fd5b50565b6000813590506120698161204a565b92915050565b600080600080600060a0868803121561208b5761208a611e29565b5b600061209988828901611fbf565b95505060206120aa88828901612035565b94505060406120bb88828901612035565b93505060606120cc88828901612035565b92505060806120dd8882890161205a565b9150509295509295909350565b6120f381612014565b82525050565b600060208201905061210e60008301846120ea565b92915050565b60006020828403121561212a57612129611e29565b5b600061213884828501612035565b91505092915050565b60006020828403121561215757612156611e29565b5b600061216584828501611fbf565b91505092915050565b61217781611f96565b82525050565b6000602082019050612192600083018461216e565b92915050565b6000819050919050565b60006121bd6121b86121b384611f76565b612198565b611f76565b9050919050565b60006121cf826121a2565b9050919050565b60006121e1826121c4565b9050919050565b6121f1816121d6565b82525050565b600060208201905061220c60008301846121e8565b92915050565b600082825260208201905092915050565b7f416363657373436f6e74726f6c3a2063616e206f6e6c792072656e6f756e636560008201527f20726f6c657320666f722073656c660000000000000000000000000000000000602082015250565b600061227f602f83612212565b915061228a82612223565b604082019050919050565b600060208201905081810360008301526122ae81612272565b9050919050565b7f4e487b7100000000000000000000000000000000000000000000000000000000600052601160045260246000fd5b60006122ef82612014565b91506122fa83612014565b9250828201905080821115612312576123116122b5565b5b92915050565b7f45787069727920746f6f20736f6f6e0000000000000000000000000000000000600082015250565b600061234e600f83612212565b915061235982612318565b602082019050919050565b6000602082019050818103600083015261237d81612341565b9050919050565b7f45787069727920746f6f20666172000000000000000000000000000000000000600082015250565b60006123ba600e83612212565b91506123c582612384565b602082019050919050565b600060208201905081810360008301526123e9816123ad565b9050919050565b7f496e76616c696420616d6f756e74000000000000000000000000000000000000600082015250565b6000612426600e83612212565b9150612431826123f0565b602082019050919050565b6000602082019050818103600083015261245581612419565b9050919050565b7f4e487b7100000000000000000000000000000000000000000000000000000000600052602160045260246000fd5b6004811061249c5761249b61245c565b5b50565b60008190506124ad8261248b565b919050565b60006124bd8261249f565b9050919050565b6124cd816124b2565b82525050565b60006060820190506124e860008301866120ea565b6124f560208301856120ea565b61250260408301846124c4565b949350505050565b6000815190506125198161201e565b92915050565b60006020828403121561253557612534611e29565b5b60006125438482850161250a565b91505092915050565b6000606082019050612561600083018661216e565b61256e602083018561216e565b61257b60408301846120ea565b949350505050565b61258c81611eb3565b811461259757600080fd5b50565b6000815190506125a981612583565b92915050565b6000602082840312156125c5576125c4611e29565b5b60006125d38482850161259a565b91505092915050565b7f5072656d69756d207472616e73666572206661696c6564000000000000000000600082015250565b6000612612601783612212565b915061261d826125dc565b602082019050919050565b6000602082019050818103600083015261264181612605565b9050919050565b7f436f6c6c61746572616c207472616e73666572206661696c6564000000000000600082015250565b600061267e601a83612212565b915061268982612648565b602082019050919050565b600060208201905081810360008301526126ad81612671565b9050919050565b600060e0820190506126c9600083018a61216e565b6126d6602083018961216e565b6126e3604083018861216e565b6126f060608301876120ea565b6126fd60808301866120ea565b61270a60a08301856120ea565b61271760c08301846124c4565b98975050505050505050565b600061010082019050612739600083018b6120ea565b612746602083018a61216e565b61275360408301896120ea565b61276060608301886120ea565b61276d60808301876120ea565b61277a60a08301866120ea565b61278760c08301856124c4565b61279460e083018461216e565b9998505050505050505050565b7f496e76616c696420746f6b656e20616464726573730000000000000000000000600082015250565b60006127d7601583612212565b91506127e2826127a1565b602082019050919050565b60006020820190508181036000830152612806816127ca565b9050919050565b7f496e73756666696369656e742062616c616e6365000000000000000000000000600082015250565b6000612843601483612212565b915061284e8261280d565b602082019050919050565b6000602082019050818103600083015261287281612836565b9050919050565b600060408201905061288e600083018561216e565b61289b60208301846120ea565b9392505050565b7f5472616e73666572206661696c65640000000000000000000000000000000000600082015250565b60006128d8600f83612212565b91506128e3826128a2565b602082019050919050565b60006020820190508181036000830152612907816128cb565b9050919050565b60008151905061291d81611fa8565b92915050565b6000815190506129328161204a565b92915050565b600080600080600080600060e0888a03121561295757612956611e29565b5b60006129658a828b0161290e565b97505060206129768a828b0161290e565b96505060406129878a828b0161250a565b95505060606129988a828b0161250a565b94505060806129a98a828b0161250a565b93505060a06129ba8a828b01612923565b92505060c06129cb8a828b0161259a565b91505092959891949750929550565b7f506f736974696f6e20616c726561647920736574746c65640000000000000000600082015250565b6000612a10601883612212565b9150612a1b826129da565b602082019050919050565b60006020820190508181036000830152612a3f81612a03565b9050919050565b7f4e6f742079657420657870697265640000000000000000000000000000000000600082015250565b6000612a7c600f83612212565b9150612a8782612a46565b602082019050919050565b60006020820190508181036000830152612aab81612a6f565b9050919050565b600060208284031215612ac857612ac7611e29565b5b6000612ad68482850161290e565b91505092915050565b7f4e6f7420706f736974696f6e206f776e65720000000000000000000000000000600082015250565b6000612b15601283612212565b9150612b2082612adf565b602082019050919050565b60006020820190508181036000830152612b4481612b08565b9050919050565b7f496e73756666696369656e74207061796d656e74000000000000000000000000600082015250565b6000612b81601483612212565b9150612b8c82612b4b565b602082019050919050565b60006020820190508181036000830152612bb081612b74565b9050919050565b6000604082019050612bcc60008301856120ea565b612bd960208301846120ea565b9392505050565b7f416d6f756e74206d7573742062652067726561746572207468616e2030000000600082015250565b6000612c16601d83612212565b9150612c2182612be0565b602082019050919050565b60006020820190508181036000830152612c4581612c09565b9050919050565b600081905092915050565b50565b6000612c67600083612c4c565b9150612c7282612c57565b600082019050919050565b6000612c8882612c5a565b9150819050919050565b7f455448207472616e73666572206661696c656400000000000000000000000000600082015250565b6000612cc8601383612212565b9150612cd382612c92565b602082019050919050565b60006020820190508181036000830152612cf781612cbb565b9050919050565b7f4f776e61626c653a206e6577206f776e657220697320746865207a65726f206160008201527f6464726573730000000000000000000000000000000000000000000000000000602082015250565b6000612d5a602683612212565b9150612d6582612cfe565b604082019050919050565b60006020820190508181036000830152612d8981612d4d565b9050919050565b7f5265656e7472616e637947756172643a207265656e7472616e742063616c6c00600082015250565b6000612dc6601f83612212565b9150612dd182612d90565b602082019050919050565b60006020820190508181036000830152612df581612db9565b9050919050565b6000612e0782612014565b9150612e1283612014565b9250828202612e2081612014565b91508282048414831517612e3757612e366122b5565b5b5092915050565b7f4e487b7100000000000000000000000000000000000000000000000000000000600052601260045260246000fd5b6000612e7882612014565b9150612e8383612014565b925082612e9357612e92612e3e565b5b828204905092915050565b7f4f776e61626c653a2063616c6c6572206973206e6f7420746865206f776e6572600082015250565b6000612ed4602083612212565b9150612edf82612e9e565b602082019050919050565b60006020820190508181036000830152612f0381612ec7565b9050919050565b600081905092915050565b7f416363657373436f6e74726f6c3a206163636f756e7420000000000000000000600082015250565b6000612f4b601783612f0a565b9150612f5682612f15565b601782019050919050565b600081519050919050565b60005b83811015612f8a578082015181840152602081019050612f6f565b60008484015250505050565b6000612fa182612f61565b612fab8185612f0a565b9350612fbb818560208601612f6c565b80840191505092915050565b7f206973206d697373696e6720726f6c6520000000000000000000000000000000600082015250565b6000612ffd601183612f0a565b915061300882612fc7565b601182019050919050565b600061301e82612f3e565b915061302a8285612f96565b915061303582612ff0565b91506130418284612f96565b91508190509392505050565b6000601f19601f8301169050919050565b600061306982612f61565b6130738185612212565b9350613083818560208601612f6c565b61308c8161304d565b840191505092915050565b600060208201905081810360008301526130b1818461305e565b905092915050565b7f4e487b7100000000000000000000000000000000000000000000000000000000600052604160045260246000fd5b7f4e487b7100000000000000000000000000000000000000000000000000000000600052603260045260246000fd5b600061312282612014565b915060008203613135576131346122b5565b5b600182039050919050565b7f537472696e67733a20686578206c656e67746820696e73756666696369656e74600082015250565b6000613176602083612212565b915061318182613140565b602082019050919050565b600060208201905081810360008301526131a581613169565b905091905056fea2646970667358221220712bcd4fa128f260922bb9a37f62311e89b118737670a962a36ab4778561e89864736f6c634300081c0033",
  "linkReferences": {},
  "deployedLinkReferences": {}
}