{
  "_format": "hh-sol-artifact-1",
  "contractName": "OptionsEngine",
  "sourceName": "contracts/OptionEngine.sol",
  "abi": [
    {
      "inputs": [
        {
          "internalType": "address",
          "name": "_optionPosition",
          "type": "address"
        }
      ],
      "stateMutability": "nonpayable",
      "type": "constructor"
    },
    {
      "anonymous": false,
      "inputs": [
        {
          "indexed": false,
          "internalType": "uint256",
          "name": "amount",
          "type": "uint256"
        },
        {
          "indexed": true,
          "internalType": "address",
          "name": "to",
          "type": "address"
        }
      ],
      "name": "ETHWithdrawn",
      "type": "event"
    },
    {
      "anonymous": false,
      "inputs": [
        {
          "indexed": true,
          "internalType": "address",
          "name": "previousOwner",
          "type": "address"
        },
        {
          "indexed": true,
          "internalType": "address",
          "name": "newOwner",
          "type": "address"
        }
      ],
      "name": "OwnershipTransferred",
      "type": "event"
    },
    {
      "anonymous": false,
      "inputs": [
        {
          "indexed": true,
          "internalType": "uint256",
          "name": "tokenId",
          "type": "uint256"
        },
        {
          "indexed": true,
          "internalType": "address",
          "name": "trader",
          "type": "address"
        },
        {
          "indexed": false,
          "internalType": "uint256",
          "name": "amount",
          "type": "uint256"
        },
        {
          "indexed": false,
          "internalType": "uint256",
          "name": "settlementAmount",
          "type": "uint256"
        }
      ],
      "name": "PositionExercised",
      "type": "event"
    },
    {
      "anonymous": false,
      "inputs": [
        {
          "indexed": false,
          "internalType": "uint256",
          "name": "tokenId",
          "type": "uint256"
        },
        {
          "indexed": false,
          "internalType": "address",
          "name": "trader",
          "type": "address"
        },
        {
          "indexed": false,
          "internalType": "uint256",
          "name": "premium",
          "type": "uint256"
        },
        {
          "indexed": false,
          "internalType": "uint256",
          "name": "collateral",
          "type": "uint256"
        },
        {
          "indexed": false,
          "internalType": "uint256",
          "name": "strikePrice",
          "type": "uint256"
        },
        {
          "indexed": false,
          "internalType": "uint256",
          "name": "expiry",
          "type": "uint256"
        },
        {
          "indexed": false,
          "internalType": "enum OptionPosition.PositionType",
          "name": "positionType",
          "type": "uint8"
        },
        {
          "indexed": false,
          "internalType": "address",
          "name": "underlying",
          "type": "address"
        }
      ],
      "name": "PositionOpened",
      "type": "event"
    },
    {
      "anonymous": false,
      "inputs": [
        {
          "indexed": true,
          "internalType": "bytes32",
          "name": "role",
          "type": "bytes32"
        },
        {
          "indexed": true,
          "internalType": "bytes32",
          "name": "previousAdminRole",
          "type": "bytes32"
        },
        {
          "indexed": true,
          "internalType": "bytes32",
          "name": "newAdminRole",
          "type": "bytes32"
        }
      ],
      "name": "RoleAdminChanged",
      "type": "event"
    },
    {
      "anonymous": false,
      "inputs": [
        {
          "indexed": true,
          "internalType": "bytes32",
          "name": "role",
          "type": "bytes32"
        },
        {
          "indexed": true,
          "internalType": "address",
          "name": "account",
          "type": "address"
        },
        {
          "indexed": true,
          "internalType": "address",
          "name": "sender",
          "type": "address"
        }
      ],
      "name": "RoleGranted",
      "type": "event"
    },
    {
      "anonymous": false,
      "inputs": [
        {
          "indexed": true,
          "internalType": "bytes32",
          "name": "role",
          "type": "bytes32"
        },
        {
          "indexed": true,
          "internalType": "address",
          "name": "account",
          "type": "address"
        },
        {
          "indexed": true,
          "internalType": "address",
          "name": "sender",
          "type": "address"
        }
      ],
      "name": "RoleRevoked",
      "type": "event"
    },
    {
      "anonymous": false,
      "inputs": [
        {
          "indexed": true,
          "internalType": "address",
          "name": "token",
          "type": "address"
        },
        {
          "indexed": true,
          "internalType": "address",
          "name": "to",
          "type": "address"
        }
      ],
      "name": "TokenWithdrawn",
      "type": "event"
    },
    {
      "stateMutability": "payable",
      "type": "fallback"
    },
    {
      "inputs": [],
      "name": "COLLATERAL_RATIO",
      "outputs": [
        {
          "internalType": "uint256",
          "name": "",
          "type": "uint256"
        }
      ],
      "stateMutability": "view",
      "type": "function"
    },
    {
      "inputs": [],
      "name": "DEFAULT_ADMIN_ROLE",
      "outputs": [
        {
          "internalType": "bytes32",
          "name": "",
          "type": "bytes32"
        }
      ],
      "stateMutability": "view",
      "type": "function"
    },
    {
      "inputs": [],
      "name": "MAX_DURATION",
      "outputs": [
        {
          "internalType": "uint256",
          "name": "",
          "type": "uint256"
        }
      ],
      "stateMutability": "view",
      "type": "function"
    },
    {
      "inputs": [],
      "name": "MIN_DURATION",
      "outputs": [
        {
          "internalType": "uint256",
          "name": "",
          "type": "uint256"
        }
      ],
      "stateMutability": "view",
      "type": "function"
    },
    {
      "inputs": [
        {
          "internalType": "uint256",
          "name": "tokenId",
          "type": "uint256"
        }
      ],
      "name": "exercise",
      "outputs": [],
      "stateMutability": "payable",
      "type": "function"
    },
    {
      "inputs": [],
      "name": "getCurrentTimestamp",
      "outputs": [
        {
          "internalType": "uint256",
          "name": "",
          "type": "uint256"
        }
      ],
      "stateMutability": "view",
      "type": "function"
    },
    {
      "inputs": [
        {
          "internalType": "bytes32",
          "name": "role",
          "type": "bytes32"
        }
      ],
      "name": "getRoleAdmin",
      "outputs": [
        {
          "internalType": "bytes32",
          "name": "",
          "type": "bytes32"
        }
      ],
      "stateMutability": "view",
      "type": "function"
    },
    {
      "inputs": [
        {
          "internalType": "bytes32",
          "name": "role",
          "type": "bytes32"
        },
        {
          "internalType": "address",
          "name": "account",
          "type": "address"
        }
      ],
      "name": "grantRole",
      "outputs": [],
      "stateMutability": "nonpayable",
      "type": "function"
    },
    {
      "inputs": [
        {
          "internalType": "bytes32",
          "name": "role",
          "type": "bytes32"
        },
        {
          "internalType": "address",
          "name": "account",
          "type": "address"
        }
      ],
      "name": "hasRole",
      "outputs": [
        {
          "internalType": "bool",
          "name": "",
          "type": "bool"
        }
      ],
      "stateMutability": "view",
      "type": "function"
    },
    {
      "inputs": [
        {
          "internalType": "uint256",
          "name": "",
          "type": "uint256"
        }
      ],
      "name": "lockedCollateral",
      "outputs": [
        {
          "internalType": "uint256",
          "name": "",
          "type": "uint256"
        }
      ],
      "stateMutability": "view",
      "type": "function"
    },
    {
      "inputs": [
        {
          "internalType": "address",
          "name": "underlying",
          "type": "address"
        },
        {
          "internalType": "uint256",
          "name": "amount",
          "type": "uint256"
        },
        {
          "internalType": "uint256",
          "name": "strikePrice",
          "type": "uint256"
        },
        {
          "internalType": "uint256",
          "name": "expiry",
          "type": "uint256"
        },
        {
          "internalType": "enum OptionPosition.PositionType",
          "name": "positionType",
          "type": "uint8"
        }
      ],
      "name": "openPosition",
      "outputs": [
        {
          "internalType": "uint256",
          "name": "",
          "type": "uint256"
        }
      ],
      "stateMutability": "payable",
      "type": "function"
    },
    {
      "inputs": [],
      "name": "optionPosition",
      "outputs": [
        {
          "internalType": "contract OptionPosition",
          "name": "",
          "type": "address"
        }
      ],
      "stateMutability": "view",
      "type": "function"
    },
    {
      "inputs": [],
      "name": "owner",
      "outputs": [
        {
          "internalType": "address",
          "name": "",
          "type": "address"
        }
      ],
      "stateMutability": "view",
      "type": "function"
    },
    {
      "inputs": [],
      "name": "renounceOwnership",
      "outputs": [],
      "stateMutability": "nonpayable",
      "type": "function"
    },
    {
      "inputs": [
        {
          "internalType": "bytes32",
          "name": "role",
          "type": "bytes32"
        },
        {
          "internalType": "address",
          "name": "account",
          "type": "address"
        }
      ],
      "name": "renounceRole",
      "outputs": [],
      "stateMutability": "nonpayable",
      "type": "function"
    },
    {
      "inputs": [
        {
          "internalType": "bytes32",
          "name": "role",
          "type": "bytes32"
        },
        {
          "internalType": "address",
          "name": "account",
          "type": "address"
        }
      ],
      "name": "revokeRole",
      "outputs": [],
      "stateMutability": "nonpayable",
      "type": "function"
    },
    {
      "inputs": [
        {
          "internalType": "bytes4",
          "name": "interfaceId",
          "type": "bytes4"
        }
      ],
      "name": "supportsInterface",
      "outputs": [
        {
          "internalType": "bool",
          "name": "",
          "type": "bool"
        }
      ],
      "stateMutability": "view",
      "type": "function"
    },
    {
      "inputs": [
        {
          "internalType": "address",
          "name": "newOwner",
          "type": "address"
        }
      ],
      "name": "transferOwnership",
      "outputs": [],
      "stateMutability": "nonpayable",
      "type": "function"
    },
    {
      "inputs": [
        {
          "internalType": "address",
          "name": "",
          "type": "address"
        }
      ],
      "name": "userCollateral",
      "outputs": [
        {
          "internalType": "uint256",
          "name": "",
          "type": "uint256"
        }
      ],
      "stateMutability": "view",
      "type": "function"
    },
    {
      "inputs": [
        {
          "internalType": "uint256",
          "name": "amount",
          "type": "uint256"
        }
      ],
      "name": "withdrawETH",
      "outputs": [],
      "stateMutability": "nonpayable",
      "type": "function"
    },
    {
      "inputs": [
        {
          "internalType": "address",
          "name": "token",
          "type": "address"
        }
      ],
      "name": "withdrawToken",
      "outputs": [],
      "stateMutability": "nonpayable",
      "type": "function"
    },
    {
      "stateMutability": "payable",
      "type": "receive"
    }
  ],
  "bytecode": "0x60a060405234801561001057600080fd5b506040516134df3803806134df8339818101604052810190610032919061032b565b600160008190555061005661004b6100a360201b60201c565b6100ab60201b60201c565b8073ffffffffffffffffffffffffffffffffffffffff1660808173ffffffffffffffffffffffffffffffffffffffff168152505061009d6000801b3361017160201b60201c565b50610358565b600033905090565b6000600260009054906101000a900473ffffffffffffffffffffffffffffffffffffffff16905081600260006101000a81548173ffffffffffffffffffffffffffffffffffffffff021916908373ffffffffffffffffffffffffffffffffffffffff1602179055508173ffffffffffffffffffffffffffffffffffffffff168173ffffffffffffffffffffffffffffffffffffffff167f8be0079c531659141344cd1fd0a4f28419497f9722a3daafe3b4186f6b6457e060405160405180910390a35050565b610181828261025d60201b60201c565b61025957600180600084815260200190815260200160002060000160008373ffffffffffffffffffffffffffffffffffffffff1673ffffffffffffffffffffffffffffffffffffffff16815260200190815260200160002060006101000a81548160ff0219169083151502179055506101fe6100a360201b60201c565b73ffffffffffffffffffffffffffffffffffffffff168173ffffffffffffffffffffffffffffffffffffffff16837f2f8788117e7eff1d82e926ec794901d17c78024a50270940304540a733656f0d60405160405180910390a45b5050565b60006001600084815260200190815260200160002060000160008373ffffffffffffffffffffffffffffffffffffffff1673ffffffffffffffffffffffffffffffffffffffff16815260200190815260200160002060009054906101000a900460ff16905092915050565b600080fd5b600073ffffffffffffffffffffffffffffffffffffffff82169050919050565b60006102f8826102cd565b9050919050565b610308816102ed565b811461031357600080fd5b50565b600081519050610325816102ff565b92915050565b600060208284031215610341576103406102c8565b5b600061034f84828501610316565b91505092915050565b60805161314961039660003960008181610715015281816109d001528181610e1301528181610e4801528181610f8a01526112cc01526131496000f3fe60806040526004361061012e5760003560e01c806391d14854116100ab578063b6a6d1771161006f578063b6a6d177146103da578063d547741f14610405578063d9e69a051461042e578063f14210a614610459578063f2fde38b14610482578063f69f1e4a146104ab5761012f565b806391d1485414610300578063a217fddf1461033d578063a87c03c014610368578063b07f0a4114610393578063b1724b46146103af5761012f565b80633e48f6f8116100f25780633e48f6f81461022d5780636c9230db1461026a578063715018a61461029557806389476069146102ac5780638da5cb5b146102d55761012f565b806301ffc9a714610131578063248a9ca31461016e5780632f2ff15d146101ab57806336568abe146101d4578063369b07b3146101fd5761012f565b5b005b34801561013d57600080fd5b5061015860048036038101906101539190611d81565b6104e8565b6040516101659190611dc9565b60405180910390f35b34801561017a57600080fd5b5061019560048036038101906101909190611e1a565b610562565b6040516101a29190611e56565b60405180910390f35b3480156101b757600080fd5b506101d260048036038101906101cd9190611ecf565b610582565b005b3480156101e057600080fd5b506101fb60048036038101906101f69190611ecf565b6105a3565b005b61021760048036038101906102129190611f6a565b610626565b6040516102249190611ff4565b60405180910390f35b34801561023957600080fd5b50610254600480360381019061024f919061200f565b610ada565b6040516102619190611ff4565b60405180910390f35b34801561027657600080fd5b5061027f610af2565b60405161028c9190611ff4565b60405180910390f35b3480156102a157600080fd5b506102aa610afa565b005b3480156102b857600080fd5b506102d360048036038101906102ce919061203c565b610b0e565b005b3480156102e157600080fd5b506102ea610d75565b6040516102f79190612078565b60405180910390f35b34801561030c57600080fd5b5061032760048036038101906103229190611ecf565b610d9f565b6040516103349190611dc9565b60405180910390f35b34801561034957600080fd5b50610352610e0a565b60405161035f9190611e56565b60405180910390f35b34801561037457600080fd5b5061037d610e11565b60405161038a91906120f2565b60405180910390f35b6103ad60048036038101906103a8919061200f565b610e35565b005b3480156103bb57600080fd5b506103c46113b8565b6040516103d19190611ff4565b60405180910390f35b3480156103e657600080fd5b506103ef6113be565b6040516103fc9190611ff4565b60405180910390f35b34801561041157600080fd5b5061042c60048036038101906104279190611ecf565b6113c3565b005b34801561043a57600080fd5b506104436113e4565b6040516104509190611ff4565b60405180910390f35b34801561046557600080fd5b50610480600480360381019061047b919061200f565b6113ea565b005b34801561048e57600080fd5b506104a960048036038101906104a4919061203c565b61158a565b005b3480156104b757600080fd5b506104d260048036038101906104cd919061203c565b61160d565b6040516104df9190611ff4565b60405180910390f35b60007f7965db0b000000000000000000000000000000000000000000000000000000007bffffffffffffffffffffffffffffffffffffffffffffffffffffffff1916827bffffffffffffffffffffffffffffffffffffffffffffffffffffffff1916148061055b575061055a82611625565b5b9050919050565b600060016000838152602001908152602001600020600101549050919050565b61058b82610562565b6105948161168f565b61059e83836116a3565b505050565b6105ab611783565b73ffffffffffffffffffffffffffffffffffffffff168173ffffffffffffffffffffffffffffffffffffffff1614610618576040517f08c379a000000000000000000000000000000000000000000000000000000000815260040161060f90612190565b60405180910390fd5b610622828261178b565b5050565b600061063061186d565b60014261063d91906121df565b831161067e576040517f08c379a00000000000000000000000000000000000000000000000000000000081526004016106759061225f565b60405180910390fd5b6103e84261068c91906121df565b8311156106ce576040517f08c379a00000000000000000000000000000000000000000000000000000000081526004016106c5906122cb565b60405180910390fd5b60008511610711576040517f08c379a000000000000000000000000000000000000000000000000000000000815260040161070890612337565b60405180910390fd5b60007f000000000000000000000000000000000000000000000000000000000000000073ffffffffffffffffffffffffffffffffffffffff1663857a155b8787866040518463ffffffff1660e01b8152600401610770939291906123ce565b602060405180830381865afa15801561078d573d6000803e3d6000fd5b505050506040513d601f19601f820116820180604052508101906107b1919061241a565b9050600060038111156107c7576107c6612357565b5b8360038111156107da576107d9612357565b5b148061080a5750600260038111156107f5576107f4612357565b5b83600381111561080857610807612357565b5b145b156108575780341015610852576040517f08c379a000000000000000000000000000000000000000000000000000000000815260040161084990612493565b60405180910390fd5b6109cc565b6001600381111561086b5761086a612357565b5b83600381111561087e5761087d612357565b5b03610947578673ffffffffffffffffffffffffffffffffffffffff166323b872dd3330896040518463ffffffff1660e01b81526004016108c0939291906124b3565b6020604051808303816000875af11580156108df573d6000803e3d6000fd5b505050506040513d601f19601f820116820180604052508101906109039190612516565b610942576040517f08c379a00000000000000000000000000000000000000000000000000000000081526004016109399061258f565b60405180910390fd5b6109cb565b6000610984612710610976612ee06109688a8c6118bc90919063ffffffff16565b6118bc90919063ffffffff16565b6118d290919063ffffffff16565b9050803410156109c9576040517f08c379a00000000000000000000000000000000000000000000000000000000081526004016109c0906125fb565b60405180910390fd5b505b5b60007f000000000000000000000000000000000000000000000000000000000000000073ffffffffffffffffffffffffffffffffffffffff1663e5964256338a60008a8a8d8b6040518863ffffffff1660e01b8152600401610a34979695949392919061261b565b6020604051808303816000875af1158015610a53573d6000803e3d6000fd5b505050506040513d601f19601f82011682018060405250810190610a77919061241a565b905060008890507fc96ef33ded7a92bffdf0829334f48b3dc49e4b77abb9430c8ab699590ea6f8a98233858b8b8b8b88604051610abb98979695949392919061268a565b60405180910390a1819350505050610ad16118e8565b95945050505050565b60036020528060005260406000206000915090505481565b600042905090565b610b026118f2565b610b0c6000611970565b565b610b166118f2565b600073ffffffffffffffffffffffffffffffffffffffff168173ffffffffffffffffffffffffffffffffffffffff1603610b85576040517f08c379a0000000000000000000000000000000000000000000000000000000008152600401610b7c90612754565b60405180910390fd5b60008173ffffffffffffffffffffffffffffffffffffffff166370a08231306040518263ffffffff1660e01b8152600401610bc09190612078565b602060405180830381865afa158015610bdd573d6000803e3d6000fd5b505050506040513d601f19601f82011682018060405250810190610c01919061241a565b905060008111610c46576040517f08c379a0000000000000000000000000000000000000000000000000000000008152600401610c3d906127c0565b60405180910390fd5b60008273ffffffffffffffffffffffffffffffffffffffff1663a9059cbb610c6c610d75565b846040518363ffffffff1660e01b8152600401610c8a9291906127e0565b6020604051808303816000875af1158015610ca9573d6000803e3d6000fd5b505050506040513d601f19601f82011682018060405250810190610ccd9190612516565b905080610d0f576040517f08c379a0000000000000000000000000000000000000000000000000000000008152600401610d0690612855565b60405180910390fd5b610d17610d75565b73ffffffffffffffffffffffffffffffffffffffff168373ffffffffffffffffffffffffffffffffffffffff167faa785f34069ec178fd3d41eb09b40d8a87c47e1024a65a81c044a09a6a16bb7c60405160405180910390a3505050565b6000600260009054906101000a900473ffffffffffffffffffffffffffffffffffffffff16905090565b60006001600084815260200190815260200160002060000160008373ffffffffffffffffffffffffffffffffffffffff1673ffffffffffffffffffffffffffffffffffffffff16815260200190815260200160002060009054906101000a900460ff16905092915050565b6000801b81565b7f000000000000000000000000000000000000000000000000000000000000000081565b610e3d61186d565b6000806000806000807f000000000000000000000000000000000000000000000000000000000000000073ffffffffffffffffffffffffffffffffffffffff1663eb02c301886040518263ffffffff1660e01b8152600401610e9f9190611ff4565b60e060405180830381865afa158015610ebc573d6000803e3d6000fd5b505050506040513d601f19601f82011682018060405250810190610ee0919061289f565b965096509650965096505095508015610f2e576040517f08c379a0000000000000000000000000000000000000000000000000000000008152600401610f259061298d565b60405180910390fd5b83421015610f71576040517f08c379a0000000000000000000000000000000000000000000000000000000008152600401610f68906129f9565b60405180910390fd5b3373ffffffffffffffffffffffffffffffffffffffff167f000000000000000000000000000000000000000000000000000000000000000073ffffffffffffffffffffffffffffffffffffffff16636352211e896040518263ffffffff1660e01b8152600401610fe19190611ff4565b602060405180830381865afa158015610ffe573d6000803e3d6000fd5b505050506040513d601f19601f820116820180604052508101906110229190612a19565b73ffffffffffffffffffffffffffffffffffffffff1614611078576040517f08c379a000000000000000000000000000000000000000000000000000000000815260040161106f90612a92565b60405180910390fd5b600080600381111561108d5761108c612357565b5b8360038111156110a05761109f612357565b5b03611181576110b886856118bc90919063ffffffff16565b9050803410156110fd576040517f08c379a00000000000000000000000000000000000000000000000000000000081526004016110f490612afe565b60405180910390fd5b8673ffffffffffffffffffffffffffffffffffffffff1663a9059cbb33866040518363ffffffff1660e01b81526004016111389291906127e0565b6020604051808303816000875af1158015611157573d6000803e3d6000fd5b505050506040513d601f19601f8201168201806040525081019061117b9190612516565b506112ca565b6002600381111561119557611194612357565b5b8360038111156111a8576111a7612357565b5b036112c9576111c086856118bc90919063ffffffff16565b90508673ffffffffffffffffffffffffffffffffffffffff166323b872dd3330876040518463ffffffff1660e01b81526004016111ff939291906124b3565b6020604051808303816000875af115801561121e573d6000803e3d6000fd5b505050506040513d601f19601f820116820180604052508101906112429190612516565b611281576040517f08c379a000000000000000000000000000000000000000000000000000000000815260040161127890612855565b60405180910390fd5b3373ffffffffffffffffffffffffffffffffffffffff166108fc829081150290604051600060405180830381858888f193505050501580156112c7573d6000803e3d6000fd5b505b5b7f000000000000000000000000000000000000000000000000000000000000000073ffffffffffffffffffffffffffffffffffffffff166374bf6990896040518263ffffffff1660e01b81526004016113239190611ff4565b600060405180830381600087803b15801561133d57600080fd5b505af1158015611351573d6000803e3d6000fd5b505050503373ffffffffffffffffffffffffffffffffffffffff16887ff30bc0392499ea7de5e644b734d673788ca982c6bb852c80a7c8cd13b583927c868460405161139e929190612b1e565b60405180910390a3505050505050506113b56118e8565b50565b6103e881565b600181565b6113cc82610562565b6113d58161168f565b6113df838361178b565b505050565b612ee081565b6113f26118f2565b60008111611435576040517f08c379a000000000000000000000000000000000000000000000000000000000815260040161142c90612b93565b60405180910390fd5b60004790508181101561147d576040517f08c379a0000000000000000000000000000000000000000000000000000000008152600401611474906127c0565b60405180910390fd5b6000611487610d75565b73ffffffffffffffffffffffffffffffffffffffff16836040516114aa90612be4565b60006040518083038185875af1925050503d80600081146114e7576040519150601f19603f3d011682016040523d82523d6000602084013e6114ec565b606091505b5050905080611530576040517f08c379a000000000000000000000000000000000000000000000000000000000815260040161152790612c45565b60405180910390fd5b611538610d75565b73ffffffffffffffffffffffffffffffffffffffff167f6148672a948a12b8e0bf92a9338349b9ac890fad62a234abaf0a4da99f62cfcc8460405161157d9190611ff4565b60405180910390a2505050565b6115926118f2565b600073ffffffffffffffffffffffffffffffffffffffff168173ffffffffffffffffffffffffffffffffffffffff1603611601576040517f08c379a00000000000000000000000000000000000000000000000000000000081526004016115f890612cd7565b60405180910390fd5b61160a81611970565b50565b60046020528060005260406000206000915090505481565b60007f01ffc9a7000000000000000000000000000000000000000000000000000000007bffffffffffffffffffffffffffffffffffffffffffffffffffffffff1916827bffffffffffffffffffffffffffffffffffffffffffffffffffffffff1916149050919050565b6116a08161169b611783565b611a36565b50565b6116ad8282610d9f565b61177f57600180600084815260200190815260200160002060000160008373ffffffffffffffffffffffffffffffffffffffff1673ffffffffffffffffffffffffffffffffffffffff16815260200190815260200160002060006101000a81548160ff021916908315150217905550611724611783565b73ffffffffffffffffffffffffffffffffffffffff168173ffffffffffffffffffffffffffffffffffffffff16837f2f8788117e7eff1d82e926ec794901d17c78024a50270940304540a733656f0d60405160405180910390a45b5050565b600033905090565b6117958282610d9f565b156118695760006001600084815260200190815260200160002060000160008373ffffffffffffffffffffffffffffffffffffffff1673ffffffffffffffffffffffffffffffffffffffff16815260200190815260200160002060006101000a81548160ff02191690831515021790555061180e611783565b73ffffffffffffffffffffffffffffffffffffffff168173ffffffffffffffffffffffffffffffffffffffff16837ff6391f5c32d9c69d2a47ea670b442974b53935d1edc7fd64eb21e047a839171b60405160405180910390a45b5050565b6002600054036118b2576040517f08c379a00000000000000000000000000000000000000000000000000000000081526004016118a990612d43565b60405180910390fd5b6002600081905550565b600081836118ca9190612d63565b905092915050565b600081836118e09190612dd4565b905092915050565b6001600081905550565b6118fa611783565b73ffffffffffffffffffffffffffffffffffffffff16611918610d75565b73ffffffffffffffffffffffffffffffffffffffff161461196e576040517f08c379a000000000000000000000000000000000000000000000000000000000815260040161196590612e51565b60405180910390fd5b565b6000600260009054906101000a900473ffffffffffffffffffffffffffffffffffffffff16905081600260006101000a81548173ffffffffffffffffffffffffffffffffffffffff021916908373ffffffffffffffffffffffffffffffffffffffff1602179055508173ffffffffffffffffffffffffffffffffffffffff168173ffffffffffffffffffffffffffffffffffffffff167f8be0079c531659141344cd1fd0a4f28419497f9722a3daafe3b4186f6b6457e060405160405180910390a35050565b611a408282610d9f565b611ab757611a4d81611abb565b611a5b8360001c6020611ae8565b604051602001611a6c929190612f7a565b6040516020818303038152906040526040517f08c379a0000000000000000000000000000000000000000000000000000000008152600401611aae9190612ffe565b60405180910390fd5b5050565b6060611ae18273ffffffffffffffffffffffffffffffffffffffff16601460ff16611ae8565b9050919050565b606060006002836002611afb9190612d63565b611b0591906121df565b67ffffffffffffffff811115611b1e57611b1d613020565b5b6040519080825280601f01601f191660200182016040528015611b505781602001600182028036833780820191505090505b5090507f300000000000000000000000000000000000000000000000000000000000000081600081518110611b8857611b8761304f565b5b60200101907effffffffffffffffffffffffffffffffffffffffffffffffffffffffffffff1916908160001a9053507f780000000000000000000000000000000000000000000000000000000000000081600181518110611bec57611beb61304f565b5b60200101907effffffffffffffffffffffffffffffffffffffffffffffffffffffffffffff1916908160001a90535060006001846002611c2c9190612d63565b611c3691906121df565b90505b6001811115611cd6577f3031323334353637383961626364656600000000000000000000000000000000600f861660108110611c7857611c7761304f565b5b1a60f81b828281518110611c8f57611c8e61304f565b5b60200101907effffffffffffffffffffffffffffffffffffffffffffffffffffffffffffff1916908160001a905350600485901c945080611ccf9061307e565b9050611c39565b5060008414611d1a576040517f08c379a0000000000000000000000000000000000000000000000000000000008152600401611d11906130f3565b60405180910390fd5b8091505092915050565b600080fd5b60007fffffffff0000000000000000000000000000000000000000000000000000000082169050919050565b611d5e81611d29565b8114611d6957600080fd5b50565b600081359050611d7b81611d55565b92915050565b600060208284031215611d9757611d96611d24565b5b6000611da584828501611d6c565b91505092915050565b60008115159050919050565b611dc381611dae565b82525050565b6000602082019050611dde6000830184611dba565b92915050565b6000819050919050565b611df781611de4565b8114611e0257600080fd5b50565b600081359050611e1481611dee565b92915050565b600060208284031215611e3057611e2f611d24565b5b6000611e3e84828501611e05565b91505092915050565b611e5081611de4565b82525050565b6000602082019050611e6b6000830184611e47565b92915050565b600073ffffffffffffffffffffffffffffffffffffffff82169050919050565b6000611e9c82611e71565b9050919050565b611eac81611e91565b8114611eb757600080fd5b50565b600081359050611ec981611ea3565b92915050565b60008060408385031215611ee657611ee5611d24565b5b6000611ef485828601611e05565b9250506020611f0585828601611eba565b9150509250929050565b6000819050919050565b611f2281611f0f565b8114611f2d57600080fd5b50565b600081359050611f3f81611f19565b92915050565b60048110611f5257600080fd5b50565b600081359050611f6481611f45565b92915050565b600080600080600060a08688031215611f8657611f85611d24565b5b6000611f9488828901611eba565b9550506020611fa588828901611f30565b9450506040611fb688828901611f30565b9350506060611fc788828901611f30565b9250506080611fd888828901611f55565b9150509295509295909350565b611fee81611f0f565b82525050565b60006020820190506120096000830184611fe5565b92915050565b60006020828403121561202557612024611d24565b5b600061203384828501611f30565b91505092915050565b60006020828403121561205257612051611d24565b5b600061206084828501611eba565b91505092915050565b61207281611e91565b82525050565b600060208201905061208d6000830184612069565b92915050565b6000819050919050565b60006120b86120b36120ae84611e71565b612093565b611e71565b9050919050565b60006120ca8261209d565b9050919050565b60006120dc826120bf565b9050919050565b6120ec816120d1565b82525050565b600060208201905061210760008301846120e3565b92915050565b600082825260208201905092915050565b7f416363657373436f6e74726f6c3a2063616e206f6e6c792072656e6f756e636560008201527f20726f6c657320666f722073656c660000000000000000000000000000000000602082015250565b600061217a602f8361210d565b91506121858261211e565b604082019050919050565b600060208201905081810360008301526121a98161216d565b9050919050565b7f4e487b7100000000000000000000000000000000000000000000000000000000600052601160045260246000fd5b60006121ea82611f0f565b91506121f583611f0f565b925082820190508082111561220d5761220c6121b0565b5b92915050565b7f45787069727920746f6f20736f6f6e0000000000000000000000000000000000600082015250565b6000612249600f8361210d565b915061225482612213565b602082019050919050565b600060208201905081810360008301526122788161223c565b9050919050565b7f45787069727920746f6f20666172000000000000000000000000000000000000600082015250565b60006122b5600e8361210d565b91506122c08261227f565b602082019050919050565b600060208201905081810360008301526122e4816122a8565b9050919050565b7f496e76616c696420616d6f756e74000000000000000000000000000000000000600082015250565b6000612321600e8361210d565b915061232c826122eb565b602082019050919050565b6000602082019050818103600083015261235081612314565b9050919050565b7f4e487b7100000000000000000000000000000000000000000000000000000000600052602160045260246000fd5b6004811061239757612396612357565b5b50565b60008190506123a882612386565b919050565b60006123b88261239a565b9050919050565b6123c8816123ad565b82525050565b60006060820190506123e36000830186611fe5565b6123f06020830185611fe5565b6123fd60408301846123bf565b949350505050565b60008151905061241481611f19565b92915050565b6000602082840312156124305761242f611d24565b5b600061243e84828501612405565b91505092915050565b7f496e73756666696369656e74207072656d69756d000000000000000000000000600082015250565b600061247d60148361210d565b915061248882612447565b602082019050919050565b600060208201905081810360008301526124ac81612470565b9050919050565b60006060820190506124c86000830186612069565b6124d56020830185612069565b6124e26040830184611fe5565b949350505050565b6124f381611dae565b81146124fe57600080fd5b50565b600081519050612510816124ea565b92915050565b60006020828403121561252c5761252b611d24565b5b600061253a84828501612501565b91505092915050565b7f436f6c6c61746572616c207472616e73666572206661696c6564000000000000600082015250565b6000612579601a8361210d565b915061258482612543565b602082019050919050565b600060208201905081810360008301526125a88161256c565b9050919050565b7f496e73756666696369656e7420636f6c6c61746572616c000000000000000000600082015250565b60006125e560178361210d565b91506125f0826125af565b602082019050919050565b60006020820190508181036000830152612614816125d8565b9050919050565b600060e082019050612630600083018a612069565b61263d6020830189612069565b61264a6040830188612069565b6126576060830187611fe5565b6126646080830186611fe5565b61267160a0830185611fe5565b61267e60c08301846123bf565b98975050505050505050565b6000610100820190506126a0600083018b611fe5565b6126ad602083018a612069565b6126ba6040830189611fe5565b6126c76060830188611fe5565b6126d46080830187611fe5565b6126e160a0830186611fe5565b6126ee60c08301856123bf565b6126fb60e0830184612069565b9998505050505050505050565b7f496e76616c696420746f6b656e20616464726573730000000000000000000000600082015250565b600061273e60158361210d565b915061274982612708565b602082019050919050565b6000602082019050818103600083015261276d81612731565b9050919050565b7f496e73756666696369656e742062616c616e6365000000000000000000000000600082015250565b60006127aa60148361210d565b91506127b582612774565b602082019050919050565b600060208201905081810360008301526127d98161279d565b9050919050565b60006040820190506127f56000830185612069565b6128026020830184611fe5565b9392505050565b7f5472616e73666572206661696c65640000000000000000000000000000000000600082015250565b600061283f600f8361210d565b915061284a82612809565b602082019050919050565b6000602082019050818103600083015261286e81612832565b9050919050565b60008151905061288481611ea3565b92915050565b60008151905061289981611f45565b92915050565b600080600080600080600060e0888a0312156128be576128bd611d24565b5b60006128cc8a828b01612875565b97505060206128dd8a828b01612875565b96505060406128ee8a828b01612405565b95505060606128ff8a828b01612405565b94505060806129108a828b01612405565b93505060a06129218a828b0161288a565b92505060c06129328a828b01612501565b91505092959891949750929550565b7f506f736974696f6e20616c726561647920736574746c65640000000000000000600082015250565b600061297760188361210d565b915061298282612941565b602082019050919050565b600060208201905081810360008301526129a68161296a565b9050919050565b7f4e6f742079657420657870697265640000000000000000000000000000000000600082015250565b60006129e3600f8361210d565b91506129ee826129ad565b602082019050919050565b60006020820190508181036000830152612a12816129d6565b9050919050565b600060208284031215612a2f57612a2e611d24565b5b6000612a3d84828501612875565b91505092915050565b7f4e6f7420706f736974696f6e206f776e65720000000000000000000000000000600082015250565b6000612a7c60128361210d565b9150612a8782612a46565b602082019050919050565b60006020820190508181036000830152612aab81612a6f565b9050919050565b7f496e73756666696369656e74207061796d656e74000000000000000000000000600082015250565b6000612ae860148361210d565b9150612af382612ab2565b602082019050919050565b60006020820190508181036000830152612b1781612adb565b9050919050565b6000604082019050612b336000830185611fe5565b612b406020830184611fe5565b9392505050565b7f416d6f756e74206d7573742062652067726561746572207468616e2030000000600082015250565b6000612b7d601d8361210d565b9150612b8882612b47565b602082019050919050565b60006020820190508181036000830152612bac81612b70565b9050919050565b600081905092915050565b50565b6000612bce600083612bb3565b9150612bd982612bbe565b600082019050919050565b6000612bef82612bc1565b9150819050919050565b7f455448207472616e73666572206661696c656400000000000000000000000000600082015250565b6000612c2f60138361210d565b9150612c3a82612bf9565b602082019050919050565b60006020820190508181036000830152612c5e81612c22565b9050919050565b7f4f776e61626c653a206e6577206f776e657220697320746865207a65726f206160008201527f6464726573730000000000000000000000000000000000000000000000000000602082015250565b6000612cc160268361210d565b9150612ccc82612c65565b604082019050919050565b60006020820190508181036000830152612cf081612cb4565b9050919050565b7f5265656e7472616e637947756172643a207265656e7472616e742063616c6c00600082015250565b6000612d2d601f8361210d565b9150612d3882612cf7565b602082019050919050565b60006020820190508181036000830152612d5c81612d20565b9050919050565b6000612d6e82611f0f565b9150612d7983611f0f565b9250828202612d8781611f0f565b91508282048414831517612d9e57612d9d6121b0565b5b5092915050565b7f4e487b7100000000000000000000000000000000000000000000000000000000600052601260045260246000fd5b6000612ddf82611f0f565b9150612dea83611f0f565b925082612dfa57612df9612da5565b5b828204905092915050565b7f4f776e61626c653a2063616c6c6572206973206e6f7420746865206f776e6572600082015250565b6000612e3b60208361210d565b9150612e4682612e05565b602082019050919050565b60006020820190508181036000830152612e6a81612e2e565b9050919050565b600081905092915050565b7f416363657373436f6e74726f6c3a206163636f756e7420000000000000000000600082015250565b6000612eb2601783612e71565b9150612ebd82612e7c565b601782019050919050565b600081519050919050565b60005b83811015612ef1578082015181840152602081019050612ed6565b60008484015250505050565b6000612f0882612ec8565b612f128185612e71565b9350612f22818560208601612ed3565b80840191505092915050565b7f206973206d697373696e6720726f6c6520000000000000000000000000000000600082015250565b6000612f64601183612e71565b9150612f6f82612f2e565b601182019050919050565b6000612f8582612ea5565b9150612f918285612efd565b9150612f9c82612f57565b9150612fa88284612efd565b91508190509392505050565b6000601f19601f8301169050919050565b6000612fd082612ec8565b612fda818561210d565b9350612fea818560208601612ed3565b612ff381612fb4565b840191505092915050565b600060208201905081810360008301526130188184612fc5565b905092915050565b7f4e487b7100000000000000000000000000000000000000000000000000000000600052604160045260246000fd5b7f4e487b7100000000000000000000000000000000000000000000000000000000600052603260045260246000fd5b600061308982611f0f565b91506000820361309c5761309b6121b0565b5b600182039050919050565b7f537472696e67733a20686578206c656e67746820696e73756666696369656e74600082015250565b60006130dd60208361210d565b91506130e8826130a7565b602082019050919050565b6000602082019050818103600083015261310c816130d0565b905091905056fea2646970667358221220f76820c5b01e8ea91eebab17b2db80c2ed2a5d7858912d3c5f66458c100512aa64736f6c634300081c0033",
  "linkReferences": {},
  "deployedLinkReferences": {}
}