{
  "_format": "hh-sol-artifact-1",
  "contractName": "OptionsEngine",
  "sourceName": "contracts/OptionEngine.sol",
  "abi": [
    {
      "inputs": [
        {
          "internalType": "address",
          "name": "_optionPosition",
          "type": "address"
        }
      ],
      "stateMutability": "nonpayable",
      "type": "constructor"
    },
    {
      "anonymous": false,
      "inputs": [
        {
          "indexed": false,
          "internalType": "uint256",
          "name": "amount",
          "type": "uint256"
        },
        {
          "indexed": true,
          "internalType": "address",
          "name": "to",
          "type": "address"
        }
      ],
      "name": "ETHWithdrawn",
      "type": "event"
    },
    {
      "anonymous": false,
      "inputs": [
        {
          "indexed": true,
          "internalType": "address",
          "name": "previousOwner",
          "type": "address"
        },
        {
          "indexed": true,
          "internalType": "address",
          "name": "newOwner",
          "type": "address"
        }
      ],
      "name": "OwnershipTransferred",
      "type": "event"
    },
    {
      "anonymous": false,
      "inputs": [
        {
          "indexed": true,
          "internalType": "uint256",
          "name": "tokenId",
          "type": "uint256"
        },
        {
          "indexed": true,
          "internalType": "address",
          "name": "trader",
          "type": "address"
        },
        {
          "indexed": false,
          "internalType": "uint256",
          "name": "amount",
          "type": "uint256"
        },
        {
          "indexed": false,
          "internalType": "uint256",
          "name": "settlementAmount",
          "type": "uint256"
        }
      ],
      "name": "PositionExercised",
      "type": "event"
    },
    {
      "anonymous": false,
      "inputs": [
        {
          "indexed": false,
          "internalType": "uint256",
          "name": "tokenId",
          "type": "uint256"
        },
        {
          "indexed": false,
          "internalType": "address",
          "name": "trader",
          "type": "address"
        },
        {
          "indexed": false,
          "internalType": "uint256",
          "name": "premium",
          "type": "uint256"
        },
        {
          "indexed": false,
          "internalType": "uint256",
          "name": "collateral",
          "type": "uint256"
        },
        {
          "indexed": false,
          "internalType": "uint256",
          "name": "strikePrice",
          "type": "uint256"
        },
        {
          "indexed": false,
          "internalType": "uint256",
          "name": "expiry",
          "type": "uint256"
        },
        {
          "indexed": false,
          "internalType": "enum OptionPosition.PositionType",
          "name": "positionType",
          "type": "uint8"
        },
        {
          "indexed": false,
          "internalType": "address",
          "name": "underlying",
          "type": "address"
        }
      ],
      "name": "PositionOpened",
      "type": "event"
    },
    {
      "anonymous": false,
      "inputs": [
        {
          "indexed": true,
          "internalType": "uint256",
          "name": "tokenId",
          "type": "uint256"
        },
        {
          "indexed": true,
          "internalType": "address",
          "name": "writer",
          "type": "address"
        },
        {
          "indexed": false,
          "internalType": "uint256",
          "name": "amount",
          "type": "uint256"
        }
      ],
      "name": "PremiumWithdrawn",
      "type": "event"
    },
    {
      "anonymous": false,
      "inputs": [
        {
          "indexed": true,
          "internalType": "bytes32",
          "name": "role",
          "type": "bytes32"
        },
        {
          "indexed": true,
          "internalType": "bytes32",
          "name": "previousAdminRole",
          "type": "bytes32"
        },
        {
          "indexed": true,
          "internalType": "bytes32",
          "name": "newAdminRole",
          "type": "bytes32"
        }
      ],
      "name": "RoleAdminChanged",
      "type": "event"
    },
    {
      "anonymous": false,
      "inputs": [
        {
          "indexed": true,
          "internalType": "bytes32",
          "name": "role",
          "type": "bytes32"
        },
        {
          "indexed": true,
          "internalType": "address",
          "name": "account",
          "type": "address"
        },
        {
          "indexed": true,
          "internalType": "address",
          "name": "sender",
          "type": "address"
        }
      ],
      "name": "RoleGranted",
      "type": "event"
    },
    {
      "anonymous": false,
      "inputs": [
        {
          "indexed": true,
          "internalType": "bytes32",
          "name": "role",
          "type": "bytes32"
        },
        {
          "indexed": true,
          "internalType": "address",
          "name": "account",
          "type": "address"
        },
        {
          "indexed": true,
          "internalType": "address",
          "name": "sender",
          "type": "address"
        }
      ],
      "name": "RoleRevoked",
      "type": "event"
    },
    {
      "anonymous": false,
      "inputs": [
        {
          "indexed": true,
          "internalType": "address",
          "name": "token",
          "type": "address"
        },
        {
          "indexed": true,
          "internalType": "address",
          "name": "to",
          "type": "address"
        }
      ],
      "name": "TokenWithdrawn",
      "type": "event"
    },
    {
      "stateMutability": "payable",
      "type": "fallback"
    },
    {
      "inputs": [],
      "name": "COLLATERAL_RATIO",
      "outputs": [
        {
          "internalType": "uint256",
          "name": "",
          "type": "uint256"
        }
      ],
      "stateMutability": "view",
      "type": "function"
    },
    {
      "inputs": [],
      "name": "DEFAULT_ADMIN_ROLE",
      "outputs": [
        {
          "internalType": "bytes32",
          "name": "",
          "type": "bytes32"
        }
      ],
      "stateMutability": "view",
      "type": "function"
    },
    {
      "inputs": [],
      "name": "MAX_DURATION",
      "outputs": [
        {
          "internalType": "uint256",
          "name": "",
          "type": "uint256"
        }
      ],
      "stateMutability": "view",
      "type": "function"
    },
    {
      "inputs": [],
      "name": "MIN_DURATION",
      "outputs": [
        {
          "internalType": "uint256",
          "name": "",
          "type": "uint256"
        }
      ],
      "stateMutability": "view",
      "type": "function"
    },
    {
      "inputs": [
        {
          "internalType": "uint256",
          "name": "tokenId",
          "type": "uint256"
        }
      ],
      "name": "exercise",
      "outputs": [],
      "stateMutability": "payable",
      "type": "function"
    },
    {
      "inputs": [],
      "name": "getCurrentTimestamp",
      "outputs": [
        {
          "internalType": "uint256",
          "name": "",
          "type": "uint256"
        }
      ],
      "stateMutability": "view",
      "type": "function"
    },
    {
      "inputs": [
        {
          "internalType": "bytes32",
          "name": "role",
          "type": "bytes32"
        }
      ],
      "name": "getRoleAdmin",
      "outputs": [
        {
          "internalType": "bytes32",
          "name": "",
          "type": "bytes32"
        }
      ],
      "stateMutability": "view",
      "type": "function"
    },
    {
      "inputs": [
        {
          "internalType": "bytes32",
          "name": "role",
          "type": "bytes32"
        },
        {
          "internalType": "address",
          "name": "account",
          "type": "address"
        }
      ],
      "name": "grantRole",
      "outputs": [],
      "stateMutability": "nonpayable",
      "type": "function"
    },
    {
      "inputs": [
        {
          "internalType": "bytes32",
          "name": "role",
          "type": "bytes32"
        },
        {
          "internalType": "address",
          "name": "account",
          "type": "address"
        }
      ],
      "name": "hasRole",
      "outputs": [
        {
          "internalType": "bool",
          "name": "",
          "type": "bool"
        }
      ],
      "stateMutability": "view",
      "type": "function"
    },
    {
      "inputs": [
        {
          "internalType": "uint256",
          "name": "",
          "type": "uint256"
        }
      ],
      "name": "lockedCollateral",
      "outputs": [
        {
          "internalType": "uint256",
          "name": "",
          "type": "uint256"
        }
      ],
      "stateMutability": "view",
      "type": "function"
    },
    {
      "inputs": [
        {
          "internalType": "address",
          "name": "underlying",
          "type": "address"
        },
        {
          "internalType": "uint256",
          "name": "amount",
          "type": "uint256"
        },
        {
          "internalType": "uint256",
          "name": "strikePrice",
          "type": "uint256"
        },
        {
          "internalType": "uint256",
          "name": "expiry",
          "type": "uint256"
        },
        {
          "internalType": "enum OptionPosition.PositionType",
          "name": "positionType",
          "type": "uint8"
        }
      ],
      "name": "openPosition",
      "outputs": [
        {
          "internalType": "uint256",
          "name": "",
          "type": "uint256"
        }
      ],
      "stateMutability": "nonpayable",
      "type": "function"
    },
    {
      "inputs": [],
      "name": "optionPosition",
      "outputs": [
        {
          "internalType": "contract OptionPosition",
          "name": "",
          "type": "address"
        }
      ],
      "stateMutability": "view",
      "type": "function"
    },
    {
      "inputs": [],
      "name": "owner",
      "outputs": [
        {
          "internalType": "address",
          "name": "",
          "type": "address"
        }
      ],
      "stateMutability": "view",
      "type": "function"
    },
    {
      "inputs": [
        {
          "internalType": "uint256",
          "name": "",
          "type": "uint256"
        }
      ],
      "name": "premiumForPosition",
      "outputs": [
        {
          "internalType": "uint256",
          "name": "",
          "type": "uint256"
        }
      ],
      "stateMutability": "view",
      "type": "function"
    },
    {
      "inputs": [
        {
          "internalType": "uint256",
          "name": "",
          "type": "uint256"
        }
      ],
      "name": "premiumWithdrawn",
      "outputs": [
        {
          "internalType": "bool",
          "name": "",
          "type": "bool"
        }
      ],
      "stateMutability": "view",
      "type": "function"
    },
    {
      "inputs": [],
      "name": "renounceOwnership",
      "outputs": [],
      "stateMutability": "nonpayable",
      "type": "function"
    },
    {
      "inputs": [
        {
          "internalType": "bytes32",
          "name": "role",
          "type": "bytes32"
        },
        {
          "internalType": "address",
          "name": "account",
          "type": "address"
        }
      ],
      "name": "renounceRole",
      "outputs": [],
      "stateMutability": "nonpayable",
      "type": "function"
    },
    {
      "inputs": [
        {
          "internalType": "bytes32",
          "name": "role",
          "type": "bytes32"
        },
        {
          "internalType": "address",
          "name": "account",
          "type": "address"
        }
      ],
      "name": "revokeRole",
      "outputs": [],
      "stateMutability": "nonpayable",
      "type": "function"
    },
    {
      "inputs": [
        {
          "internalType": "bytes4",
          "name": "interfaceId",
          "type": "bytes4"
        }
      ],
      "name": "supportsInterface",
      "outputs": [
        {
          "internalType": "bool",
          "name": "",
          "type": "bool"
        }
      ],
      "stateMutability": "view",
      "type": "function"
    },
    {
      "inputs": [
        {
          "internalType": "address",
          "name": "newOwner",
          "type": "address"
        }
      ],
      "name": "transferOwnership",
      "outputs": [],
      "stateMutability": "nonpayable",
      "type": "function"
    },
    {
      "inputs": [
        {
          "internalType": "address",
          "name": "",
          "type": "address"
        }
      ],
      "name": "userCollateral",
      "outputs": [
        {
          "internalType": "uint256",
          "name": "",
          "type": "uint256"
        }
      ],
      "stateMutability": "view",
      "type": "function"
    },
    {
      "inputs": [
        {
          "internalType": "uint256",
          "name": "amount",
          "type": "uint256"
        }
      ],
      "name": "withdrawETH",
      "outputs": [],
      "stateMutability": "nonpayable",
      "type": "function"
    },
    {
      "inputs": [
        {
          "internalType": "uint256",
          "name": "tokenId",
          "type": "uint256"
        }
      ],
      "name": "withdrawPremium",
      "outputs": [],
      "stateMutability": "nonpayable",
      "type": "function"
    },
    {
      "inputs": [
        {
          "internalType": "address",
          "name": "token",
          "type": "address"
        }
      ],
      "name": "withdrawToken",
      "outputs": [],
      "stateMutability": "nonpayable",
      "type": "function"
    },
    {
      "stateMutability": "payable",
      "type": "receive"
    }
  ],
  "bytecode": "0x60a060405234801561001057600080fd5b50604051613ce8380380613ce88339818101604052810190610032919061032b565b600160008190555061005661004b6100a360201b60201c565b6100ab60201b60201c565b8073ffffffffffffffffffffffffffffffffffffffff1660808173ffffffffffffffffffffffffffffffffffffffff168152505061009d6000801b3361017160201b60201c565b50610358565b600033905090565b6000600260009054906101000a900473ffffffffffffffffffffffffffffffffffffffff16905081600260006101000a81548173ffffffffffffffffffffffffffffffffffffffff021916908373ffffffffffffffffffffffffffffffffffffffff1602179055508173ffffffffffffffffffffffffffffffffffffffff168173ffffffffffffffffffffffffffffffffffffffff167f8be0079c531659141344cd1fd0a4f28419497f9722a3daafe3b4186f6b6457e060405160405180910390a35050565b610181828261025d60201b60201c565b61025957600180600084815260200190815260200160002060000160008373ffffffffffffffffffffffffffffffffffffffff1673ffffffffffffffffffffffffffffffffffffffff16815260200190815260200160002060006101000a81548160ff0219169083151502179055506101fe6100a360201b60201c565b73ffffffffffffffffffffffffffffffffffffffff168173ffffffffffffffffffffffffffffffffffffffff16837f2f8788117e7eff1d82e926ec794901d17c78024a50270940304540a733656f0d60405160405180910390a45b5050565b60006001600084815260200190815260200160002060000160008373ffffffffffffffffffffffffffffffffffffffff1673ffffffffffffffffffffffffffffffffffffffff16815260200190815260200160002060009054906101000a900460ff16905092915050565b600080fd5b600073ffffffffffffffffffffffffffffffffffffffff82169050919050565b60006102f8826102cd565b9050919050565b610308816102ed565b811461031357600080fd5b50565b600081519050610325816102ff565b92915050565b600060208284031215610341576103406102c8565b5b600061034f84828501610316565b91505092915050565b6080516139446103a460003960008181610643015281816106ff01528181610c8401528181611037015281816114ca015281816114ff01528181611641015261198301526139446000f3fe60806040526004361061014f5760003560e01c80638da5cb5b116100b6578063b6a6d1771161006f578063b6a6d177146104ab578063d547741f146104d6578063d9e69a05146104ff578063f14210a61461052a578063f2fde38b14610553578063f69f1e4a1461057c57610150565b80638da5cb5b146103a657806391d14854146103d1578063a217fddf1461040e578063a87c03c014610439578063b07f0a4114610464578063b1724b461461048057610150565b80633e48f6f8116101085780633e48f6f814610284578063619de09e146102c15780636c9230db146102fe578063715018a61461032957806382e8573c14610340578063894760691461037d57610150565b806301ffc9a7146101525780631f01664a1461018f578063248a9ca3146101b85780632f2ff15d146101f557806336568abe1461021e578063369b07b31461024757610150565b5b005b34801561015e57600080fd5b5061017960048036038101906101749190612438565b6105b9565b6040516101869190612480565b60405180910390f35b34801561019b57600080fd5b506101b660048036038101906101b191906124d1565b610633565b005b3480156101c457600080fd5b506101df60048036038101906101da9190612534565b610ad1565b6040516101ec9190612570565b60405180910390f35b34801561020157600080fd5b5061021c600480360381019061021791906125e9565b610af1565b005b34801561022a57600080fd5b50610245600480360381019061024091906125e9565b610b12565b005b34801561025357600080fd5b5061026e6004803603810190610269919061264e565b610b95565b60405161027b91906126d8565b60405180910390f35b34801561029057600080fd5b506102ab60048036038101906102a691906124d1565b611159565b6040516102b891906126d8565b60405180910390f35b3480156102cd57600080fd5b506102e860048036038101906102e391906124d1565b611171565b6040516102f59190612480565b60405180910390f35b34801561030a57600080fd5b50610313611191565b60405161032091906126d8565b60405180910390f35b34801561033557600080fd5b5061033e611199565b005b34801561034c57600080fd5b50610367600480360381019061036291906124d1565b6111ad565b60405161037491906126d8565b60405180910390f35b34801561038957600080fd5b506103a4600480360381019061039f91906126f3565b6111c5565b005b3480156103b257600080fd5b506103bb61142c565b6040516103c8919061272f565b60405180910390f35b3480156103dd57600080fd5b506103f860048036038101906103f391906125e9565b611456565b6040516104059190612480565b60405180910390f35b34801561041a57600080fd5b506104236114c1565b6040516104309190612570565b60405180910390f35b34801561044557600080fd5b5061044e6114c8565b60405161045b91906127a9565b60405180910390f35b61047e600480360381019061047991906124d1565b6114ec565b005b34801561048c57600080fd5b50610495611a6f565b6040516104a291906126d8565b60405180910390f35b3480156104b757600080fd5b506104c0611a75565b6040516104cd91906126d8565b60405180910390f35b3480156104e257600080fd5b506104fd60048036038101906104f891906125e9565b611a7a565b005b34801561050b57600080fd5b50610514611a9b565b60405161052191906126d8565b60405180910390f35b34801561053657600080fd5b50610551600480360381019061054c91906124d1565b611aa1565b005b34801561055f57600080fd5b5061057a600480360381019061057591906126f3565b611c41565b005b34801561058857600080fd5b506105a3600480360381019061059e91906126f3565b611cc4565b6040516105b091906126d8565b60405180910390f35b60007f7965db0b000000000000000000000000000000000000000000000000000000007bffffffffffffffffffffffffffffffffffffffffffffffffffffffff1916827bffffffffffffffffffffffffffffffffffffffffffffffffffffffff1916148061062c575061062b82611cdc565b5b9050919050565b61063b611d46565b6000806000807f000000000000000000000000000000000000000000000000000000000000000073ffffffffffffffffffffffffffffffffffffffff1663eb02c301866040518263ffffffff1660e01b815260040161069a91906126d8565b60e060405180830381865afa1580156106b7573d6000803e3d6000fd5b505050506040513d601f19601f820116820180604052508101906106db919061282f565b96509650509550505093503373ffffffffffffffffffffffffffffffffffffffff167f000000000000000000000000000000000000000000000000000000000000000073ffffffffffffffffffffffffffffffffffffffff16636352211e876040518263ffffffff1660e01b815260040161075691906126d8565b602060405180830381865afa158015610773573d6000803e3d6000fd5b505050506040513d601f19601f8201168201806040525081019061079791906128d1565b73ffffffffffffffffffffffffffffffffffffffff16146107ed576040517f08c379a00000000000000000000000000000000000000000000000000000000081526004016107e49061295b565b60405180910390fd5b600160038111156108015761080061297b565b5b8260038111156108145761081361297b565b5b1480610843575060038081111561082e5761082d61297b565b5b8260038111156108415761084061297b565b5b145b610882576040517f08c379a0000000000000000000000000000000000000000000000000000000008152600401610879906129f6565b60405180910390fd5b6006600086815260200190815260200160002060009054906101000a900460ff16156108e3576040517f08c379a00000000000000000000000000000000000000000000000000000000081526004016108da90612a62565b60405180910390fd5b82421015806108ef5750805b61092e576040517f08c379a000000000000000000000000000000000000000000000000000000000815260040161092590612ace565b60405180910390fd5b60006005600087815260200190815260200160002054905060008111610989576040517f08c379a000000000000000000000000000000000000000000000000000000000815260040161098090612b3a565b60405180910390fd5b60016006600088815260200190815260200160002060006101000a81548160ff0219169083151502179055508473ffffffffffffffffffffffffffffffffffffffff1663a9059cbb33836040518363ffffffff1660e01b81526004016109f0929190612b5a565b6020604051808303816000875af1158015610a0f573d6000803e3d6000fd5b505050506040513d601f19601f82011682018060405250810190610a339190612b83565b610a72576040517f08c379a0000000000000000000000000000000000000000000000000000000008152600401610a6990612bfc565b60405180910390fd5b3373ffffffffffffffffffffffffffffffffffffffff16867f4da7659c2a41189e8cab8706bf89d1b47a56eb32259d52f0deb61c68d213be7683604051610ab991906126d8565b60405180910390a35050505050610ace611d95565b50565b600060016000838152602001908152602001600020600101549050919050565b610afa82610ad1565b610b0381611d9f565b610b0d8383611db3565b505050565b610b1a611e93565b73ffffffffffffffffffffffffffffffffffffffff168173ffffffffffffffffffffffffffffffffffffffff1614610b87576040517f08c379a0000000000000000000000000000000000000000000000000000000008152600401610b7e90612c8e565b60405180910390fd5b610b918282611e9b565b5050565b6000610b9f611d46565b600142610bac9190612cdd565b8311610bed576040517f08c379a0000000000000000000000000000000000000000000000000000000008152600401610be490612d5d565b60405180910390fd5b6103e842610bfb9190612cdd565b831115610c3d576040517f08c379a0000000000000000000000000000000000000000000000000000000008152600401610c3490612dc9565b60405180910390fd5b60008511610c80576040517f08c379a0000000000000000000000000000000000000000000000000000000008152600401610c7790612e35565b60405180910390fd5b60007f000000000000000000000000000000000000000000000000000000000000000073ffffffffffffffffffffffffffffffffffffffff1663857a155b8787866040518463ffffffff1660e01b8152600401610cdf93929190612e9d565b602060405180830381865afa158015610cfc573d6000803e3d6000fd5b505050506040513d601f19601f82011682018060405250810190610d209190612ed4565b905060006003811115610d3657610d3561297b565b5b836003811115610d4957610d4861297b565b5b1480610d79575060026003811115610d6457610d6361297b565b5b836003811115610d7757610d7661297b565b5b145b15610e42578673ffffffffffffffffffffffffffffffffffffffff166323b872dd3330846040518463ffffffff1660e01b8152600401610dbb93929190612f01565b6020604051808303816000875af1158015610dda573d6000803e3d6000fd5b505050506040513d601f19601f82011682018060405250810190610dfe9190612b83565b610e3d576040517f08c379a0000000000000000000000000000000000000000000000000000000008152600401610e3490612bfc565b60405180910390fd5b611033565b60016003811115610e5657610e5561297b565b5b836003811115610e6957610e6861297b565b5b03610f32578673ffffffffffffffffffffffffffffffffffffffff166323b872dd3330896040518463ffffffff1660e01b8152600401610eab93929190612f01565b6020604051808303816000875af1158015610eca573d6000803e3d6000fd5b505050506040513d601f19601f82011682018060405250810190610eee9190612b83565b610f2d576040517f08c379a0000000000000000000000000000000000000000000000000000000008152600401610f2490612f84565b60405180910390fd5b611032565b6000610f6f612710610f61612ee0610f538a8c611f7d90919063ffffffff16565b611f7d90919063ffffffff16565b611f9390919063ffffffff16565b90508773ffffffffffffffffffffffffffffffffffffffff166323b872dd3330846040518463ffffffff1660e01b8152600401610fae93929190612f01565b6020604051808303816000875af1158015610fcd573d6000803e3d6000fd5b505050506040513d601f19601f82011682018060405250810190610ff19190612b83565b611030576040517f08c379a000000000000000000000000000000000000000000000000000000000815260040161102790612f84565b60405180910390fd5b505b5b60007f000000000000000000000000000000000000000000000000000000000000000073ffffffffffffffffffffffffffffffffffffffff1663e5964256338a60008a8a8d8b6040518863ffffffff1660e01b815260040161109b9796959493929190612fa4565b6020604051808303816000875af11580156110ba573d6000803e3d6000fd5b505050506040513d601f19601f820116820180604052508101906110de9190612ed4565b905081600560008381526020019081526020016000208190555060008890507fc96ef33ded7a92bffdf0829334f48b3dc49e4b77abb9430c8ab699590ea6f8a98233858b8b8b8b8860405161113a989796959493929190613013565b60405180910390a1819350505050611150611d95565b95945050505050565b60036020528060005260406000206000915090505481565b60066020528060005260406000206000915054906101000a900460ff1681565b600042905090565b6111a1611fa9565b6111ab6000612027565b565b60056020528060005260406000206000915090505481565b6111cd611fa9565b600073ffffffffffffffffffffffffffffffffffffffff168173ffffffffffffffffffffffffffffffffffffffff160361123c576040517f08c379a0000000000000000000000000000000000000000000000000000000008152600401611233906130dd565b60405180910390fd5b60008173ffffffffffffffffffffffffffffffffffffffff166370a08231306040518263ffffffff1660e01b8152600401611277919061272f565b602060405180830381865afa158015611294573d6000803e3d6000fd5b505050506040513d601f19601f820116820180604052508101906112b89190612ed4565b9050600081116112fd576040517f08c379a00000000000000000000000000000000000000000000000000000000081526004016112f490613149565b60405180910390fd5b60008273ffffffffffffffffffffffffffffffffffffffff1663a9059cbb61132361142c565b846040518363ffffffff1660e01b8152600401611341929190612b5a565b6020604051808303816000875af1158015611360573d6000803e3d6000fd5b505050506040513d601f19601f820116820180604052508101906113849190612b83565b9050806113c6576040517f08c379a00000000000000000000000000000000000000000000000000000000081526004016113bd906131b5565b60405180910390fd5b6113ce61142c565b73ffffffffffffffffffffffffffffffffffffffff168373ffffffffffffffffffffffffffffffffffffffff167faa785f34069ec178fd3d41eb09b40d8a87c47e1024a65a81c044a09a6a16bb7c60405160405180910390a3505050565b6000600260009054906101000a900473ffffffffffffffffffffffffffffffffffffffff16905090565b60006001600084815260200190815260200160002060000160008373ffffffffffffffffffffffffffffffffffffffff1673ffffffffffffffffffffffffffffffffffffffff16815260200190815260200160002060009054906101000a900460ff16905092915050565b6000801b81565b7f000000000000000000000000000000000000000000000000000000000000000081565b6114f4611d46565b6000806000806000807f000000000000000000000000000000000000000000000000000000000000000073ffffffffffffffffffffffffffffffffffffffff1663eb02c301886040518263ffffffff1660e01b815260040161155691906126d8565b60e060405180830381865afa158015611573573d6000803e3d6000fd5b505050506040513d601f19601f82011682018060405250810190611597919061282f565b9650965096509650965050955080156115e5576040517f08c379a00000000000000000000000000000000000000000000000000000000081526004016115dc90613221565b60405180910390fd5b83421015611628576040517f08c379a000000000000000000000000000000000000000000000000000000000815260040161161f9061328d565b60405180910390fd5b3373ffffffffffffffffffffffffffffffffffffffff167f000000000000000000000000000000000000000000000000000000000000000073ffffffffffffffffffffffffffffffffffffffff16636352211e896040518263ffffffff1660e01b815260040161169891906126d8565b602060405180830381865afa1580156116b5573d6000803e3d6000fd5b505050506040513d601f19601f820116820180604052508101906116d991906128d1565b73ffffffffffffffffffffffffffffffffffffffff161461172f576040517f08c379a00000000000000000000000000000000000000000000000000000000081526004016117269061295b565b60405180910390fd5b60008060038111156117445761174361297b565b5b8360038111156117575761175661297b565b5b036118385761176f8685611f7d90919063ffffffff16565b9050803410156117b4576040517f08c379a00000000000000000000000000000000000000000000000000000000081526004016117ab906132f9565b60405180910390fd5b8673ffffffffffffffffffffffffffffffffffffffff1663a9059cbb33866040518363ffffffff1660e01b81526004016117ef929190612b5a565b6020604051808303816000875af115801561180e573d6000803e3d6000fd5b505050506040513d601f19601f820116820180604052508101906118329190612b83565b50611981565b6002600381111561184c5761184b61297b565b5b83600381111561185f5761185e61297b565b5b03611980576118778685611f7d90919063ffffffff16565b90508673ffffffffffffffffffffffffffffffffffffffff166323b872dd3330876040518463ffffffff1660e01b81526004016118b693929190612f01565b6020604051808303816000875af11580156118d5573d6000803e3d6000fd5b505050506040513d601f19601f820116820180604052508101906118f99190612b83565b611938576040517f08c379a000000000000000000000000000000000000000000000000000000000815260040161192f906131b5565b60405180910390fd5b3373ffffffffffffffffffffffffffffffffffffffff166108fc829081150290604051600060405180830381858888f1935050505015801561197e573d6000803e3d6000fd5b505b5b7f000000000000000000000000000000000000000000000000000000000000000073ffffffffffffffffffffffffffffffffffffffff166374bf6990896040518263ffffffff1660e01b81526004016119da91906126d8565b600060405180830381600087803b1580156119f457600080fd5b505af1158015611a08573d6000803e3d6000fd5b505050503373ffffffffffffffffffffffffffffffffffffffff16887ff30bc0392499ea7de5e644b734d673788ca982c6bb852c80a7c8cd13b583927c8684604051611a55929190613319565b60405180910390a350505050505050611a6c611d95565b50565b6103e881565b600181565b611a8382610ad1565b611a8c81611d9f565b611a968383611e9b565b505050565b612ee081565b611aa9611fa9565b60008111611aec576040517f08c379a0000000000000000000000000000000000000000000000000000000008152600401611ae39061338e565b60405180910390fd5b600047905081811015611b34576040517f08c379a0000000000000000000000000000000000000000000000000000000008152600401611b2b90613149565b60405180910390fd5b6000611b3e61142c565b73ffffffffffffffffffffffffffffffffffffffff1683604051611b61906133df565b60006040518083038185875af1925050503d8060008114611b9e576040519150601f19603f3d011682016040523d82523d6000602084013e611ba3565b606091505b5050905080611be7576040517f08c379a0000000000000000000000000000000000000000000000000000000008152600401611bde90613440565b60405180910390fd5b611bef61142c565b73ffffffffffffffffffffffffffffffffffffffff167f6148672a948a12b8e0bf92a9338349b9ac890fad62a234abaf0a4da99f62cfcc84604051611c3491906126d8565b60405180910390a2505050565b611c49611fa9565b600073ffffffffffffffffffffffffffffffffffffffff168173ffffffffffffffffffffffffffffffffffffffff1603611cb8576040517f08c379a0000000000000000000000000000000000000000000000000000000008152600401611caf906134d2565b60405180910390fd5b611cc181612027565b50565b60046020528060005260406000206000915090505481565b60007f01ffc9a7000000000000000000000000000000000000000000000000000000007bffffffffffffffffffffffffffffffffffffffffffffffffffffffff1916827bffffffffffffffffffffffffffffffffffffffffffffffffffffffff1916149050919050565b600260005403611d8b576040517f08c379a0000000000000000000000000000000000000000000000000000000008152600401611d829061353e565b60405180910390fd5b6002600081905550565b6001600081905550565b611db081611dab611e93565b6120ed565b50565b611dbd8282611456565b611e8f57600180600084815260200190815260200160002060000160008373ffffffffffffffffffffffffffffffffffffffff1673ffffffffffffffffffffffffffffffffffffffff16815260200190815260200160002060006101000a81548160ff021916908315150217905550611e34611e93565b73ffffffffffffffffffffffffffffffffffffffff168173ffffffffffffffffffffffffffffffffffffffff16837f2f8788117e7eff1d82e926ec794901d17c78024a50270940304540a733656f0d60405160405180910390a45b5050565b600033905090565b611ea58282611456565b15611f795760006001600084815260200190815260200160002060000160008373ffffffffffffffffffffffffffffffffffffffff1673ffffffffffffffffffffffffffffffffffffffff16815260200190815260200160002060006101000a81548160ff021916908315150217905550611f1e611e93565b73ffffffffffffffffffffffffffffffffffffffff168173ffffffffffffffffffffffffffffffffffffffff16837ff6391f5c32d9c69d2a47ea670b442974b53935d1edc7fd64eb21e047a839171b60405160405180910390a45b5050565b60008183611f8b919061355e565b905092915050565b60008183611fa191906135cf565b905092915050565b611fb1611e93565b73ffffffffffffffffffffffffffffffffffffffff16611fcf61142c565b73ffffffffffffffffffffffffffffffffffffffff1614612025576040517f08c379a000000000000000000000000000000000000000000000000000000000815260040161201c9061364c565b60405180910390fd5b565b6000600260009054906101000a900473ffffffffffffffffffffffffffffffffffffffff16905081600260006101000a81548173ffffffffffffffffffffffffffffffffffffffff021916908373ffffffffffffffffffffffffffffffffffffffff1602179055508173ffffffffffffffffffffffffffffffffffffffff168173ffffffffffffffffffffffffffffffffffffffff167f8be0079c531659141344cd1fd0a4f28419497f9722a3daafe3b4186f6b6457e060405160405180910390a35050565b6120f78282611456565b61216e5761210481612172565b6121128360001c602061219f565b604051602001612123929190613775565b6040516020818303038152906040526040517f08c379a000000000000000000000000000000000000000000000000000000000815260040161216591906137f9565b60405180910390fd5b5050565b60606121988273ffffffffffffffffffffffffffffffffffffffff16601460ff1661219f565b9050919050565b6060600060028360026121b2919061355e565b6121bc9190612cdd565b67ffffffffffffffff8111156121d5576121d461381b565b5b6040519080825280601f01601f1916602001820160405280156122075781602001600182028036833780820191505090505b5090507f30000000000000000000000000000000000000000000000000000000000000008160008151811061223f5761223e61384a565b5b60200101907effffffffffffffffffffffffffffffffffffffffffffffffffffffffffffff1916908160001a9053507f7800000000000000000000000000000000000000000000000000000000000000816001815181106122a3576122a261384a565b5b60200101907effffffffffffffffffffffffffffffffffffffffffffffffffffffffffffff1916908160001a905350600060018460026122e3919061355e565b6122ed9190612cdd565b90505b600181111561238d577f3031323334353637383961626364656600000000000000000000000000000000600f86166010811061232f5761232e61384a565b5b1a60f81b8282815181106123465761234561384a565b5b60200101907effffffffffffffffffffffffffffffffffffffffffffffffffffffffffffff1916908160001a905350600485901c94508061238690613879565b90506122f0565b50600084146123d1576040517f08c379a00000000000000000000000000000000000000000000000000000000081526004016123c8906138ee565b60405180910390fd5b8091505092915050565b600080fd5b60007fffffffff0000000000000000000000000000000000000000000000000000000082169050919050565b612415816123e0565b811461242057600080fd5b50565b6000813590506124328161240c565b92915050565b60006020828403121561244e5761244d6123db565b5b600061245c84828501612423565b91505092915050565b60008115159050919050565b61247a81612465565b82525050565b60006020820190506124956000830184612471565b92915050565b6000819050919050565b6124ae8161249b565b81146124b957600080fd5b50565b6000813590506124cb816124a5565b92915050565b6000602082840312156124e7576124e66123db565b5b60006124f5848285016124bc565b91505092915050565b6000819050919050565b612511816124fe565b811461251c57600080fd5b50565b60008135905061252e81612508565b92915050565b60006020828403121561254a576125496123db565b5b60006125588482850161251f565b91505092915050565b61256a816124fe565b82525050565b60006020820190506125856000830184612561565b92915050565b600073ffffffffffffffffffffffffffffffffffffffff82169050919050565b60006125b68261258b565b9050919050565b6125c6816125ab565b81146125d157600080fd5b50565b6000813590506125e3816125bd565b92915050565b60008060408385031215612600576125ff6123db565b5b600061260e8582860161251f565b925050602061261f858286016125d4565b9150509250929050565b6004811061263657600080fd5b50565b60008135905061264881612629565b92915050565b600080600080600060a0868803121561266a576126696123db565b5b6000612678888289016125d4565b9550506020612689888289016124bc565b945050604061269a888289016124bc565b93505060606126ab888289016124bc565b92505060806126bc88828901612639565b9150509295509295909350565b6126d28161249b565b82525050565b60006020820190506126ed60008301846126c9565b92915050565b600060208284031215612709576127086123db565b5b6000612717848285016125d4565b91505092915050565b612729816125ab565b82525050565b60006020820190506127446000830184612720565b92915050565b6000819050919050565b600061276f61276a6127658461258b565b61274a565b61258b565b9050919050565b600061278182612754565b9050919050565b600061279382612776565b9050919050565b6127a381612788565b82525050565b60006020820190506127be600083018461279a565b92915050565b6000815190506127d3816125bd565b92915050565b6000815190506127e8816124a5565b92915050565b6000815190506127fd81612629565b92915050565b61280c81612465565b811461281757600080fd5b50565b60008151905061282981612803565b92915050565b600080600080600080600060e0888a03121561284e5761284d6123db565b5b600061285c8a828b016127c4565b975050602061286d8a828b016127c4565b965050604061287e8a828b016127d9565b955050606061288f8a828b016127d9565b94505060806128a08a828b016127d9565b93505060a06128b18a828b016127ee565b92505060c06128c28a828b0161281a565b91505092959891949750929550565b6000602082840312156128e7576128e66123db565b5b60006128f5848285016127c4565b91505092915050565b600082825260208201905092915050565b7f4e6f7420706f736974696f6e206f776e65720000000000000000000000000000600082015250565b60006129456012836128fe565b91506129508261290f565b602082019050919050565b6000602082019050818103600083015261297481612938565b9050919050565b7f4e487b7100000000000000000000000000000000000000000000000000000000600052602160045260246000fd5b7f4e6f7420612077726974657220706f736974696f6e0000000000000000000000600082015250565b60006129e06015836128fe565b91506129eb826129aa565b602082019050919050565b60006020820190508181036000830152612a0f816129d3565b9050919050565b7f5072656d69756d20616c72656164792077697468647261776e00000000000000600082015250565b6000612a4c6019836128fe565b9150612a5782612a16565b602082019050919050565b60006020820190508181036000830152612a7b81612a3f565b9050919050565b7f506f736974696f6e207374696c6c206163746976650000000000000000000000600082015250565b6000612ab86015836128fe565b9150612ac382612a82565b602082019050919050565b60006020820190508181036000830152612ae781612aab565b9050919050565b7f4e6f207072656d69756d20746f20776974686472617700000000000000000000600082015250565b6000612b246016836128fe565b9150612b2f82612aee565b602082019050919050565b60006020820190508181036000830152612b5381612b17565b9050919050565b6000604082019050612b6f6000830185612720565b612b7c60208301846126c9565b9392505050565b600060208284031215612b9957612b986123db565b5b6000612ba78482850161281a565b91505092915050565b7f5072656d69756d207472616e73666572206661696c6564000000000000000000600082015250565b6000612be66017836128fe565b9150612bf182612bb0565b602082019050919050565b60006020820190508181036000830152612c1581612bd9565b9050919050565b7f416363657373436f6e74726f6c3a2063616e206f6e6c792072656e6f756e636560008201527f20726f6c657320666f722073656c660000000000000000000000000000000000602082015250565b6000612c78602f836128fe565b9150612c8382612c1c565b604082019050919050565b60006020820190508181036000830152612ca781612c6b565b9050919050565b7f4e487b7100000000000000000000000000000000000000000000000000000000600052601160045260246000fd5b6000612ce88261249b565b9150612cf38361249b565b9250828201905080821115612d0b57612d0a612cae565b5b92915050565b7f45787069727920746f6f20736f6f6e0000000000000000000000000000000000600082015250565b6000612d47600f836128fe565b9150612d5282612d11565b602082019050919050565b60006020820190508181036000830152612d7681612d3a565b9050919050565b7f45787069727920746f6f20666172000000000000000000000000000000000000600082015250565b6000612db3600e836128fe565b9150612dbe82612d7d565b602082019050919050565b60006020820190508181036000830152612de281612da6565b9050919050565b7f496e76616c696420616d6f756e74000000000000000000000000000000000000600082015250565b6000612e1f600e836128fe565b9150612e2a82612de9565b602082019050919050565b60006020820190508181036000830152612e4e81612e12565b9050919050565b60048110612e6657612e6561297b565b5b50565b6000819050612e7782612e55565b919050565b6000612e8782612e69565b9050919050565b612e9781612e7c565b82525050565b6000606082019050612eb260008301866126c9565b612ebf60208301856126c9565b612ecc6040830184612e8e565b949350505050565b600060208284031215612eea57612ee96123db565b5b6000612ef8848285016127d9565b91505092915050565b6000606082019050612f166000830186612720565b612f236020830185612720565b612f3060408301846126c9565b949350505050565b7f436f6c6c61746572616c207472616e73666572206661696c6564000000000000600082015250565b6000612f6e601a836128fe565b9150612f7982612f38565b602082019050919050565b60006020820190508181036000830152612f9d81612f61565b9050919050565b600060e082019050612fb9600083018a612720565b612fc66020830189612720565b612fd36040830188612720565b612fe060608301876126c9565b612fed60808301866126c9565b612ffa60a08301856126c9565b61300760c0830184612e8e565b98975050505050505050565b600061010082019050613029600083018b6126c9565b613036602083018a612720565b61304360408301896126c9565b61305060608301886126c9565b61305d60808301876126c9565b61306a60a08301866126c9565b61307760c0830185612e8e565b61308460e0830184612720565b9998505050505050505050565b7f496e76616c696420746f6b656e20616464726573730000000000000000000000600082015250565b60006130c76015836128fe565b91506130d282613091565b602082019050919050565b600060208201905081810360008301526130f6816130ba565b9050919050565b7f496e73756666696369656e742062616c616e6365000000000000000000000000600082015250565b60006131336014836128fe565b915061313e826130fd565b602082019050919050565b6000602082019050818103600083015261316281613126565b9050919050565b7f5472616e73666572206661696c65640000000000000000000000000000000000600082015250565b600061319f600f836128fe565b91506131aa82613169565b602082019050919050565b600060208201905081810360008301526131ce81613192565b9050919050565b7f506f736974696f6e20616c726561647920736574746c65640000000000000000600082015250565b600061320b6018836128fe565b9150613216826131d5565b602082019050919050565b6000602082019050818103600083015261323a816131fe565b9050919050565b7f4e6f742079657420657870697265640000000000000000000000000000000000600082015250565b6000613277600f836128fe565b915061328282613241565b602082019050919050565b600060208201905081810360008301526132a68161326a565b9050919050565b7f496e73756666696369656e74207061796d656e74000000000000000000000000600082015250565b60006132e36014836128fe565b91506132ee826132ad565b602082019050919050565b60006020820190508181036000830152613312816132d6565b9050919050565b600060408201905061332e60008301856126c9565b61333b60208301846126c9565b9392505050565b7f416d6f756e74206d7573742062652067726561746572207468616e2030000000600082015250565b6000613378601d836128fe565b915061338382613342565b602082019050919050565b600060208201905081810360008301526133a78161336b565b9050919050565b600081905092915050565b50565b60006133c96000836133ae565b91506133d4826133b9565b600082019050919050565b60006133ea826133bc565b9150819050919050565b7f455448207472616e73666572206661696c656400000000000000000000000000600082015250565b600061342a6013836128fe565b9150613435826133f4565b602082019050919050565b600060208201905081810360008301526134598161341d565b9050919050565b7f4f776e61626c653a206e6577206f776e657220697320746865207a65726f206160008201527f6464726573730000000000000000000000000000000000000000000000000000602082015250565b60006134bc6026836128fe565b91506134c782613460565b604082019050919050565b600060208201905081810360008301526134eb816134af565b9050919050565b7f5265656e7472616e637947756172643a207265656e7472616e742063616c6c00600082015250565b6000613528601f836128fe565b9150613533826134f2565b602082019050919050565b600060208201905081810360008301526135578161351b565b9050919050565b60006135698261249b565b91506135748361249b565b92508282026135828161249b565b9150828204841483151761359957613598612cae565b5b5092915050565b7f4e487b7100000000000000000000000000000000000000000000000000000000600052601260045260246000fd5b60006135da8261249b565b91506135e58361249b565b9250826135f5576135f46135a0565b5b828204905092915050565b7f4f776e61626c653a2063616c6c6572206973206e6f7420746865206f776e6572600082015250565b60006136366020836128fe565b915061364182613600565b602082019050919050565b6000602082019050818103600083015261366581613629565b9050919050565b600081905092915050565b7f416363657373436f6e74726f6c3a206163636f756e7420000000000000000000600082015250565b60006136ad60178361366c565b91506136b882613677565b601782019050919050565b600081519050919050565b60005b838110156136ec5780820151818401526020810190506136d1565b60008484015250505050565b6000613703826136c3565b61370d818561366c565b935061371d8185602086016136ce565b80840191505092915050565b7f206973206d697373696e6720726f6c6520000000000000000000000000000000600082015250565b600061375f60118361366c565b915061376a82613729565b601182019050919050565b6000613780826136a0565b915061378c82856136f8565b915061379782613752565b91506137a382846136f8565b91508190509392505050565b6000601f19601f8301169050919050565b60006137cb826136c3565b6137d581856128fe565b93506137e58185602086016136ce565b6137ee816137af565b840191505092915050565b6000602082019050818103600083015261381381846137c0565b905092915050565b7f4e487b7100000000000000000000000000000000000000000000000000000000600052604160045260246000fd5b7f4e487b7100000000000000000000000000000000000000000000000000000000600052603260045260246000fd5b60006138848261249b565b91506000820361389757613896612cae565b5b600182039050919050565b7f537472696e67733a20686578206c656e67746820696e73756666696369656e74600082015250565b60006138d86020836128fe565b91506138e3826138a2565b602082019050919050565b60006020820190508181036000830152613907816138cb565b905091905056fea264697066735822122077520d6b1fe00fe638a62e5c6f372dc042d732b13803145902c6ac56c211537d64736f6c634300081c0033",
  "linkReferences": {},
  "deployedLinkReferences": {}
}