{
  "_format": "hh-sol-artifact-1",
  "contractName": "OptionsEngine",
  "sourceName": "contracts/OptionEngine.sol",
  "abi": [
    {
      "inputs": [
        {
          "internalType": "address",
          "name": "_optionPosition",
          "type": "address"
        }
      ],
      "stateMutability": "nonpayable",
      "type": "constructor"
    },
    {
      "anonymous": false,
      "inputs": [
        {
          "indexed": false,
          "internalType": "uint256",
          "name": "amount",
          "type": "uint256"
        },
        {
          "indexed": true,
          "internalType": "address",
          "name": "to",
          "type": "address"
        }
      ],
      "name": "ETHWithdrawn",
      "type": "event"
    },
    {
      "anonymous": false,
      "inputs": [
        {
          "indexed": true,
          "internalType": "address",
          "name": "previousOwner",
          "type": "address"
        },
        {
          "indexed": true,
          "internalType": "address",
          "name": "newOwner",
          "type": "address"
        }
      ],
      "name": "OwnershipTransferred",
      "type": "event"
    },
    {
      "anonymous": false,
      "inputs": [
        {
          "indexed": true,
          "internalType": "uint256",
          "name": "tokenId",
          "type": "uint256"
        },
        {
          "indexed": true,
          "internalType": "address",
          "name": "trader",
          "type": "address"
        },
        {
          "indexed": false,
          "internalType": "uint256",
          "name": "amount",
          "type": "uint256"
        },
        {
          "indexed": false,
          "internalType": "uint256",
          "name": "settlementAmount",
          "type": "uint256"
        }
      ],
      "name": "PositionExercised",
      "type": "event"
    },
    {
      "anonymous": false,
      "inputs": [
        {
          "indexed": false,
          "internalType": "uint256",
          "name": "tokenId",
          "type": "uint256"
        },
        {
          "indexed": false,
          "internalType": "address",
          "name": "trader",
          "type": "address"
        },
        {
          "indexed": false,
          "internalType": "uint256",
          "name": "premium",
          "type": "uint256"
        },
        {
          "indexed": false,
          "internalType": "uint256",
          "name": "collateral",
          "type": "uint256"
        },
        {
          "indexed": false,
          "internalType": "uint256",
          "name": "strikePrice",
          "type": "uint256"
        },
        {
          "indexed": false,
          "internalType": "uint256",
          "name": "expiry",
          "type": "uint256"
        },
        {
          "indexed": false,
          "internalType": "enum OptionPosition.PositionType",
          "name": "positionType",
          "type": "uint8"
        },
        {
          "indexed": false,
          "internalType": "address",
          "name": "underlying",
          "type": "address"
        },
        {
          "indexed": false,
          "internalType": "bool",
          "name": "isSettled",
          "type": "bool"
        },
        {
          "indexed": false,
          "internalType": "uint256",
          "name": "walletType",
          "type": "uint256"
        }
      ],
      "name": "PositionOpened",
      "type": "event"
    },
    {
      "anonymous": false,
      "inputs": [
        {
          "indexed": true,
          "internalType": "uint256",
          "name": "tokenId",
          "type": "uint256"
        },
        {
          "indexed": true,
          "internalType": "address",
          "name": "writer",
          "type": "address"
        },
        {
          "indexed": false,
          "internalType": "uint256",
          "name": "amount",
          "type": "uint256"
        }
      ],
      "name": "PremiumWithdrawn",
      "type": "event"
    },
    {
      "anonymous": false,
      "inputs": [
        {
          "indexed": true,
          "internalType": "bytes32",
          "name": "role",
          "type": "bytes32"
        },
        {
          "indexed": true,
          "internalType": "bytes32",
          "name": "previousAdminRole",
          "type": "bytes32"
        },
        {
          "indexed": true,
          "internalType": "bytes32",
          "name": "newAdminRole",
          "type": "bytes32"
        }
      ],
      "name": "RoleAdminChanged",
      "type": "event"
    },
    {
      "anonymous": false,
      "inputs": [
        {
          "indexed": true,
          "internalType": "bytes32",
          "name": "role",
          "type": "bytes32"
        },
        {
          "indexed": true,
          "internalType": "address",
          "name": "account",
          "type": "address"
        },
        {
          "indexed": true,
          "internalType": "address",
          "name": "sender",
          "type": "address"
        }
      ],
      "name": "RoleGranted",
      "type": "event"
    },
    {
      "anonymous": false,
      "inputs": [
        {
          "indexed": true,
          "internalType": "bytes32",
          "name": "role",
          "type": "bytes32"
        },
        {
          "indexed": true,
          "internalType": "address",
          "name": "account",
          "type": "address"
        },
        {
          "indexed": true,
          "internalType": "address",
          "name": "sender",
          "type": "address"
        }
      ],
      "name": "RoleRevoked",
      "type": "event"
    },
    {
      "anonymous": false,
      "inputs": [
        {
          "indexed": true,
          "internalType": "address",
          "name": "token",
          "type": "address"
        },
        {
          "indexed": true,
          "internalType": "address",
          "name": "to",
          "type": "address"
        }
      ],
      "name": "TokenWithdrawn",
      "type": "event"
    },
    {
      "stateMutability": "payable",
      "type": "fallback"
    },
    {
      "inputs": [],
      "name": "COLLATERAL_RATIO",
      "outputs": [
        {
          "internalType": "uint256",
          "name": "",
          "type": "uint256"
        }
      ],
      "stateMutability": "view",
      "type": "function"
    },
    {
      "inputs": [],
      "name": "DEFAULT_ADMIN_ROLE",
      "outputs": [
        {
          "internalType": "bytes32",
          "name": "",
          "type": "bytes32"
        }
      ],
      "stateMutability": "view",
      "type": "function"
    },
    {
      "inputs": [],
      "name": "MAX_DURATION",
      "outputs": [
        {
          "internalType": "uint256",
          "name": "",
          "type": "uint256"
        }
      ],
      "stateMutability": "view",
      "type": "function"
    },
    {
      "inputs": [],
      "name": "MIN_DURATION",
      "outputs": [
        {
          "internalType": "uint256",
          "name": "",
          "type": "uint256"
        }
      ],
      "stateMutability": "view",
      "type": "function"
    },
    {
      "inputs": [
        {
          "internalType": "uint256",
          "name": "tokenId",
          "type": "uint256"
        }
      ],
      "name": "exercise",
      "outputs": [],
      "stateMutability": "payable",
      "type": "function"
    },
    {
      "inputs": [],
      "name": "getCurrentTimestamp",
      "outputs": [
        {
          "internalType": "uint256",
          "name": "",
          "type": "uint256"
        }
      ],
      "stateMutability": "view",
      "type": "function"
    },
    {
      "inputs": [
        {
          "internalType": "bytes32",
          "name": "role",
          "type": "bytes32"
        }
      ],
      "name": "getRoleAdmin",
      "outputs": [
        {
          "internalType": "bytes32",
          "name": "",
          "type": "bytes32"
        }
      ],
      "stateMutability": "view",
      "type": "function"
    },
    {
      "inputs": [
        {
          "internalType": "bytes32",
          "name": "role",
          "type": "bytes32"
        },
        {
          "internalType": "address",
          "name": "account",
          "type": "address"
        }
      ],
      "name": "grantRole",
      "outputs": [],
      "stateMutability": "nonpayable",
      "type": "function"
    },
    {
      "inputs": [
        {
          "internalType": "bytes32",
          "name": "role",
          "type": "bytes32"
        },
        {
          "internalType": "address",
          "name": "account",
          "type": "address"
        }
      ],
      "name": "hasRole",
      "outputs": [
        {
          "internalType": "bool",
          "name": "",
          "type": "bool"
        }
      ],
      "stateMutability": "view",
      "type": "function"
    },
    {
      "inputs": [
        {
          "internalType": "uint256",
          "name": "",
          "type": "uint256"
        }
      ],
      "name": "lockedCollateral",
      "outputs": [
        {
          "internalType": "uint256",
          "name": "",
          "type": "uint256"
        }
      ],
      "stateMutability": "view",
      "type": "function"
    },
    {
      "inputs": [
        {
          "internalType": "address",
          "name": "underlying",
          "type": "address"
        },
        {
          "internalType": "uint256",
          "name": "amount",
          "type": "uint256"
        },
        {
          "internalType": "uint256",
          "name": "strikePrice",
          "type": "uint256"
        },
        {
          "internalType": "uint256",
          "name": "expiry",
          "type": "uint256"
        },
        {
          "internalType": "enum OptionPosition.PositionType",
          "name": "positionType",
          "type": "uint8"
        },
        {
          "internalType": "uint256",
          "name": "premium",
          "type": "uint256"
        },
        {
          "internalType": "uint256",
          "name": "walletType",
          "type": "uint256"
        }
      ],
      "name": "openPosition",
      "outputs": [
        {
          "internalType": "uint256",
          "name": "",
          "type": "uint256"
        }
      ],
      "stateMutability": "nonpayable",
      "type": "function"
    },
    {
      "inputs": [],
      "name": "optionPosition",
      "outputs": [
        {
          "internalType": "contract OptionPosition",
          "name": "",
          "type": "address"
        }
      ],
      "stateMutability": "view",
      "type": "function"
    },
    {
      "inputs": [],
      "name": "owner",
      "outputs": [
        {
          "internalType": "address",
          "name": "",
          "type": "address"
        }
      ],
      "stateMutability": "view",
      "type": "function"
    },
    {
      "inputs": [
        {
          "internalType": "uint256",
          "name": "",
          "type": "uint256"
        }
      ],
      "name": "premiumForPosition",
      "outputs": [
        {
          "internalType": "uint256",
          "name": "",
          "type": "uint256"
        }
      ],
      "stateMutability": "view",
      "type": "function"
    },
    {
      "inputs": [
        {
          "internalType": "uint256",
          "name": "",
          "type": "uint256"
        }
      ],
      "name": "premiumWithdrawn",
      "outputs": [
        {
          "internalType": "bool",
          "name": "",
          "type": "bool"
        }
      ],
      "stateMutability": "view",
      "type": "function"
    },
    {
      "inputs": [],
      "name": "renounceOwnership",
      "outputs": [],
      "stateMutability": "nonpayable",
      "type": "function"
    },
    {
      "inputs": [
        {
          "internalType": "bytes32",
          "name": "role",
          "type": "bytes32"
        },
        {
          "internalType": "address",
          "name": "account",
          "type": "address"
        }
      ],
      "name": "renounceRole",
      "outputs": [],
      "stateMutability": "nonpayable",
      "type": "function"
    },
    {
      "inputs": [
        {
          "internalType": "bytes32",
          "name": "role",
          "type": "bytes32"
        },
        {
          "internalType": "address",
          "name": "account",
          "type": "address"
        }
      ],
      "name": "revokeRole",
      "outputs": [],
      "stateMutability": "nonpayable",
      "type": "function"
    },
    {
      "inputs": [
        {
          "internalType": "bytes4",
          "name": "interfaceId",
          "type": "bytes4"
        }
      ],
      "name": "supportsInterface",
      "outputs": [
        {
          "internalType": "bool",
          "name": "",
          "type": "bool"
        }
      ],
      "stateMutability": "view",
      "type": "function"
    },
    {
      "inputs": [
        {
          "internalType": "address",
          "name": "newOwner",
          "type": "address"
        }
      ],
      "name": "transferOwnership",
      "outputs": [],
      "stateMutability": "nonpayable",
      "type": "function"
    },
    {
      "inputs": [
        {
          "internalType": "address",
          "name": "",
          "type": "address"
        }
      ],
      "name": "userCollateral",
      "outputs": [
        {
          "internalType": "uint256",
          "name": "",
          "type": "uint256"
        }
      ],
      "stateMutability": "view",
      "type": "function"
    },
    {
      "inputs": [
        {
          "internalType": "uint256",
          "name": "amount",
          "type": "uint256"
        }
      ],
      "name": "withdrawETH",
      "outputs": [],
      "stateMutability": "nonpayable",
      "type": "function"
    },
    {
      "inputs": [
        {
          "internalType": "uint256",
          "name": "tokenId",
          "type": "uint256"
        }
      ],
      "name": "withdrawPremium",
      "outputs": [],
      "stateMutability": "nonpayable",
      "type": "function"
    },
    {
      "inputs": [
        {
          "internalType": "address",
          "name": "token",
          "type": "address"
        }
      ],
      "name": "withdrawToken",
      "outputs": [],
      "stateMutability": "nonpayable",
      "type": "function"
    },
    {
      "stateMutability": "payable",
      "type": "receive"
    }
  ],
  "bytecode": "0x60a060405234801561001057600080fd5b50604051613b4f380380613b4f8339818101604052810190610032919061032b565b600160008190555061005661004b6100a360201b60201c565b6100ab60201b60201c565b8073ffffffffffffffffffffffffffffffffffffffff1660808173ffffffffffffffffffffffffffffffffffffffff168152505061009d6000801b3361017160201b60201c565b50610358565b600033905090565b6000600260009054906101000a900473ffffffffffffffffffffffffffffffffffffffff16905081600260006101000a81548173ffffffffffffffffffffffffffffffffffffffff021916908373ffffffffffffffffffffffffffffffffffffffff1602179055508173ffffffffffffffffffffffffffffffffffffffff168173ffffffffffffffffffffffffffffffffffffffff167f8be0079c531659141344cd1fd0a4f28419497f9722a3daafe3b4186f6b6457e060405160405180910390a35050565b610181828261025d60201b60201c565b61025957600180600084815260200190815260200160002060000160008373ffffffffffffffffffffffffffffffffffffffff1673ffffffffffffffffffffffffffffffffffffffff16815260200190815260200160002060006101000a81548160ff0219169083151502179055506101fe6100a360201b60201c565b73ffffffffffffffffffffffffffffffffffffffff168173ffffffffffffffffffffffffffffffffffffffff16837f2f8788117e7eff1d82e926ec794901d17c78024a50270940304540a733656f0d60405160405180910390a45b5050565b60006001600084815260200190815260200160002060000160008373ffffffffffffffffffffffffffffffffffffffff1673ffffffffffffffffffffffffffffffffffffffff16815260200190815260200160002060009054906101000a900460ff16905092915050565b600080fd5b600073ffffffffffffffffffffffffffffffffffffffff82169050919050565b60006102f8826102cd565b9050919050565b610308816102ed565b811461031357600080fd5b50565b600081519050610325816102ff565b92915050565b600060208284031215610341576103406102c8565b5b600061034f84828501610316565b91505092915050565b6080516137b261039d60003960008181610a3301528181610b6a01528181610c2501528181611396015281816113cb0152818161150d015261184f01526137b26000f3fe60806040526004361061014f5760003560e01c80638da5cb5b116100b6578063b6a6d1771161006f578063b6a6d177146104ab578063d547741f146104d6578063d9e69a05146104ff578063f14210a61461052a578063f2fde38b14610553578063f69f1e4a1461057c57610150565b80638da5cb5b146103a657806391d14854146103d1578063a217fddf1461040e578063a87c03c014610439578063b07f0a4114610464578063b1724b461461048057610150565b80633e48f6f8116101085780633e48f6f814610284578063619de09e146102c15780636c9230db146102fe578063715018a61461032957806382e8573c14610340578063894760691461037d57610150565b806301ffc9a7146101525780631014de651461018f5780631f01664a146101cc578063248a9ca3146101f55780632f2ff15d1461023257806336568abe1461025b57610150565b5b005b34801561015e57600080fd5b5061017960048036038101906101749190612304565b6105b9565b604051610186919061234c565b60405180910390f35b34801561019b57600080fd5b506101b660048036038101906101b19190612420565b610633565b6040516101c391906124d1565b60405180910390f35b3480156101d857600080fd5b506101f360048036038101906101ee91906124ec565b610b5b565b005b34801561020157600080fd5b5061021c6004803603810190610217919061254f565b610f61565b604051610229919061258b565b60405180910390f35b34801561023e57600080fd5b50610259600480360381019061025491906125a6565b610f81565b005b34801561026757600080fd5b50610282600480360381019061027d91906125a6565b610fa2565b005b34801561029057600080fd5b506102ab60048036038101906102a691906124ec565b611025565b6040516102b891906124d1565b60405180910390f35b3480156102cd57600080fd5b506102e860048036038101906102e391906124ec565b61103d565b6040516102f5919061234c565b60405180910390f35b34801561030a57600080fd5b5061031361105d565b60405161032091906124d1565b60405180910390f35b34801561033557600080fd5b5061033e611065565b005b34801561034c57600080fd5b50610367600480360381019061036291906124ec565b611079565b60405161037491906124d1565b60405180910390f35b34801561038957600080fd5b506103a4600480360381019061039f91906125e6565b611091565b005b3480156103b257600080fd5b506103bb6112f8565b6040516103c89190612622565b60405180910390f35b3480156103dd57600080fd5b506103f860048036038101906103f391906125a6565b611322565b604051610405919061234c565b60405180910390f35b34801561041a57600080fd5b5061042361138d565b604051610430919061258b565b60405180910390f35b34801561044557600080fd5b5061044e611394565b60405161045b919061269c565b60405180910390f35b61047e600480360381019061047991906124ec565b6113b8565b005b34801561048c57600080fd5b5061049561193b565b6040516104a291906124d1565b60405180910390f35b3480156104b757600080fd5b506104c0611941565b6040516104cd91906124d1565b60405180910390f35b3480156104e257600080fd5b506104fd60048036038101906104f891906125a6565b611946565b005b34801561050b57600080fd5b50610514611967565b60405161052191906124d1565b60405180910390f35b34801561053657600080fd5b50610551600480360381019061054c91906124ec565b61196d565b005b34801561055f57600080fd5b5061057a600480360381019061057591906125e6565b611b0d565b005b34801561058857600080fd5b506105a3600480360381019061059e91906125e6565b611b90565b6040516105b091906124d1565b60405180910390f35b60007f7965db0b000000000000000000000000000000000000000000000000000000007bffffffffffffffffffffffffffffffffffffffffffffffffffffffff1916827bffffffffffffffffffffffffffffffffffffffffffffffffffffffff1916148061062c575061062b82611ba8565b5b9050919050565b600061063d611c12565b60014261064a91906126e6565b851161068b576040517f08c379a000000000000000000000000000000000000000000000000000000000815260040161068290612777565b60405180910390fd5b6103e84261069991906126e6565b8511156106db576040517f08c379a00000000000000000000000000000000000000000000000000000000081526004016106d2906127e3565b60405180910390fd5b6000871161071e576040517f08c379a00000000000000000000000000000000000000000000000000000000081526004016107159061284f565b60405180910390fd5b600060038111156107325761073161286f565b5b8460038111156107455761074461286f565b5b14806107755750600260038111156107605761075f61286f565b5b8460038111156107735761077261286f565b5b145b1561083e578773ffffffffffffffffffffffffffffffffffffffff166323b872dd3330866040518463ffffffff1660e01b81526004016107b79392919061289e565b6020604051808303816000875af11580156107d6573d6000803e3d6000fd5b505050506040513d601f19601f820116820180604052508101906107fa9190612901565b610839576040517f08c379a00000000000000000000000000000000000000000000000000000000081526004016108309061297a565b60405180910390fd5b610a2f565b600160038111156108525761085161286f565b5b8460038111156108655761086461286f565b5b0361092e578773ffffffffffffffffffffffffffffffffffffffff166323b872dd33308a6040518463ffffffff1660e01b81526004016108a79392919061289e565b6020604051808303816000875af11580156108c6573d6000803e3d6000fd5b505050506040513d601f19601f820116820180604052508101906108ea9190612901565b610929576040517f08c379a0000000000000000000000000000000000000000000000000000000008152600401610920906129e6565b60405180910390fd5b610a2e565b600061096b61271061095d612ee061094f8b8d611c6190919063ffffffff16565b611c6190919063ffffffff16565b611c7790919063ffffffff16565b90508873ffffffffffffffffffffffffffffffffffffffff166323b872dd3330846040518463ffffffff1660e01b81526004016109aa9392919061289e565b6020604051808303816000875af11580156109c9573d6000803e3d6000fd5b505050506040513d601f19601f820116820180604052508101906109ed9190612901565b610a2c576040517f08c379a0000000000000000000000000000000000000000000000000000000008152600401610a23906129e6565b60405180910390fd5b505b5b60007f000000000000000000000000000000000000000000000000000000000000000073ffffffffffffffffffffffffffffffffffffffff1663e5964256338b60008b8b8e8c6040518863ffffffff1660e01b8152600401610a979796959493929190612a4e565b6020604051808303816000875af1158015610ab6573d6000803e3d6000fd5b505050506040513d601f19601f82011682018060405250810190610ada9190612ad2565b905083600560008381526020019081526020016000208190555060008990507f509dfa99030457b5dafe28aaf121364a088fd3628c84b07346e6a8ec02f553548233878c8c8c8c8860008d604051610b3b9a99989796959493929190612aff565b60405180910390a18192505050610b50611c8d565b979650505050505050565b610b63611c12565b60008060007f000000000000000000000000000000000000000000000000000000000000000073ffffffffffffffffffffffffffffffffffffffff1663eb02c301856040518263ffffffff1660e01b8152600401610bc191906124d1565b60e060405180830381865afa158015610bde573d6000803e3d6000fd5b505050506040513d601f19601f82011682018060405250810190610c029190612bc5565b965050509450505092503373ffffffffffffffffffffffffffffffffffffffff167f000000000000000000000000000000000000000000000000000000000000000073ffffffffffffffffffffffffffffffffffffffff16636352211e866040518263ffffffff1660e01b8152600401610c7c91906124d1565b602060405180830381865afa158015610c99573d6000803e3d6000fd5b505050506040513d601f19601f82011682018060405250810190610cbd9190612c67565b73ffffffffffffffffffffffffffffffffffffffff1614610d13576040517f08c379a0000000000000000000000000000000000000000000000000000000008152600401610d0a90612ce0565b60405180910390fd5b6006600085815260200190815260200160002060009054906101000a900460ff1615610d74576040517f08c379a0000000000000000000000000000000000000000000000000000000008152600401610d6b90612d4c565b60405180910390fd5b8142101580610d805750805b610dbf576040517f08c379a0000000000000000000000000000000000000000000000000000000008152600401610db690612db8565b60405180910390fd5b60006005600086815260200190815260200160002054905060008111610e1a576040517f08c379a0000000000000000000000000000000000000000000000000000000008152600401610e1190612e24565b60405180910390fd5b60016006600087815260200190815260200160002060006101000a81548160ff0219169083151502179055508373ffffffffffffffffffffffffffffffffffffffff1663a9059cbb33836040518363ffffffff1660e01b8152600401610e81929190612e44565b6020604051808303816000875af1158015610ea0573d6000803e3d6000fd5b505050506040513d601f19601f82011682018060405250810190610ec49190612901565b610f03576040517f08c379a0000000000000000000000000000000000000000000000000000000008152600401610efa9061297a565b60405180910390fd5b3373ffffffffffffffffffffffffffffffffffffffff16857f4da7659c2a41189e8cab8706bf89d1b47a56eb32259d52f0deb61c68d213be7683604051610f4a91906124d1565b60405180910390a350505050610f5e611c8d565b50565b600060016000838152602001908152602001600020600101549050919050565b610f8a82610f61565b610f9381611c97565b610f9d8383611cab565b505050565b610faa611d8b565b73ffffffffffffffffffffffffffffffffffffffff168173ffffffffffffffffffffffffffffffffffffffff1614611017576040517f08c379a000000000000000000000000000000000000000000000000000000000815260040161100e90612edf565b60405180910390fd5b6110218282611d93565b5050565b60036020528060005260406000206000915090505481565b60066020528060005260406000206000915054906101000a900460ff1681565b600042905090565b61106d611e75565b6110776000611ef3565b565b60056020528060005260406000206000915090505481565b611099611e75565b600073ffffffffffffffffffffffffffffffffffffffff168173ffffffffffffffffffffffffffffffffffffffff1603611108576040517f08c379a00000000000000000000000000000000000000000000000000000000081526004016110ff90612f4b565b60405180910390fd5b60008173ffffffffffffffffffffffffffffffffffffffff166370a08231306040518263ffffffff1660e01b81526004016111439190612622565b602060405180830381865afa158015611160573d6000803e3d6000fd5b505050506040513d601f19601f820116820180604052508101906111849190612ad2565b9050600081116111c9576040517f08c379a00000000000000000000000000000000000000000000000000000000081526004016111c090612fb7565b60405180910390fd5b60008273ffffffffffffffffffffffffffffffffffffffff1663a9059cbb6111ef6112f8565b846040518363ffffffff1660e01b815260040161120d929190612e44565b6020604051808303816000875af115801561122c573d6000803e3d6000fd5b505050506040513d601f19601f820116820180604052508101906112509190612901565b905080611292576040517f08c379a000000000000000000000000000000000000000000000000000000000815260040161128990613023565b60405180910390fd5b61129a6112f8565b73ffffffffffffffffffffffffffffffffffffffff168373ffffffffffffffffffffffffffffffffffffffff167faa785f34069ec178fd3d41eb09b40d8a87c47e1024a65a81c044a09a6a16bb7c60405160405180910390a3505050565b6000600260009054906101000a900473ffffffffffffffffffffffffffffffffffffffff16905090565b60006001600084815260200190815260200160002060000160008373ffffffffffffffffffffffffffffffffffffffff1673ffffffffffffffffffffffffffffffffffffffff16815260200190815260200160002060009054906101000a900460ff16905092915050565b6000801b81565b7f000000000000000000000000000000000000000000000000000000000000000081565b6113c0611c12565b6000806000806000807f000000000000000000000000000000000000000000000000000000000000000073ffffffffffffffffffffffffffffffffffffffff1663eb02c301886040518263ffffffff1660e01b815260040161142291906124d1565b60e060405180830381865afa15801561143f573d6000803e3d6000fd5b505050506040513d601f19601f820116820180604052508101906114639190612bc5565b9650965096509650965050955080156114b1576040517f08c379a00000000000000000000000000000000000000000000000000000000081526004016114a89061308f565b60405180910390fd5b834210156114f4576040517f08c379a00000000000000000000000000000000000000000000000000000000081526004016114eb906130fb565b60405180910390fd5b3373ffffffffffffffffffffffffffffffffffffffff167f000000000000000000000000000000000000000000000000000000000000000073ffffffffffffffffffffffffffffffffffffffff16636352211e896040518263ffffffff1660e01b815260040161156491906124d1565b602060405180830381865afa158015611581573d6000803e3d6000fd5b505050506040513d601f19601f820116820180604052508101906115a59190612c67565b73ffffffffffffffffffffffffffffffffffffffff16146115fb576040517f08c379a00000000000000000000000000000000000000000000000000000000081526004016115f290612ce0565b60405180910390fd5b60008060038111156116105761160f61286f565b5b8360038111156116235761162261286f565b5b036117045761163b8685611c6190919063ffffffff16565b905080341015611680576040517f08c379a000000000000000000000000000000000000000000000000000000000815260040161167790613167565b60405180910390fd5b8673ffffffffffffffffffffffffffffffffffffffff1663a9059cbb33866040518363ffffffff1660e01b81526004016116bb929190612e44565b6020604051808303816000875af11580156116da573d6000803e3d6000fd5b505050506040513d601f19601f820116820180604052508101906116fe9190612901565b5061184d565b600260038111156117185761171761286f565b5b83600381111561172b5761172a61286f565b5b0361184c576117438685611c6190919063ffffffff16565b90508673ffffffffffffffffffffffffffffffffffffffff166323b872dd3330876040518463ffffffff1660e01b81526004016117829392919061289e565b6020604051808303816000875af11580156117a1573d6000803e3d6000fd5b505050506040513d601f19601f820116820180604052508101906117c59190612901565b611804576040517f08c379a00000000000000000000000000000000000000000000000000000000081526004016117fb90613023565b60405180910390fd5b3373ffffffffffffffffffffffffffffffffffffffff166108fc829081150290604051600060405180830381858888f1935050505015801561184a573d6000803e3d6000fd5b505b5b7f000000000000000000000000000000000000000000000000000000000000000073ffffffffffffffffffffffffffffffffffffffff166374bf6990896040518263ffffffff1660e01b81526004016118a691906124d1565b600060405180830381600087803b1580156118c057600080fd5b505af11580156118d4573d6000803e3d6000fd5b505050503373ffffffffffffffffffffffffffffffffffffffff16887ff30bc0392499ea7de5e644b734d673788ca982c6bb852c80a7c8cd13b583927c8684604051611921929190613187565b60405180910390a350505050505050611938611c8d565b50565b6103e881565b600181565b61194f82610f61565b61195881611c97565b6119628383611d93565b505050565b612ee081565b611975611e75565b600081116119b8576040517f08c379a00000000000000000000000000000000000000000000000000000000081526004016119af906131fc565b60405180910390fd5b600047905081811015611a00576040517f08c379a00000000000000000000000000000000000000000000000000000000081526004016119f790612fb7565b60405180910390fd5b6000611a0a6112f8565b73ffffffffffffffffffffffffffffffffffffffff1683604051611a2d9061324d565b60006040518083038185875af1925050503d8060008114611a6a576040519150601f19603f3d011682016040523d82523d6000602084013e611a6f565b606091505b5050905080611ab3576040517f08c379a0000000000000000000000000000000000000000000000000000000008152600401611aaa906132ae565b60405180910390fd5b611abb6112f8565b73ffffffffffffffffffffffffffffffffffffffff167f6148672a948a12b8e0bf92a9338349b9ac890fad62a234abaf0a4da99f62cfcc84604051611b0091906124d1565b60405180910390a2505050565b611b15611e75565b600073ffffffffffffffffffffffffffffffffffffffff168173ffffffffffffffffffffffffffffffffffffffff1603611b84576040517f08c379a0000000000000000000000000000000000000000000000000000000008152600401611b7b90613340565b60405180910390fd5b611b8d81611ef3565b50565b60046020528060005260406000206000915090505481565b60007f01ffc9a7000000000000000000000000000000000000000000000000000000007bffffffffffffffffffffffffffffffffffffffffffffffffffffffff1916827bffffffffffffffffffffffffffffffffffffffffffffffffffffffff1916149050919050565b600260005403611c57576040517f08c379a0000000000000000000000000000000000000000000000000000000008152600401611c4e906133ac565b60405180910390fd5b6002600081905550565b60008183611c6f91906133cc565b905092915050565b60008183611c85919061343d565b905092915050565b6001600081905550565b611ca881611ca3611d8b565b611fb9565b50565b611cb58282611322565b611d8757600180600084815260200190815260200160002060000160008373ffffffffffffffffffffffffffffffffffffffff1673ffffffffffffffffffffffffffffffffffffffff16815260200190815260200160002060006101000a81548160ff021916908315150217905550611d2c611d8b565b73ffffffffffffffffffffffffffffffffffffffff168173ffffffffffffffffffffffffffffffffffffffff16837f2f8788117e7eff1d82e926ec794901d17c78024a50270940304540a733656f0d60405160405180910390a45b5050565b600033905090565b611d9d8282611322565b15611e715760006001600084815260200190815260200160002060000160008373ffffffffffffffffffffffffffffffffffffffff1673ffffffffffffffffffffffffffffffffffffffff16815260200190815260200160002060006101000a81548160ff021916908315150217905550611e16611d8b565b73ffffffffffffffffffffffffffffffffffffffff168173ffffffffffffffffffffffffffffffffffffffff16837ff6391f5c32d9c69d2a47ea670b442974b53935d1edc7fd64eb21e047a839171b60405160405180910390a45b5050565b611e7d611d8b565b73ffffffffffffffffffffffffffffffffffffffff16611e9b6112f8565b73ffffffffffffffffffffffffffffffffffffffff1614611ef1576040517f08c379a0000000000000000000000000000000000000000000000000000000008152600401611ee8906134ba565b60405180910390fd5b565b6000600260009054906101000a900473ffffffffffffffffffffffffffffffffffffffff16905081600260006101000a81548173ffffffffffffffffffffffffffffffffffffffff021916908373ffffffffffffffffffffffffffffffffffffffff1602179055508173ffffffffffffffffffffffffffffffffffffffff168173ffffffffffffffffffffffffffffffffffffffff167f8be0079c531659141344cd1fd0a4f28419497f9722a3daafe3b4186f6b6457e060405160405180910390a35050565b611fc38282611322565b61203a57611fd08161203e565b611fde8360001c602061206b565b604051602001611fef9291906135e3565b6040516020818303038152906040526040517f08c379a00000000000000000000000000000000000000000000000000000000081526004016120319190613667565b60405180910390fd5b5050565b60606120648273ffffffffffffffffffffffffffffffffffffffff16601460ff1661206b565b9050919050565b60606000600283600261207e91906133cc565b61208891906126e6565b67ffffffffffffffff8111156120a1576120a0613689565b5b6040519080825280601f01601f1916602001820160405280156120d35781602001600182028036833780820191505090505b5090507f30000000000000000000000000000000000000000000000000000000000000008160008151811061210b5761210a6136b8565b5b60200101907effffffffffffffffffffffffffffffffffffffffffffffffffffffffffffff1916908160001a9053507f78000000000000000000000000000000000000000000000000000000000000008160018151811061216f5761216e6136b8565b5b60200101907effffffffffffffffffffffffffffffffffffffffffffffffffffffffffffff1916908160001a905350600060018460026121af91906133cc565b6121b991906126e6565b90505b6001811115612259577f3031323334353637383961626364656600000000000000000000000000000000600f8616601081106121fb576121fa6136b8565b5b1a60f81b828281518110612212576122116136b8565b5b60200101907effffffffffffffffffffffffffffffffffffffffffffffffffffffffffffff1916908160001a905350600485901c945080612252906136e7565b90506121bc565b506000841461229d576040517f08c379a00000000000000000000000000000000000000000000000000000000081526004016122949061375c565b60405180910390fd5b8091505092915050565b600080fd5b60007fffffffff0000000000000000000000000000000000000000000000000000000082169050919050565b6122e1816122ac565b81146122ec57600080fd5b50565b6000813590506122fe816122d8565b92915050565b60006020828403121561231a576123196122a7565b5b6000612328848285016122ef565b91505092915050565b60008115159050919050565b61234681612331565b82525050565b6000602082019050612361600083018461233d565b92915050565b600073ffffffffffffffffffffffffffffffffffffffff82169050919050565b600061239282612367565b9050919050565b6123a281612387565b81146123ad57600080fd5b50565b6000813590506123bf81612399565b92915050565b6000819050919050565b6123d8816123c5565b81146123e357600080fd5b50565b6000813590506123f5816123cf565b92915050565b6004811061240857600080fd5b50565b60008135905061241a816123fb565b92915050565b600080600080600080600060e0888a03121561243f5761243e6122a7565b5b600061244d8a828b016123b0565b975050602061245e8a828b016123e6565b965050604061246f8a828b016123e6565b95505060606124808a828b016123e6565b94505060806124918a828b0161240b565b93505060a06124a28a828b016123e6565b92505060c06124b38a828b016123e6565b91505092959891949750929550565b6124cb816123c5565b82525050565b60006020820190506124e660008301846124c2565b92915050565b600060208284031215612502576125016122a7565b5b6000612510848285016123e6565b91505092915050565b6000819050919050565b61252c81612519565b811461253757600080fd5b50565b60008135905061254981612523565b92915050565b600060208284031215612565576125646122a7565b5b60006125738482850161253a565b91505092915050565b61258581612519565b82525050565b60006020820190506125a0600083018461257c565b92915050565b600080604083850312156125bd576125bc6122a7565b5b60006125cb8582860161253a565b92505060206125dc858286016123b0565b9150509250929050565b6000602082840312156125fc576125fb6122a7565b5b600061260a848285016123b0565b91505092915050565b61261c81612387565b82525050565b60006020820190506126376000830184612613565b92915050565b6000819050919050565b600061266261265d61265884612367565b61263d565b612367565b9050919050565b600061267482612647565b9050919050565b600061268682612669565b9050919050565b6126968161267b565b82525050565b60006020820190506126b1600083018461268d565b92915050565b7f4e487b7100000000000000000000000000000000000000000000000000000000600052601160045260246000fd5b60006126f1826123c5565b91506126fc836123c5565b9250828201905080821115612714576127136126b7565b5b92915050565b600082825260208201905092915050565b7f45787069727920746f6f20736f6f6e0000000000000000000000000000000000600082015250565b6000612761600f8361271a565b915061276c8261272b565b602082019050919050565b6000602082019050818103600083015261279081612754565b9050919050565b7f45787069727920746f6f20666172000000000000000000000000000000000000600082015250565b60006127cd600e8361271a565b91506127d882612797565b602082019050919050565b600060208201905081810360008301526127fc816127c0565b9050919050565b7f496e76616c696420616d6f756e74000000000000000000000000000000000000600082015250565b6000612839600e8361271a565b915061284482612803565b602082019050919050565b600060208201905081810360008301526128688161282c565b9050919050565b7f4e487b7100000000000000000000000000000000000000000000000000000000600052602160045260246000fd5b60006060820190506128b36000830186612613565b6128c06020830185612613565b6128cd60408301846124c2565b949350505050565b6128de81612331565b81146128e957600080fd5b50565b6000815190506128fb816128d5565b92915050565b600060208284031215612917576129166122a7565b5b6000612925848285016128ec565b91505092915050565b7f5072656d69756d207472616e73666572206661696c6564000000000000000000600082015250565b600061296460178361271a565b915061296f8261292e565b602082019050919050565b6000602082019050818103600083015261299381612957565b9050919050565b7f436f6c6c61746572616c207472616e73666572206661696c6564000000000000600082015250565b60006129d0601a8361271a565b91506129db8261299a565b602082019050919050565b600060208201905081810360008301526129ff816129c3565b9050919050565b60048110612a1757612a1661286f565b5b50565b6000819050612a2882612a06565b919050565b6000612a3882612a1a565b9050919050565b612a4881612a2d565b82525050565b600060e082019050612a63600083018a612613565b612a706020830189612613565b612a7d6040830188612613565b612a8a60608301876124c2565b612a9760808301866124c2565b612aa460a08301856124c2565b612ab160c0830184612a3f565b98975050505050505050565b600081519050612acc816123cf565b92915050565b600060208284031215612ae857612ae76122a7565b5b6000612af684828501612abd565b91505092915050565b600061014082019050612b15600083018d6124c2565b612b22602083018c612613565b612b2f604083018b6124c2565b612b3c606083018a6124c2565b612b4960808301896124c2565b612b5660a08301886124c2565b612b6360c0830187612a3f565b612b7060e0830186612613565b612b7e61010083018561233d565b612b8c6101208301846124c2565b9b9a5050505050505050505050565b600081519050612baa81612399565b92915050565b600081519050612bbf816123fb565b92915050565b600080600080600080600060e0888a031215612be457612be36122a7565b5b6000612bf28a828b01612b9b565b9750506020612c038a828b01612b9b565b9650506040612c148a828b01612abd565b9550506060612c258a828b01612abd565b9450506080612c368a828b01612abd565b93505060a0612c478a828b01612bb0565b92505060c0612c588a828b016128ec565b91505092959891949750929550565b600060208284031215612c7d57612c7c6122a7565b5b6000612c8b84828501612b9b565b91505092915050565b7f4e6f7420706f736974696f6e206f776e65720000000000000000000000000000600082015250565b6000612cca60128361271a565b9150612cd582612c94565b602082019050919050565b60006020820190508181036000830152612cf981612cbd565b9050919050565b7f5072656d69756d20616c72656164792077697468647261776e00000000000000600082015250565b6000612d3660198361271a565b9150612d4182612d00565b602082019050919050565b60006020820190508181036000830152612d6581612d29565b9050919050565b7f506f736974696f6e207374696c6c206163746976650000000000000000000000600082015250565b6000612da260158361271a565b9150612dad82612d6c565b602082019050919050565b60006020820190508181036000830152612dd181612d95565b9050919050565b7f4e6f207072656d69756d20746f20776974686472617700000000000000000000600082015250565b6000612e0e60168361271a565b9150612e1982612dd8565b602082019050919050565b60006020820190508181036000830152612e3d81612e01565b9050919050565b6000604082019050612e596000830185612613565b612e6660208301846124c2565b9392505050565b7f416363657373436f6e74726f6c3a2063616e206f6e6c792072656e6f756e636560008201527f20726f6c657320666f722073656c660000000000000000000000000000000000602082015250565b6000612ec9602f8361271a565b9150612ed482612e6d565b604082019050919050565b60006020820190508181036000830152612ef881612ebc565b9050919050565b7f496e76616c696420746f6b656e20616464726573730000000000000000000000600082015250565b6000612f3560158361271a565b9150612f4082612eff565b602082019050919050565b60006020820190508181036000830152612f6481612f28565b9050919050565b7f496e73756666696369656e742062616c616e6365000000000000000000000000600082015250565b6000612fa160148361271a565b9150612fac82612f6b565b602082019050919050565b60006020820190508181036000830152612fd081612f94565b9050919050565b7f5472616e73666572206661696c65640000000000000000000000000000000000600082015250565b600061300d600f8361271a565b915061301882612fd7565b602082019050919050565b6000602082019050818103600083015261303c81613000565b9050919050565b7f506f736974696f6e20616c726561647920736574746c65640000000000000000600082015250565b600061307960188361271a565b915061308482613043565b602082019050919050565b600060208201905081810360008301526130a88161306c565b9050919050565b7f4e6f742079657420657870697265640000000000000000000000000000000000600082015250565b60006130e5600f8361271a565b91506130f0826130af565b602082019050919050565b60006020820190508181036000830152613114816130d8565b9050919050565b7f496e73756666696369656e74207061796d656e74000000000000000000000000600082015250565b600061315160148361271a565b915061315c8261311b565b602082019050919050565b6000602082019050818103600083015261318081613144565b9050919050565b600060408201905061319c60008301856124c2565b6131a960208301846124c2565b9392505050565b7f416d6f756e74206d7573742062652067726561746572207468616e2030000000600082015250565b60006131e6601d8361271a565b91506131f1826131b0565b602082019050919050565b60006020820190508181036000830152613215816131d9565b9050919050565b600081905092915050565b50565b600061323760008361321c565b915061324282613227565b600082019050919050565b60006132588261322a565b9150819050919050565b7f455448207472616e73666572206661696c656400000000000000000000000000600082015250565b600061329860138361271a565b91506132a382613262565b602082019050919050565b600060208201905081810360008301526132c78161328b565b9050919050565b7f4f776e61626c653a206e6577206f776e657220697320746865207a65726f206160008201527f6464726573730000000000000000000000000000000000000000000000000000602082015250565b600061332a60268361271a565b9150613335826132ce565b604082019050919050565b600060208201905081810360008301526133598161331d565b9050919050565b7f5265656e7472616e637947756172643a207265656e7472616e742063616c6c00600082015250565b6000613396601f8361271a565b91506133a182613360565b602082019050919050565b600060208201905081810360008301526133c581613389565b9050919050565b60006133d7826123c5565b91506133e2836123c5565b92508282026133f0816123c5565b91508282048414831517613407576134066126b7565b5b5092915050565b7f4e487b7100000000000000000000000000000000000000000000000000000000600052601260045260246000fd5b6000613448826123c5565b9150613453836123c5565b9250826134635761346261340e565b5b828204905092915050565b7f4f776e61626c653a2063616c6c6572206973206e6f7420746865206f776e6572600082015250565b60006134a460208361271a565b91506134af8261346e565b602082019050919050565b600060208201905081810360008301526134d381613497565b9050919050565b600081905092915050565b7f416363657373436f6e74726f6c3a206163636f756e7420000000000000000000600082015250565b600061351b6017836134da565b9150613526826134e5565b601782019050919050565b600081519050919050565b60005b8381101561355a57808201518184015260208101905061353f565b60008484015250505050565b600061357182613531565b61357b81856134da565b935061358b81856020860161353c565b80840191505092915050565b7f206973206d697373696e6720726f6c6520000000000000000000000000000000600082015250565b60006135cd6011836134da565b91506135d882613597565b601182019050919050565b60006135ee8261350e565b91506135fa8285613566565b9150613605826135c0565b91506136118284613566565b91508190509392505050565b6000601f19601f8301169050919050565b600061363982613531565b613643818561271a565b935061365381856020860161353c565b61365c8161361d565b840191505092915050565b60006020820190508181036000830152613681818461362e565b905092915050565b7f4e487b7100000000000000000000000000000000000000000000000000000000600052604160045260246000fd5b7f4e487b7100000000000000000000000000000000000000000000000000000000600052603260045260246000fd5b60006136f2826123c5565b915060008203613705576137046126b7565b5b600182039050919050565b7f537472696e67733a20686578206c656e67746820696e73756666696369656e74600082015250565b600061374660208361271a565b915061375182613710565b602082019050919050565b6000602082019050818103600083015261377581613739565b905091905056fea2646970667358221220259fe845784044893d3d0b6e2a8cfdfe6199a939e58ea4fd56f5fd727df57e4f64736f6c634300081c0033",
  "linkReferences": {},
  "deployedLinkReferences": {}
}