{
  "_format": "hh-sol-artifact-1",
  "contractName": "OptionsEngine",
  "sourceName": "contracts/OptionEngine.sol",
  "abi": [
    {
      "inputs": [
        {
          "internalType": "address",
          "name": "_optionPosition",
          "type": "address"
        }
      ],
      "stateMutability": "nonpayable",
      "type": "constructor"
    },
    {
      "anonymous": false,
      "inputs": [
        {
          "indexed": false,
          "internalType": "uint256",
          "name": "amount",
          "type": "uint256"
        },
        {
          "indexed": true,
          "internalType": "address",
          "name": "to",
          "type": "address"
        }
      ],
      "name": "ETHWithdrawn",
      "type": "event"
    },
    {
      "anonymous": false,
      "inputs": [
        {
          "indexed": true,
          "internalType": "address",
          "name": "previousOwner",
          "type": "address"
        },
        {
          "indexed": true,
          "internalType": "address",
          "name": "newOwner",
          "type": "address"
        }
      ],
      "name": "OwnershipTransferred",
      "type": "event"
    },
    {
      "anonymous": false,
      "inputs": [
        {
          "indexed": true,
          "internalType": "uint256",
          "name": "tokenId",
          "type": "uint256"
        },
        {
          "indexed": true,
          "internalType": "address",
          "name": "trader",
          "type": "address"
        },
        {
          "indexed": false,
          "internalType": "uint256",
          "name": "amount",
          "type": "uint256"
        },
        {
          "indexed": false,
          "internalType": "uint256",
          "name": "settlementAmount",
          "type": "uint256"
        }
      ],
      "name": "PositionExercised",
      "type": "event"
    },
    {
      "anonymous": false,
      "inputs": [
        {
          "indexed": false,
          "internalType": "uint256",
          "name": "tokenId",
          "type": "uint256"
        },
        {
          "indexed": false,
          "internalType": "address",
          "name": "trader",
          "type": "address"
        },
        {
          "indexed": false,
          "internalType": "uint256",
          "name": "premium",
          "type": "uint256"
        },
        {
          "indexed": false,
          "internalType": "uint256",
          "name": "collateral",
          "type": "uint256"
        },
        {
          "indexed": false,
          "internalType": "uint256",
          "name": "strikePrice",
          "type": "uint256"
        },
        {
          "indexed": false,
          "internalType": "uint256",
          "name": "expiry",
          "type": "uint256"
        },
        {
          "indexed": false,
          "internalType": "enum OptionPosition.PositionType",
          "name": "positionType",
          "type": "uint8"
        },
        {
          "indexed": false,
          "internalType": "address",
          "name": "underlying",
          "type": "address"
        }
      ],
      "name": "PositionOpened",
      "type": "event"
    },
    {
      "anonymous": false,
      "inputs": [
        {
          "indexed": true,
          "internalType": "uint256",
          "name": "tokenId",
          "type": "uint256"
        },
        {
          "indexed": true,
          "internalType": "address",
          "name": "writer",
          "type": "address"
        },
        {
          "indexed": false,
          "internalType": "uint256",
          "name": "amount",
          "type": "uint256"
        }
      ],
      "name": "PremiumWithdrawn",
      "type": "event"
    },
    {
      "anonymous": false,
      "inputs": [
        {
          "indexed": true,
          "internalType": "bytes32",
          "name": "role",
          "type": "bytes32"
        },
        {
          "indexed": true,
          "internalType": "bytes32",
          "name": "previousAdminRole",
          "type": "bytes32"
        },
        {
          "indexed": true,
          "internalType": "bytes32",
          "name": "newAdminRole",
          "type": "bytes32"
        }
      ],
      "name": "RoleAdminChanged",
      "type": "event"
    },
    {
      "anonymous": false,
      "inputs": [
        {
          "indexed": true,
          "internalType": "bytes32",
          "name": "role",
          "type": "bytes32"
        },
        {
          "indexed": true,
          "internalType": "address",
          "name": "account",
          "type": "address"
        },
        {
          "indexed": true,
          "internalType": "address",
          "name": "sender",
          "type": "address"
        }
      ],
      "name": "RoleGranted",
      "type": "event"
    },
    {
      "anonymous": false,
      "inputs": [
        {
          "indexed": true,
          "internalType": "bytes32",
          "name": "role",
          "type": "bytes32"
        },
        {
          "indexed": true,
          "internalType": "address",
          "name": "account",
          "type": "address"
        },
        {
          "indexed": true,
          "internalType": "address",
          "name": "sender",
          "type": "address"
        }
      ],
      "name": "RoleRevoked",
      "type": "event"
    },
    {
      "anonymous": false,
      "inputs": [
        {
          "indexed": true,
          "internalType": "address",
          "name": "token",
          "type": "address"
        },
        {
          "indexed": true,
          "internalType": "address",
          "name": "to",
          "type": "address"
        }
      ],
      "name": "TokenWithdrawn",
      "type": "event"
    },
    {
      "stateMutability": "payable",
      "type": "fallback"
    },
    {
      "inputs": [],
      "name": "COLLATERAL_RATIO",
      "outputs": [
        {
          "internalType": "uint256",
          "name": "",
          "type": "uint256"
        }
      ],
      "stateMutability": "view",
      "type": "function"
    },
    {
      "inputs": [],
      "name": "DEFAULT_ADMIN_ROLE",
      "outputs": [
        {
          "internalType": "bytes32",
          "name": "",
          "type": "bytes32"
        }
      ],
      "stateMutability": "view",
      "type": "function"
    },
    {
      "inputs": [],
      "name": "MAX_DURATION",
      "outputs": [
        {
          "internalType": "uint256",
          "name": "",
          "type": "uint256"
        }
      ],
      "stateMutability": "view",
      "type": "function"
    },
    {
      "inputs": [],
      "name": "MIN_DURATION",
      "outputs": [
        {
          "internalType": "uint256",
          "name": "",
          "type": "uint256"
        }
      ],
      "stateMutability": "view",
      "type": "function"
    },
    {
      "inputs": [
        {
          "internalType": "uint256",
          "name": "tokenId",
          "type": "uint256"
        }
      ],
      "name": "exercise",
      "outputs": [],
      "stateMutability": "payable",
      "type": "function"
    },
    {
      "inputs": [],
      "name": "getCurrentTimestamp",
      "outputs": [
        {
          "internalType": "uint256",
          "name": "",
          "type": "uint256"
        }
      ],
      "stateMutability": "view",
      "type": "function"
    },
    {
      "inputs": [
        {
          "internalType": "bytes32",
          "name": "role",
          "type": "bytes32"
        }
      ],
      "name": "getRoleAdmin",
      "outputs": [
        {
          "internalType": "bytes32",
          "name": "",
          "type": "bytes32"
        }
      ],
      "stateMutability": "view",
      "type": "function"
    },
    {
      "inputs": [
        {
          "internalType": "bytes32",
          "name": "role",
          "type": "bytes32"
        },
        {
          "internalType": "address",
          "name": "account",
          "type": "address"
        }
      ],
      "name": "grantRole",
      "outputs": [],
      "stateMutability": "nonpayable",
      "type": "function"
    },
    {
      "inputs": [
        {
          "internalType": "bytes32",
          "name": "role",
          "type": "bytes32"
        },
        {
          "internalType": "address",
          "name": "account",
          "type": "address"
        }
      ],
      "name": "hasRole",
      "outputs": [
        {
          "internalType": "bool",
          "name": "",
          "type": "bool"
        }
      ],
      "stateMutability": "view",
      "type": "function"
    },
    {
      "inputs": [
        {
          "internalType": "uint256",
          "name": "",
          "type": "uint256"
        }
      ],
      "name": "lockedCollateral",
      "outputs": [
        {
          "internalType": "uint256",
          "name": "",
          "type": "uint256"
        }
      ],
      "stateMutability": "view",
      "type": "function"
    },
    {
      "inputs": [
        {
          "internalType": "address",
          "name": "underlying",
          "type": "address"
        },
        {
          "internalType": "uint256",
          "name": "amount",
          "type": "uint256"
        },
        {
          "internalType": "uint256",
          "name": "strikePrice",
          "type": "uint256"
        },
        {
          "internalType": "uint256",
          "name": "expiry",
          "type": "uint256"
        },
        {
          "internalType": "enum OptionPosition.PositionType",
          "name": "positionType",
          "type": "uint8"
        }
      ],
      "name": "openPosition",
      "outputs": [
        {
          "internalType": "uint256",
          "name": "",
          "type": "uint256"
        }
      ],
      "stateMutability": "nonpayable",
      "type": "function"
    },
    {
      "inputs": [],
      "name": "optionPosition",
      "outputs": [
        {
          "internalType": "contract OptionPosition",
          "name": "",
          "type": "address"
        }
      ],
      "stateMutability": "view",
      "type": "function"
    },
    {
      "inputs": [],
      "name": "owner",
      "outputs": [
        {
          "internalType": "address",
          "name": "",
          "type": "address"
        }
      ],
      "stateMutability": "view",
      "type": "function"
    },
    {
      "inputs": [
        {
          "internalType": "uint256",
          "name": "",
          "type": "uint256"
        }
      ],
      "name": "premiumForPosition",
      "outputs": [
        {
          "internalType": "uint256",
          "name": "",
          "type": "uint256"
        }
      ],
      "stateMutability": "view",
      "type": "function"
    },
    {
      "inputs": [
        {
          "internalType": "uint256",
          "name": "",
          "type": "uint256"
        }
      ],
      "name": "premiumWithdrawn",
      "outputs": [
        {
          "internalType": "bool",
          "name": "",
          "type": "bool"
        }
      ],
      "stateMutability": "view",
      "type": "function"
    },
    {
      "inputs": [],
      "name": "renounceOwnership",
      "outputs": [],
      "stateMutability": "nonpayable",
      "type": "function"
    },
    {
      "inputs": [
        {
          "internalType": "bytes32",
          "name": "role",
          "type": "bytes32"
        },
        {
          "internalType": "address",
          "name": "account",
          "type": "address"
        }
      ],
      "name": "renounceRole",
      "outputs": [],
      "stateMutability": "nonpayable",
      "type": "function"
    },
    {
      "inputs": [
        {
          "internalType": "bytes32",
          "name": "role",
          "type": "bytes32"
        },
        {
          "internalType": "address",
          "name": "account",
          "type": "address"
        }
      ],
      "name": "revokeRole",
      "outputs": [],
      "stateMutability": "nonpayable",
      "type": "function"
    },
    {
      "inputs": [
        {
          "internalType": "bytes4",
          "name": "interfaceId",
          "type": "bytes4"
        }
      ],
      "name": "supportsInterface",
      "outputs": [
        {
          "internalType": "bool",
          "name": "",
          "type": "bool"
        }
      ],
      "stateMutability": "view",
      "type": "function"
    },
    {
      "inputs": [
        {
          "internalType": "address",
          "name": "newOwner",
          "type": "address"
        }
      ],
      "name": "transferOwnership",
      "outputs": [],
      "stateMutability": "nonpayable",
      "type": "function"
    },
    {
      "inputs": [
        {
          "internalType": "address",
          "name": "",
          "type": "address"
        }
      ],
      "name": "userCollateral",
      "outputs": [
        {
          "internalType": "uint256",
          "name": "",
          "type": "uint256"
        }
      ],
      "stateMutability": "view",
      "type": "function"
    },
    {
      "inputs": [
        {
          "internalType": "uint256",
          "name": "amount",
          "type": "uint256"
        }
      ],
      "name": "withdrawETH",
      "outputs": [],
      "stateMutability": "nonpayable",
      "type": "function"
    },
    {
      "inputs": [
        {
          "internalType": "uint256",
          "name": "tokenId",
          "type": "uint256"
        }
      ],
      "name": "withdrawPremium",
      "outputs": [],
      "stateMutability": "nonpayable",
      "type": "function"
    },
    {
      "inputs": [
        {
          "internalType": "address",
          "name": "token",
          "type": "address"
        }
      ],
      "name": "withdrawToken",
      "outputs": [],
      "stateMutability": "nonpayable",
      "type": "function"
    },
    {
      "stateMutability": "payable",
      "type": "receive"
    }
  ],
  "bytecode": "0x60a060405234801561001057600080fd5b50604051613be4380380613be48339818101604052810190610032919061032b565b600160008190555061005661004b6100a360201b60201c565b6100ab60201b60201c565b8073ffffffffffffffffffffffffffffffffffffffff1660808173ffffffffffffffffffffffffffffffffffffffff168152505061009d6000801b3361017160201b60201c565b50610358565b600033905090565b6000600260009054906101000a900473ffffffffffffffffffffffffffffffffffffffff16905081600260006101000a81548173ffffffffffffffffffffffffffffffffffffffff021916908373ffffffffffffffffffffffffffffffffffffffff1602179055508173ffffffffffffffffffffffffffffffffffffffff168173ffffffffffffffffffffffffffffffffffffffff167f8be0079c531659141344cd1fd0a4f28419497f9722a3daafe3b4186f6b6457e060405160405180910390a35050565b610181828261025d60201b60201c565b61025957600180600084815260200190815260200160002060000160008373ffffffffffffffffffffffffffffffffffffffff1673ffffffffffffffffffffffffffffffffffffffff16815260200190815260200160002060006101000a81548160ff0219169083151502179055506101fe6100a360201b60201c565b73ffffffffffffffffffffffffffffffffffffffff168173ffffffffffffffffffffffffffffffffffffffff16837f2f8788117e7eff1d82e926ec794901d17c78024a50270940304540a733656f0d60405160405180910390a45b5050565b60006001600084815260200190815260200160002060000160008373ffffffffffffffffffffffffffffffffffffffff1673ffffffffffffffffffffffffffffffffffffffff16815260200190815260200160002060009054906101000a900460ff16905092915050565b600080fd5b600073ffffffffffffffffffffffffffffffffffffffff82169050919050565b60006102f8826102cd565b9050919050565b610308816102ed565b811461031357600080fd5b50565b600081519050610325816102ff565b92915050565b600060208284031215610341576103406102c8565b5b600061034f84828501610316565b91505092915050565b6080516138406103a460003960008181610642015281816106fd01528181610bec01528181610f9f0152818161143201528181611467015281816115a901526118eb01526138406000f3fe60806040526004361061014f5760003560e01c80638da5cb5b116100b6578063b6a6d1771161006f578063b6a6d177146104ab578063d547741f146104d6578063d9e69a05146104ff578063f14210a61461052a578063f2fde38b14610553578063f69f1e4a1461057c57610150565b80638da5cb5b146103a657806391d14854146103d1578063a217fddf1461040e578063a87c03c014610439578063b07f0a4114610464578063b1724b461461048057610150565b80633e48f6f8116101085780633e48f6f814610284578063619de09e146102c15780636c9230db146102fe578063715018a61461032957806382e8573c14610340578063894760691461037d57610150565b806301ffc9a7146101525780631f01664a1461018f578063248a9ca3146101b85780632f2ff15d146101f557806336568abe1461021e578063369b07b31461024757610150565b5b005b34801561015e57600080fd5b50610179600480360381019061017491906123a0565b6105b9565b60405161018691906123e8565b60405180910390f35b34801561019b57600080fd5b506101b660048036038101906101b19190612439565b610633565b005b3480156101c457600080fd5b506101df60048036038101906101da919061249c565b610a39565b6040516101ec91906124d8565b60405180910390f35b34801561020157600080fd5b5061021c60048036038101906102179190612551565b610a59565b005b34801561022a57600080fd5b5061024560048036038101906102409190612551565b610a7a565b005b34801561025357600080fd5b5061026e600480360381019061026991906125b6565b610afd565b60405161027b9190612640565b60405180910390f35b34801561029057600080fd5b506102ab60048036038101906102a69190612439565b6110c1565b6040516102b89190612640565b60405180910390f35b3480156102cd57600080fd5b506102e860048036038101906102e39190612439565b6110d9565b6040516102f591906123e8565b60405180910390f35b34801561030a57600080fd5b506103136110f9565b6040516103209190612640565b60405180910390f35b34801561033557600080fd5b5061033e611101565b005b34801561034c57600080fd5b5061036760048036038101906103629190612439565b611115565b6040516103749190612640565b60405180910390f35b34801561038957600080fd5b506103a4600480360381019061039f919061265b565b61112d565b005b3480156103b257600080fd5b506103bb611394565b6040516103c89190612697565b60405180910390f35b3480156103dd57600080fd5b506103f860048036038101906103f39190612551565b6113be565b60405161040591906123e8565b60405180910390f35b34801561041a57600080fd5b50610423611429565b60405161043091906124d8565b60405180910390f35b34801561044557600080fd5b5061044e611430565b60405161045b9190612711565b60405180910390f35b61047e60048036038101906104799190612439565b611454565b005b34801561048c57600080fd5b506104956119d7565b6040516104a29190612640565b60405180910390f35b3480156104b757600080fd5b506104c06119dd565b6040516104cd9190612640565b60405180910390f35b3480156104e257600080fd5b506104fd60048036038101906104f89190612551565b6119e2565b005b34801561050b57600080fd5b50610514611a03565b6040516105219190612640565b60405180910390f35b34801561053657600080fd5b50610551600480360381019061054c9190612439565b611a09565b005b34801561055f57600080fd5b5061057a6004803603810190610575919061265b565b611ba9565b005b34801561058857600080fd5b506105a3600480360381019061059e919061265b565b611c2c565b6040516105b09190612640565b60405180910390f35b60007f7965db0b000000000000000000000000000000000000000000000000000000007bffffffffffffffffffffffffffffffffffffffffffffffffffffffff1916827bffffffffffffffffffffffffffffffffffffffffffffffffffffffff1916148061062c575061062b82611c44565b5b9050919050565b61063b611cae565b60008060007f000000000000000000000000000000000000000000000000000000000000000073ffffffffffffffffffffffffffffffffffffffff1663eb02c301856040518263ffffffff1660e01b81526004016106999190612640565b60e060405180830381865afa1580156106b6573d6000803e3d6000fd5b505050506040513d601f19601f820116820180604052508101906106da9190612797565b965050509450505092503373ffffffffffffffffffffffffffffffffffffffff167f000000000000000000000000000000000000000000000000000000000000000073ffffffffffffffffffffffffffffffffffffffff16636352211e866040518263ffffffff1660e01b81526004016107549190612640565b602060405180830381865afa158015610771573d6000803e3d6000fd5b505050506040513d601f19601f820116820180604052508101906107959190612839565b73ffffffffffffffffffffffffffffffffffffffff16146107eb576040517f08c379a00000000000000000000000000000000000000000000000000000000081526004016107e2906128c3565b60405180910390fd5b6006600085815260200190815260200160002060009054906101000a900460ff161561084c576040517f08c379a00000000000000000000000000000000000000000000000000000000081526004016108439061292f565b60405180910390fd5b81421015806108585750805b610897576040517f08c379a000000000000000000000000000000000000000000000000000000000815260040161088e9061299b565b60405180910390fd5b600060056000868152602001908152602001600020549050600081116108f2576040517f08c379a00000000000000000000000000000000000000000000000000000000081526004016108e990612a07565b60405180910390fd5b60016006600087815260200190815260200160002060006101000a81548160ff0219169083151502179055508373ffffffffffffffffffffffffffffffffffffffff1663a9059cbb33836040518363ffffffff1660e01b8152600401610959929190612a27565b6020604051808303816000875af1158015610978573d6000803e3d6000fd5b505050506040513d601f19601f8201168201806040525081019061099c9190612a50565b6109db576040517f08c379a00000000000000000000000000000000000000000000000000000000081526004016109d290612ac9565b60405180910390fd5b3373ffffffffffffffffffffffffffffffffffffffff16857f4da7659c2a41189e8cab8706bf89d1b47a56eb32259d52f0deb61c68d213be7683604051610a229190612640565b60405180910390a350505050610a36611cfd565b50565b600060016000838152602001908152602001600020600101549050919050565b610a6282610a39565b610a6b81611d07565b610a758383611d1b565b505050565b610a82611dfb565b73ffffffffffffffffffffffffffffffffffffffff168173ffffffffffffffffffffffffffffffffffffffff1614610aef576040517f08c379a0000000000000000000000000000000000000000000000000000000008152600401610ae690612b5b565b60405180910390fd5b610af98282611e03565b5050565b6000610b07611cae565b600142610b149190612baa565b8311610b55576040517f08c379a0000000000000000000000000000000000000000000000000000000008152600401610b4c90612c2a565b60405180910390fd5b6103e842610b639190612baa565b831115610ba5576040517f08c379a0000000000000000000000000000000000000000000000000000000008152600401610b9c90612c96565b60405180910390fd5b60008511610be8576040517f08c379a0000000000000000000000000000000000000000000000000000000008152600401610bdf90612d02565b60405180910390fd5b60007f000000000000000000000000000000000000000000000000000000000000000073ffffffffffffffffffffffffffffffffffffffff1663857a155b8787866040518463ffffffff1660e01b8152600401610c4793929190612d99565b602060405180830381865afa158015610c64573d6000803e3d6000fd5b505050506040513d601f19601f82011682018060405250810190610c889190612dd0565b905060006003811115610c9e57610c9d612d22565b5b836003811115610cb157610cb0612d22565b5b1480610ce1575060026003811115610ccc57610ccb612d22565b5b836003811115610cdf57610cde612d22565b5b145b15610daa578673ffffffffffffffffffffffffffffffffffffffff166323b872dd3330846040518463ffffffff1660e01b8152600401610d2393929190612dfd565b6020604051808303816000875af1158015610d42573d6000803e3d6000fd5b505050506040513d601f19601f82011682018060405250810190610d669190612a50565b610da5576040517f08c379a0000000000000000000000000000000000000000000000000000000008152600401610d9c90612ac9565b60405180910390fd5b610f9b565b60016003811115610dbe57610dbd612d22565b5b836003811115610dd157610dd0612d22565b5b03610e9a578673ffffffffffffffffffffffffffffffffffffffff166323b872dd3330896040518463ffffffff1660e01b8152600401610e1393929190612dfd565b6020604051808303816000875af1158015610e32573d6000803e3d6000fd5b505050506040513d601f19601f82011682018060405250810190610e569190612a50565b610e95576040517f08c379a0000000000000000000000000000000000000000000000000000000008152600401610e8c90612e80565b60405180910390fd5b610f9a565b6000610ed7612710610ec9612ee0610ebb8a8c611ee590919063ffffffff16565b611ee590919063ffffffff16565b611efb90919063ffffffff16565b90508773ffffffffffffffffffffffffffffffffffffffff166323b872dd3330846040518463ffffffff1660e01b8152600401610f1693929190612dfd565b6020604051808303816000875af1158015610f35573d6000803e3d6000fd5b505050506040513d601f19601f82011682018060405250810190610f599190612a50565b610f98576040517f08c379a0000000000000000000000000000000000000000000000000000000008152600401610f8f90612e80565b60405180910390fd5b505b5b60007f000000000000000000000000000000000000000000000000000000000000000073ffffffffffffffffffffffffffffffffffffffff1663e5964256338a60008a8a8d8b6040518863ffffffff1660e01b81526004016110039796959493929190612ea0565b6020604051808303816000875af1158015611022573d6000803e3d6000fd5b505050506040513d601f19601f820116820180604052508101906110469190612dd0565b905081600560008381526020019081526020016000208190555060008890507fc96ef33ded7a92bffdf0829334f48b3dc49e4b77abb9430c8ab699590ea6f8a98233858b8b8b8b886040516110a2989796959493929190612f0f565b60405180910390a18193505050506110b8611cfd565b95945050505050565b60036020528060005260406000206000915090505481565b60066020528060005260406000206000915054906101000a900460ff1681565b600042905090565b611109611f11565b6111136000611f8f565b565b60056020528060005260406000206000915090505481565b611135611f11565b600073ffffffffffffffffffffffffffffffffffffffff168173ffffffffffffffffffffffffffffffffffffffff16036111a4576040517f08c379a000000000000000000000000000000000000000000000000000000000815260040161119b90612fd9565b60405180910390fd5b60008173ffffffffffffffffffffffffffffffffffffffff166370a08231306040518263ffffffff1660e01b81526004016111df9190612697565b602060405180830381865afa1580156111fc573d6000803e3d6000fd5b505050506040513d601f19601f820116820180604052508101906112209190612dd0565b905060008111611265576040517f08c379a000000000000000000000000000000000000000000000000000000000815260040161125c90613045565b60405180910390fd5b60008273ffffffffffffffffffffffffffffffffffffffff1663a9059cbb61128b611394565b846040518363ffffffff1660e01b81526004016112a9929190612a27565b6020604051808303816000875af11580156112c8573d6000803e3d6000fd5b505050506040513d601f19601f820116820180604052508101906112ec9190612a50565b90508061132e576040517f08c379a0000000000000000000000000000000000000000000000000000000008152600401611325906130b1565b60405180910390fd5b611336611394565b73ffffffffffffffffffffffffffffffffffffffff168373ffffffffffffffffffffffffffffffffffffffff167faa785f34069ec178fd3d41eb09b40d8a87c47e1024a65a81c044a09a6a16bb7c60405160405180910390a3505050565b6000600260009054906101000a900473ffffffffffffffffffffffffffffffffffffffff16905090565b60006001600084815260200190815260200160002060000160008373ffffffffffffffffffffffffffffffffffffffff1673ffffffffffffffffffffffffffffffffffffffff16815260200190815260200160002060009054906101000a900460ff16905092915050565b6000801b81565b7f000000000000000000000000000000000000000000000000000000000000000081565b61145c611cae565b6000806000806000807f000000000000000000000000000000000000000000000000000000000000000073ffffffffffffffffffffffffffffffffffffffff1663eb02c301886040518263ffffffff1660e01b81526004016114be9190612640565b60e060405180830381865afa1580156114db573d6000803e3d6000fd5b505050506040513d601f19601f820116820180604052508101906114ff9190612797565b96509650965096509650509550801561154d576040517f08c379a00000000000000000000000000000000000000000000000000000000081526004016115449061311d565b60405180910390fd5b83421015611590576040517f08c379a000000000000000000000000000000000000000000000000000000000815260040161158790613189565b60405180910390fd5b3373ffffffffffffffffffffffffffffffffffffffff167f000000000000000000000000000000000000000000000000000000000000000073ffffffffffffffffffffffffffffffffffffffff16636352211e896040518263ffffffff1660e01b81526004016116009190612640565b602060405180830381865afa15801561161d573d6000803e3d6000fd5b505050506040513d601f19601f820116820180604052508101906116419190612839565b73ffffffffffffffffffffffffffffffffffffffff1614611697576040517f08c379a000000000000000000000000000000000000000000000000000000000815260040161168e906128c3565b60405180910390fd5b60008060038111156116ac576116ab612d22565b5b8360038111156116bf576116be612d22565b5b036117a0576116d78685611ee590919063ffffffff16565b90508034101561171c576040517f08c379a0000000000000000000000000000000000000000000000000000000008152600401611713906131f5565b60405180910390fd5b8673ffffffffffffffffffffffffffffffffffffffff1663a9059cbb33866040518363ffffffff1660e01b8152600401611757929190612a27565b6020604051808303816000875af1158015611776573d6000803e3d6000fd5b505050506040513d601f19601f8201168201806040525081019061179a9190612a50565b506118e9565b600260038111156117b4576117b3612d22565b5b8360038111156117c7576117c6612d22565b5b036118e8576117df8685611ee590919063ffffffff16565b90508673ffffffffffffffffffffffffffffffffffffffff166323b872dd3330876040518463ffffffff1660e01b815260040161181e93929190612dfd565b6020604051808303816000875af115801561183d573d6000803e3d6000fd5b505050506040513d601f19601f820116820180604052508101906118619190612a50565b6118a0576040517f08c379a0000000000000000000000000000000000000000000000000000000008152600401611897906130b1565b60405180910390fd5b3373ffffffffffffffffffffffffffffffffffffffff166108fc829081150290604051600060405180830381858888f193505050501580156118e6573d6000803e3d6000fd5b505b5b7f000000000000000000000000000000000000000000000000000000000000000073ffffffffffffffffffffffffffffffffffffffff166374bf6990896040518263ffffffff1660e01b81526004016119429190612640565b600060405180830381600087803b15801561195c57600080fd5b505af1158015611970573d6000803e3d6000fd5b505050503373ffffffffffffffffffffffffffffffffffffffff16887ff30bc0392499ea7de5e644b734d673788ca982c6bb852c80a7c8cd13b583927c86846040516119bd929190613215565b60405180910390a3505050505050506119d4611cfd565b50565b6103e881565b600181565b6119eb82610a39565b6119f481611d07565b6119fe8383611e03565b505050565b612ee081565b611a11611f11565b60008111611a54576040517f08c379a0000000000000000000000000000000000000000000000000000000008152600401611a4b9061328a565b60405180910390fd5b600047905081811015611a9c576040517f08c379a0000000000000000000000000000000000000000000000000000000008152600401611a9390613045565b60405180910390fd5b6000611aa6611394565b73ffffffffffffffffffffffffffffffffffffffff1683604051611ac9906132db565b60006040518083038185875af1925050503d8060008114611b06576040519150601f19603f3d011682016040523d82523d6000602084013e611b0b565b606091505b5050905080611b4f576040517f08c379a0000000000000000000000000000000000000000000000000000000008152600401611b469061333c565b60405180910390fd5b611b57611394565b73ffffffffffffffffffffffffffffffffffffffff167f6148672a948a12b8e0bf92a9338349b9ac890fad62a234abaf0a4da99f62cfcc84604051611b9c9190612640565b60405180910390a2505050565b611bb1611f11565b600073ffffffffffffffffffffffffffffffffffffffff168173ffffffffffffffffffffffffffffffffffffffff1603611c20576040517f08c379a0000000000000000000000000000000000000000000000000000000008152600401611c17906133ce565b60405180910390fd5b611c2981611f8f565b50565b60046020528060005260406000206000915090505481565b60007f01ffc9a7000000000000000000000000000000000000000000000000000000007bffffffffffffffffffffffffffffffffffffffffffffffffffffffff1916827bffffffffffffffffffffffffffffffffffffffffffffffffffffffff1916149050919050565b600260005403611cf3576040517f08c379a0000000000000000000000000000000000000000000000000000000008152600401611cea9061343a565b60405180910390fd5b6002600081905550565b6001600081905550565b611d1881611d13611dfb565b612055565b50565b611d2582826113be565b611df757600180600084815260200190815260200160002060000160008373ffffffffffffffffffffffffffffffffffffffff1673ffffffffffffffffffffffffffffffffffffffff16815260200190815260200160002060006101000a81548160ff021916908315150217905550611d9c611dfb565b73ffffffffffffffffffffffffffffffffffffffff168173ffffffffffffffffffffffffffffffffffffffff16837f2f8788117e7eff1d82e926ec794901d17c78024a50270940304540a733656f0d60405160405180910390a45b5050565b600033905090565b611e0d82826113be565b15611ee15760006001600084815260200190815260200160002060000160008373ffffffffffffffffffffffffffffffffffffffff1673ffffffffffffffffffffffffffffffffffffffff16815260200190815260200160002060006101000a81548160ff021916908315150217905550611e86611dfb565b73ffffffffffffffffffffffffffffffffffffffff168173ffffffffffffffffffffffffffffffffffffffff16837ff6391f5c32d9c69d2a47ea670b442974b53935d1edc7fd64eb21e047a839171b60405160405180910390a45b5050565b60008183611ef3919061345a565b905092915050565b60008183611f0991906134cb565b905092915050565b611f19611dfb565b73ffffffffffffffffffffffffffffffffffffffff16611f37611394565b73ffffffffffffffffffffffffffffffffffffffff1614611f8d576040517f08c379a0000000000000000000000000000000000000000000000000000000008152600401611f8490613548565b60405180910390fd5b565b6000600260009054906101000a900473ffffffffffffffffffffffffffffffffffffffff16905081600260006101000a81548173ffffffffffffffffffffffffffffffffffffffff021916908373ffffffffffffffffffffffffffffffffffffffff1602179055508173ffffffffffffffffffffffffffffffffffffffff168173ffffffffffffffffffffffffffffffffffffffff167f8be0079c531659141344cd1fd0a4f28419497f9722a3daafe3b4186f6b6457e060405160405180910390a35050565b61205f82826113be565b6120d65761206c816120da565b61207a8360001c6020612107565b60405160200161208b929190613671565b6040516020818303038152906040526040517f08c379a00000000000000000000000000000000000000000000000000000000081526004016120cd91906136f5565b60405180910390fd5b5050565b60606121008273ffffffffffffffffffffffffffffffffffffffff16601460ff16612107565b9050919050565b60606000600283600261211a919061345a565b6121249190612baa565b67ffffffffffffffff81111561213d5761213c613717565b5b6040519080825280601f01601f19166020018201604052801561216f5781602001600182028036833780820191505090505b5090507f3000000000000000000000000000000000000000000000000000000000000000816000815181106121a7576121a6613746565b5b60200101907effffffffffffffffffffffffffffffffffffffffffffffffffffffffffffff1916908160001a9053507f78000000000000000000000000000000000000000000000000000000000000008160018151811061220b5761220a613746565b5b60200101907effffffffffffffffffffffffffffffffffffffffffffffffffffffffffffff1916908160001a9053506000600184600261224b919061345a565b6122559190612baa565b90505b60018111156122f5577f3031323334353637383961626364656600000000000000000000000000000000600f86166010811061229757612296613746565b5b1a60f81b8282815181106122ae576122ad613746565b5b60200101907effffffffffffffffffffffffffffffffffffffffffffffffffffffffffffff1916908160001a905350600485901c9450806122ee90613775565b9050612258565b5060008414612339576040517f08c379a0000000000000000000000000000000000000000000000000000000008152600401612330906137ea565b60405180910390fd5b8091505092915050565b600080fd5b60007fffffffff0000000000000000000000000000000000000000000000000000000082169050919050565b61237d81612348565b811461238857600080fd5b50565b60008135905061239a81612374565b92915050565b6000602082840312156123b6576123b5612343565b5b60006123c48482850161238b565b91505092915050565b60008115159050919050565b6123e2816123cd565b82525050565b60006020820190506123fd60008301846123d9565b92915050565b6000819050919050565b61241681612403565b811461242157600080fd5b50565b6000813590506124338161240d565b92915050565b60006020828403121561244f5761244e612343565b5b600061245d84828501612424565b91505092915050565b6000819050919050565b61247981612466565b811461248457600080fd5b50565b60008135905061249681612470565b92915050565b6000602082840312156124b2576124b1612343565b5b60006124c084828501612487565b91505092915050565b6124d281612466565b82525050565b60006020820190506124ed60008301846124c9565b92915050565b600073ffffffffffffffffffffffffffffffffffffffff82169050919050565b600061251e826124f3565b9050919050565b61252e81612513565b811461253957600080fd5b50565b60008135905061254b81612525565b92915050565b6000806040838503121561256857612567612343565b5b600061257685828601612487565b92505060206125878582860161253c565b9150509250929050565b6004811061259e57600080fd5b50565b6000813590506125b081612591565b92915050565b600080600080600060a086880312156125d2576125d1612343565b5b60006125e08882890161253c565b95505060206125f188828901612424565b945050604061260288828901612424565b935050606061261388828901612424565b9250506080612624888289016125a1565b9150509295509295909350565b61263a81612403565b82525050565b60006020820190506126556000830184612631565b92915050565b60006020828403121561267157612670612343565b5b600061267f8482850161253c565b91505092915050565b61269181612513565b82525050565b60006020820190506126ac6000830184612688565b92915050565b6000819050919050565b60006126d76126d26126cd846124f3565b6126b2565b6124f3565b9050919050565b60006126e9826126bc565b9050919050565b60006126fb826126de565b9050919050565b61270b816126f0565b82525050565b60006020820190506127266000830184612702565b92915050565b60008151905061273b81612525565b92915050565b6000815190506127508161240d565b92915050565b60008151905061276581612591565b92915050565b612774816123cd565b811461277f57600080fd5b50565b6000815190506127918161276b565b92915050565b600080600080600080600060e0888a0312156127b6576127b5612343565b5b60006127c48a828b0161272c565b97505060206127d58a828b0161272c565b96505060406127e68a828b01612741565b95505060606127f78a828b01612741565b94505060806128088a828b01612741565b93505060a06128198a828b01612756565b92505060c061282a8a828b01612782565b91505092959891949750929550565b60006020828403121561284f5761284e612343565b5b600061285d8482850161272c565b91505092915050565b600082825260208201905092915050565b7f4e6f7420706f736974696f6e206f776e65720000000000000000000000000000600082015250565b60006128ad601283612866565b91506128b882612877565b602082019050919050565b600060208201905081810360008301526128dc816128a0565b9050919050565b7f5072656d69756d20616c72656164792077697468647261776e00000000000000600082015250565b6000612919601983612866565b9150612924826128e3565b602082019050919050565b600060208201905081810360008301526129488161290c565b9050919050565b7f506f736974696f6e207374696c6c206163746976650000000000000000000000600082015250565b6000612985601583612866565b91506129908261294f565b602082019050919050565b600060208201905081810360008301526129b481612978565b9050919050565b7f4e6f207072656d69756d20746f20776974686472617700000000000000000000600082015250565b60006129f1601683612866565b91506129fc826129bb565b602082019050919050565b60006020820190508181036000830152612a20816129e4565b9050919050565b6000604082019050612a3c6000830185612688565b612a496020830184612631565b9392505050565b600060208284031215612a6657612a65612343565b5b6000612a7484828501612782565b91505092915050565b7f5072656d69756d207472616e73666572206661696c6564000000000000000000600082015250565b6000612ab3601783612866565b9150612abe82612a7d565b602082019050919050565b60006020820190508181036000830152612ae281612aa6565b9050919050565b7f416363657373436f6e74726f6c3a2063616e206f6e6c792072656e6f756e636560008201527f20726f6c657320666f722073656c660000000000000000000000000000000000602082015250565b6000612b45602f83612866565b9150612b5082612ae9565b604082019050919050565b60006020820190508181036000830152612b7481612b38565b9050919050565b7f4e487b7100000000000000000000000000000000000000000000000000000000600052601160045260246000fd5b6000612bb582612403565b9150612bc083612403565b9250828201905080821115612bd857612bd7612b7b565b5b92915050565b7f45787069727920746f6f20736f6f6e0000000000000000000000000000000000600082015250565b6000612c14600f83612866565b9150612c1f82612bde565b602082019050919050565b60006020820190508181036000830152612c4381612c07565b9050919050565b7f45787069727920746f6f20666172000000000000000000000000000000000000600082015250565b6000612c80600e83612866565b9150612c8b82612c4a565b602082019050919050565b60006020820190508181036000830152612caf81612c73565b9050919050565b7f496e76616c696420616d6f756e74000000000000000000000000000000000000600082015250565b6000612cec600e83612866565b9150612cf782612cb6565b602082019050919050565b60006020820190508181036000830152612d1b81612cdf565b9050919050565b7f4e487b7100000000000000000000000000000000000000000000000000000000600052602160045260246000fd5b60048110612d6257612d61612d22565b5b50565b6000819050612d7382612d51565b919050565b6000612d8382612d65565b9050919050565b612d9381612d78565b82525050565b6000606082019050612dae6000830186612631565b612dbb6020830185612631565b612dc86040830184612d8a565b949350505050565b600060208284031215612de657612de5612343565b5b6000612df484828501612741565b91505092915050565b6000606082019050612e126000830186612688565b612e1f6020830185612688565b612e2c6040830184612631565b949350505050565b7f436f6c6c61746572616c207472616e73666572206661696c6564000000000000600082015250565b6000612e6a601a83612866565b9150612e7582612e34565b602082019050919050565b60006020820190508181036000830152612e9981612e5d565b9050919050565b600060e082019050612eb5600083018a612688565b612ec26020830189612688565b612ecf6040830188612688565b612edc6060830187612631565b612ee96080830186612631565b612ef660a0830185612631565b612f0360c0830184612d8a565b98975050505050505050565b600061010082019050612f25600083018b612631565b612f32602083018a612688565b612f3f6040830189612631565b612f4c6060830188612631565b612f596080830187612631565b612f6660a0830186612631565b612f7360c0830185612d8a565b612f8060e0830184612688565b9998505050505050505050565b7f496e76616c696420746f6b656e20616464726573730000000000000000000000600082015250565b6000612fc3601583612866565b9150612fce82612f8d565b602082019050919050565b60006020820190508181036000830152612ff281612fb6565b9050919050565b7f496e73756666696369656e742062616c616e6365000000000000000000000000600082015250565b600061302f601483612866565b915061303a82612ff9565b602082019050919050565b6000602082019050818103600083015261305e81613022565b9050919050565b7f5472616e73666572206661696c65640000000000000000000000000000000000600082015250565b600061309b600f83612866565b91506130a682613065565b602082019050919050565b600060208201905081810360008301526130ca8161308e565b9050919050565b7f506f736974696f6e20616c726561647920736574746c65640000000000000000600082015250565b6000613107601883612866565b9150613112826130d1565b602082019050919050565b60006020820190508181036000830152613136816130fa565b9050919050565b7f4e6f742079657420657870697265640000000000000000000000000000000000600082015250565b6000613173600f83612866565b915061317e8261313d565b602082019050919050565b600060208201905081810360008301526131a281613166565b9050919050565b7f496e73756666696369656e74207061796d656e74000000000000000000000000600082015250565b60006131df601483612866565b91506131ea826131a9565b602082019050919050565b6000602082019050818103600083015261320e816131d2565b9050919050565b600060408201905061322a6000830185612631565b6132376020830184612631565b9392505050565b7f416d6f756e74206d7573742062652067726561746572207468616e2030000000600082015250565b6000613274601d83612866565b915061327f8261323e565b602082019050919050565b600060208201905081810360008301526132a381613267565b9050919050565b600081905092915050565b50565b60006132c56000836132aa565b91506132d0826132b5565b600082019050919050565b60006132e6826132b8565b9150819050919050565b7f455448207472616e73666572206661696c656400000000000000000000000000600082015250565b6000613326601383612866565b9150613331826132f0565b602082019050919050565b6000602082019050818103600083015261335581613319565b9050919050565b7f4f776e61626c653a206e6577206f776e657220697320746865207a65726f206160008201527f6464726573730000000000000000000000000000000000000000000000000000602082015250565b60006133b8602683612866565b91506133c38261335c565b604082019050919050565b600060208201905081810360008301526133e7816133ab565b9050919050565b7f5265656e7472616e637947756172643a207265656e7472616e742063616c6c00600082015250565b6000613424601f83612866565b915061342f826133ee565b602082019050919050565b6000602082019050818103600083015261345381613417565b9050919050565b600061346582612403565b915061347083612403565b925082820261347e81612403565b9150828204841483151761349557613494612b7b565b5b5092915050565b7f4e487b7100000000000000000000000000000000000000000000000000000000600052601260045260246000fd5b60006134d682612403565b91506134e183612403565b9250826134f1576134f061349c565b5b828204905092915050565b7f4f776e61626c653a2063616c6c6572206973206e6f7420746865206f776e6572600082015250565b6000613532602083612866565b915061353d826134fc565b602082019050919050565b6000602082019050818103600083015261356181613525565b9050919050565b600081905092915050565b7f416363657373436f6e74726f6c3a206163636f756e7420000000000000000000600082015250565b60006135a9601783613568565b91506135b482613573565b601782019050919050565b600081519050919050565b60005b838110156135e85780820151818401526020810190506135cd565b60008484015250505050565b60006135ff826135bf565b6136098185613568565b93506136198185602086016135ca565b80840191505092915050565b7f206973206d697373696e6720726f6c6520000000000000000000000000000000600082015250565b600061365b601183613568565b915061366682613625565b601182019050919050565b600061367c8261359c565b915061368882856135f4565b91506136938261364e565b915061369f82846135f4565b91508190509392505050565b6000601f19601f8301169050919050565b60006136c7826135bf565b6136d18185612866565b93506136e18185602086016135ca565b6136ea816136ab565b840191505092915050565b6000602082019050818103600083015261370f81846136bc565b905092915050565b7f4e487b7100000000000000000000000000000000000000000000000000000000600052604160045260246000fd5b7f4e487b7100000000000000000000000000000000000000000000000000000000600052603260045260246000fd5b600061378082612403565b91506000820361379357613792612b7b565b5b600182039050919050565b7f537472696e67733a20686578206c656e67746820696e73756666696369656e74600082015250565b60006137d4602083612866565b91506137df8261379e565b602082019050919050565b60006020820190508181036000830152613803816137c7565b905091905056fea26469706673582212202a481a713eec62918b08861ec712e5599353e892ac8c35124bf3430892c874b464736f6c634300081c0033",
  "linkReferences": {},
  "deployedLinkReferences": {}
}