{
  "_format": "hh-sol-artifact-1",
  "contractName": "OptionPosition",
  "sourceName": "contracts/OptionPosition.sol",
  "abi": [
    {
      "inputs": [],
      "stateMutability": "nonpayable",
      "type": "constructor"
    },
    {
      "anonymous": false,
      "inputs": [
        {
          "indexed": true,
          "internalType": "address",
          "name": "owner",
          "type": "address"
        },
        {
          "indexed": true,
          "internalType": "address",
          "name": "approved",
          "type": "address"
        },
        {
          "indexed": true,
          "internalType": "uint256",
          "name": "tokenId",
          "type": "uint256"
        }
      ],
      "name": "Approval",
      "type": "event"
    },
    {
      "anonymous": false,
      "inputs": [
        {
          "indexed": true,
          "internalType": "address",
          "name": "owner",
          "type": "address"
        },
        {
          "indexed": true,
          "internalType": "address",
          "name": "operator",
          "type": "address"
        },
        {
          "indexed": false,
          "internalType": "bool",
          "name": "approved",
          "type": "bool"
        }
      ],
      "name": "ApprovalForAll",
      "type": "event"
    },
    {
      "anonymous": false,
      "inputs": [
        {
          "indexed": true,
          "internalType": "uint256",
          "name": "tokenId",
          "type": "uint256"
        },
        {
          "indexed": true,
          "internalType": "address",
          "name": "trader",
          "type": "address"
        },
        {
          "indexed": false,
          "internalType": "enum OptionPosition.PositionType",
          "name": "positionType",
          "type": "uint8"
        },
        {
          "indexed": false,
          "internalType": "uint256",
          "name": "amount",
          "type": "uint256"
        },
        {
          "indexed": false,
          "internalType": "uint256",
          "name": "strikePrice",
          "type": "uint256"
        }
      ],
      "name": "PositionOpened",
      "type": "event"
    },
    {
      "anonymous": false,
      "inputs": [
        {
          "indexed": false,
          "internalType": "uint256",
          "name": "oldPrice",
          "type": "uint256"
        },
        {
          "indexed": false,
          "internalType": "uint256",
          "name": "newPrice",
          "type": "uint256"
        },
        {
          "indexed": false,
          "internalType": "address",
          "name": "updater",
          "type": "address"
        }
      ],
      "name": "PriceUpdated",
      "type": "event"
    },
    {
      "anonymous": false,
      "inputs": [
        {
          "indexed": true,
          "internalType": "bytes32",
          "name": "role",
          "type": "bytes32"
        },
        {
          "indexed": true,
          "internalType": "bytes32",
          "name": "previousAdminRole",
          "type": "bytes32"
        },
        {
          "indexed": true,
          "internalType": "bytes32",
          "name": "newAdminRole",
          "type": "bytes32"
        }
      ],
      "name": "RoleAdminChanged",
      "type": "event"
    },
    {
      "anonymous": false,
      "inputs": [
        {
          "indexed": true,
          "internalType": "bytes32",
          "name": "role",
          "type": "bytes32"
        },
        {
          "indexed": true,
          "internalType": "address",
          "name": "account",
          "type": "address"
        },
        {
          "indexed": true,
          "internalType": "address",
          "name": "sender",
          "type": "address"
        }
      ],
      "name": "RoleGranted",
      "type": "event"
    },
    {
      "anonymous": false,
      "inputs": [
        {
          "indexed": true,
          "internalType": "bytes32",
          "name": "role",
          "type": "bytes32"
        },
        {
          "indexed": true,
          "internalType": "address",
          "name": "account",
          "type": "address"
        },
        {
          "indexed": true,
          "internalType": "address",
          "name": "sender",
          "type": "address"
        }
      ],
      "name": "RoleRevoked",
      "type": "event"
    },
    {
      "anonymous": false,
      "inputs": [
        {
          "indexed": true,
          "internalType": "address",
          "name": "from",
          "type": "address"
        },
        {
          "indexed": true,
          "internalType": "address",
          "name": "to",
          "type": "address"
        },
        {
          "indexed": true,
          "internalType": "uint256",
          "name": "tokenId",
          "type": "uint256"
        }
      ],
      "name": "Transfer",
      "type": "event"
    },
    {
      "inputs": [],
      "name": "DEFAULT_ADMIN_ROLE",
      "outputs": [
        {
          "internalType": "bytes32",
          "name": "",
          "type": "bytes32"
        }
      ],
      "stateMutability": "view",
      "type": "function"
    },
    {
      "inputs": [],
      "name": "MINTER_ROLE",
      "outputs": [
        {
          "internalType": "bytes32",
          "name": "",
          "type": "bytes32"
        }
      ],
      "stateMutability": "view",
      "type": "function"
    },
    {
      "inputs": [],
      "name": "PRICE_UPDATER_ROLE",
      "outputs": [
        {
          "internalType": "bytes32",
          "name": "",
          "type": "bytes32"
        }
      ],
      "stateMutability": "view",
      "type": "function"
    },
    {
      "inputs": [
        {
          "internalType": "address",
          "name": "to",
          "type": "address"
        },
        {
          "internalType": "uint256",
          "name": "tokenId",
          "type": "uint256"
        }
      ],
      "name": "approve",
      "outputs": [],
      "stateMutability": "nonpayable",
      "type": "function"
    },
    {
      "inputs": [
        {
          "internalType": "address",
          "name": "owner",
          "type": "address"
        }
      ],
      "name": "balanceOf",
      "outputs": [
        {
          "internalType": "uint256",
          "name": "",
          "type": "uint256"
        }
      ],
      "stateMutability": "view",
      "type": "function"
    },
    {
      "inputs": [
        {
          "internalType": "uint256",
          "name": "amount",
          "type": "uint256"
        },
        {
          "internalType": "uint256",
          "name": "strikePrice",
          "type": "uint256"
        },
        {
          "internalType": "enum OptionPosition.PositionType",
          "name": "positionType",
          "type": "uint8"
        }
      ],
      "name": "calculatePremium",
      "outputs": [
        {
          "internalType": "uint256",
          "name": "",
          "type": "uint256"
        }
      ],
      "stateMutability": "view",
      "type": "function"
    },
    {
      "inputs": [],
      "name": "currentPrice",
      "outputs": [
        {
          "internalType": "uint256",
          "name": "",
          "type": "uint256"
        }
      ],
      "stateMutability": "view",
      "type": "function"
    },
    {
      "inputs": [
        {
          "internalType": "uint256",
          "name": "tokenId",
          "type": "uint256"
        }
      ],
      "name": "getApproved",
      "outputs": [
        {
          "internalType": "address",
          "name": "",
          "type": "address"
        }
      ],
      "stateMutability": "view",
      "type": "function"
    },
    {
      "inputs": [],
      "name": "getCurrentPrice",
      "outputs": [
        {
          "internalType": "uint256",
          "name": "",
          "type": "uint256"
        }
      ],
      "stateMutability": "view",
      "type": "function"
    },
    {
      "inputs": [],
      "name": "getCurrentTimestamp",
      "outputs": [
        {
          "internalType": "uint256",
          "name": "",
          "type": "uint256"
        }
      ],
      "stateMutability": "view",
      "type": "function"
    },
    {
      "inputs": [
        {
          "internalType": "uint256",
          "name": "tokenId",
          "type": "uint256"
        }
      ],
      "name": "getPosition",
      "outputs": [
        {
          "internalType": "address",
          "name": "underlying",
          "type": "address"
        },
        {
          "internalType": "address",
          "name": "strikeAsset",
          "type": "address"
        },
        {
          "internalType": "uint256",
          "name": "strikePrice",
          "type": "uint256"
        },
        {
          "internalType": "uint256",
          "name": "expiry",
          "type": "uint256"
        },
        {
          "internalType": "uint256",
          "name": "amount",
          "type": "uint256"
        },
        {
          "internalType": "enum OptionPosition.PositionType",
          "name": "positionType",
          "type": "uint8"
        },
        {
          "internalType": "bool",
          "name": "isSettled",
          "type": "bool"
        }
      ],
      "stateMutability": "view",
      "type": "function"
    },
    {
      "inputs": [
        {
          "internalType": "bytes32",
          "name": "role",
          "type": "bytes32"
        }
      ],
      "name": "getRoleAdmin",
      "outputs": [
        {
          "internalType": "bytes32",
          "name": "",
          "type": "bytes32"
        }
      ],
      "stateMutability": "view",
      "type": "function"
    },
    {
      "inputs": [
        {
          "internalType": "bytes32",
          "name": "role",
          "type": "bytes32"
        },
        {
          "internalType": "address",
          "name": "account",
          "type": "address"
        }
      ],
      "name": "grantRole",
      "outputs": [],
      "stateMutability": "nonpayable",
      "type": "function"
    },
    {
      "inputs": [
        {
          "internalType": "bytes32",
          "name": "role",
          "type": "bytes32"
        },
        {
          "internalType": "address",
          "name": "account",
          "type": "address"
        }
      ],
      "name": "hasRole",
      "outputs": [
        {
          "internalType": "bool",
          "name": "",
          "type": "bool"
        }
      ],
      "stateMutability": "view",
      "type": "function"
    },
    {
      "inputs": [
        {
          "internalType": "address",
          "name": "owner",
          "type": "address"
        },
        {
          "internalType": "address",
          "name": "operator",
          "type": "address"
        }
      ],
      "name": "isApprovedForAll",
      "outputs": [
        {
          "internalType": "bool",
          "name": "",
          "type": "bool"
        }
      ],
      "stateMutability": "view",
      "type": "function"
    },
    {
      "inputs": [
        {
          "internalType": "address",
          "name": "to",
          "type": "address"
        },
        {
          "internalType": "address",
          "name": "underlying",
          "type": "address"
        },
        {
          "internalType": "address",
          "name": "strikeAsset",
          "type": "address"
        },
        {
          "internalType": "uint256",
          "name": "strikePrice",
          "type": "uint256"
        },
        {
          "internalType": "uint256",
          "name": "expiry",
          "type": "uint256"
        },
        {
          "internalType": "uint256",
          "name": "amount",
          "type": "uint256"
        },
        {
          "internalType": "enum OptionPosition.PositionType",
          "name": "positionType",
          "type": "uint8"
        }
      ],
      "name": "mint",
      "outputs": [
        {
          "internalType": "uint256",
          "name": "",
          "type": "uint256"
        }
      ],
      "stateMutability": "nonpayable",
      "type": "function"
    },
    {
      "inputs": [],
      "name": "name",
      "outputs": [
        {
          "internalType": "string",
          "name": "",
          "type": "string"
        }
      ],
      "stateMutability": "view",
      "type": "function"
    },
    {
      "inputs": [
        {
          "internalType": "uint256",
          "name": "tokenId",
          "type": "uint256"
        }
      ],
      "name": "ownerOf",
      "outputs": [
        {
          "internalType": "address",
          "name": "",
          "type": "address"
        }
      ],
      "stateMutability": "view",
      "type": "function"
    },
    {
      "inputs": [
        {
          "internalType": "uint256",
          "name": "",
          "type": "uint256"
        }
      ],
      "name": "positions",
      "outputs": [
        {
          "internalType": "address",
          "name": "underlying",
          "type": "address"
        },
        {
          "internalType": "address",
          "name": "strikeAsset",
          "type": "address"
        },
        {
          "internalType": "uint256",
          "name": "strikePrice",
          "type": "uint256"
        },
        {
          "internalType": "uint256",
          "name": "expiry",
          "type": "uint256"
        },
        {
          "internalType": "uint256",
          "name": "amount",
          "type": "uint256"
        },
        {
          "internalType": "enum OptionPosition.PositionType",
          "name": "positionType",
          "type": "uint8"
        },
        {
          "internalType": "bool",
          "name": "isSettled",
          "type": "bool"
        }
      ],
      "stateMutability": "view",
      "type": "function"
    },
    {
      "inputs": [
        {
          "internalType": "bytes32",
          "name": "role",
          "type": "bytes32"
        },
        {
          "internalType": "address",
          "name": "account",
          "type": "address"
        }
      ],
      "name": "renounceRole",
      "outputs": [],
      "stateMutability": "nonpayable",
      "type": "function"
    },
    {
      "inputs": [
        {
          "internalType": "bytes32",
          "name": "role",
          "type": "bytes32"
        },
        {
          "internalType": "address",
          "name": "account",
          "type": "address"
        }
      ],
      "name": "revokeRole",
      "outputs": [],
      "stateMutability": "nonpayable",
      "type": "function"
    },
    {
      "inputs": [
        {
          "internalType": "address",
          "name": "from",
          "type": "address"
        },
        {
          "internalType": "address",
          "name": "to",
          "type": "address"
        },
        {
          "internalType": "uint256",
          "name": "tokenId",
          "type": "uint256"
        }
      ],
      "name": "safeTransferFrom",
      "outputs": [],
      "stateMutability": "nonpayable",
      "type": "function"
    },
    {
      "inputs": [
        {
          "internalType": "address",
          "name": "from",
          "type": "address"
        },
        {
          "internalType": "address",
          "name": "to",
          "type": "address"
        },
        {
          "internalType": "uint256",
          "name": "tokenId",
          "type": "uint256"
        },
        {
          "internalType": "bytes",
          "name": "data",
          "type": "bytes"
        }
      ],
      "name": "safeTransferFrom",
      "outputs": [],
      "stateMutability": "nonpayable",
      "type": "function"
    },
    {
      "inputs": [
        {
          "internalType": "address",
          "name": "operator",
          "type": "address"
        },
        {
          "internalType": "bool",
          "name": "approved",
          "type": "bool"
        }
      ],
      "name": "setApprovalForAll",
      "outputs": [],
      "stateMutability": "nonpayable",
      "type": "function"
    },
    {
      "inputs": [
        {
          "internalType": "uint256",
          "name": "tokenId",
          "type": "uint256"
        }
      ],
      "name": "setSettled",
      "outputs": [],
      "stateMutability": "nonpayable",
      "type": "function"
    },
    {
      "inputs": [
        {
          "internalType": "bytes4",
          "name": "interfaceId",
          "type": "bytes4"
        }
      ],
      "name": "supportsInterface",
      "outputs": [
        {
          "internalType": "bool",
          "name": "",
          "type": "bool"
        }
      ],
      "stateMutability": "view",
      "type": "function"
    },
    {
      "inputs": [],
      "name": "symbol",
      "outputs": [
        {
          "internalType": "string",
          "name": "",
          "type": "string"
        }
      ],
      "stateMutability": "view",
      "type": "function"
    },
    {
      "inputs": [
        {
          "internalType": "uint256",
          "name": "tokenId",
          "type": "uint256"
        }
      ],
      "name": "tokenURI",
      "outputs": [
        {
          "internalType": "string",
          "name": "",
          "type": "string"
        }
      ],
      "stateMutability": "view",
      "type": "function"
    },
    {
      "inputs": [
        {
          "internalType": "address",
          "name": "from",
          "type": "address"
        },
        {
          "internalType": "address",
          "name": "to",
          "type": "address"
        },
        {
          "internalType": "uint256",
          "name": "tokenId",
          "type": "uint256"
        }
      ],
      "name": "transferFrom",
      "outputs": [],
      "stateMutability": "nonpayable",
      "type": "function"
    },
    {
      "inputs": [
        {
          "internalType": "uint256",
          "name": "newPrice",
          "type": "uint256"
        }
      ],
      "name": "updatePrice",
      "outputs": [],
      "stateMutability": "nonpayable",
      "type": "function"
    }
  ],
  "bytecode": "0x60806040526107d060075534801561001657600080fd5b506040518060400160405280601081526020017f4f7074696f6e7320506f736974696f6e000000000000000000000000000000008152506040518060400160405280600381526020017f4f505400000000000000000000000000000000000000000000000000000000008152508160009081610092919061049d565b5080600190816100a2919061049d565b5050506100b86000801b336100ed60201b60201c565b6100e87fd96ba01d6560c2ab35f2940dd8d70c5f5fe06236c72674237120515918198fb0336100ed60201b60201c565b61056f565b6100fd82826101da60201b60201c565b6101d65760016006600084815260200190815260200160002060000160008373ffffffffffffffffffffffffffffffffffffffff1673ffffffffffffffffffffffffffffffffffffffff16815260200190815260200160002060006101000a81548160ff02191690831515021790555061017b61024560201b60201c565b73ffffffffffffffffffffffffffffffffffffffff168173ffffffffffffffffffffffffffffffffffffffff16837f2f8788117e7eff1d82e926ec794901d17c78024a50270940304540a733656f0d60405160405180910390a45b5050565b60006006600084815260200190815260200160002060000160008373ffffffffffffffffffffffffffffffffffffffff1673ffffffffffffffffffffffffffffffffffffffff16815260200190815260200160002060009054906101000a900460ff16905092915050565b600033905090565b600081519050919050565b7f4e487b7100000000000000000000000000000000000000000000000000000000600052604160045260246000fd5b7f4e487b7100000000000000000000000000000000000000000000000000000000600052602260045260246000fd5b600060028204905060018216806102ce57607f821691505b6020821081036102e1576102e0610287565b5b50919050565b60008190508160005260206000209050919050565b60006020601f8301049050919050565b600082821b905092915050565b6000600883026103497fffffffffffffffffffffffffffffffffffffffffffffffffffffffffffffffff8261030c565b610353868361030c565b95508019841693508086168417925050509392505050565b6000819050919050565b6000819050919050565b600061039a6103956103908461036b565b610375565b61036b565b9050919050565b6000819050919050565b6103b48361037f565b6103c86103c0826103a1565b848454610319565b825550505050565b600090565b6103dd6103d0565b6103e88184846103ab565b505050565b5b8181101561040c576104016000826103d5565b6001810190506103ee565b5050565b601f82111561045157610422816102e7565b61042b846102fc565b8101602085101561043a578190505b61044e610446856102fc565b8301826103ed565b50505b505050565b600082821c905092915050565b600061047460001984600802610456565b1980831691505092915050565b600061048d8383610463565b9150826002028217905092915050565b6104a68261024d565b67ffffffffffffffff8111156104bf576104be610258565b5b6104c982546102b6565b6104d4828285610410565b600060209050601f83116001811461050757600084156104f5578287015190505b6104ff8582610481565b865550610567565b601f198416610515866102e7565b60005b8281101561053d57848901518255600182019150602085019450602081019050610518565b8683101561055a5784890151610556601f891682610463565b8355505b6001600288020188555050505b505050505050565b613d7b8061057e6000396000f3fe608060405234801561001057600080fd5b50600436106101da5760003560e01c806391d1485411610104578063c87b56dd116100a2578063e985e9c511610071578063e985e9c514610591578063eb02c301146105c1578063eb91d37e146105f7578063fb8d810114610615576101da565b8063c87b56dd146104f7578063d539139314610527578063d547741f14610545578063e596425614610561576101da565b80639d1b464a116100de5780639d1b464a14610483578063a217fddf146104a1578063a22cb465146104bf578063b88d4fde146104db576101da565b806391d14854146103ff57806395d89b411461042f57806399fbab881461044d576101da565b806336568abe1161017c57806370a082311161014b57806370a082311461036757806374bf699014610397578063857a155b146103b35780638d6cc56d146103e3576101da565b806336568abe146102e157806342842e0e146102fd5780636352211e146103195780636c9230db14610349576101da565b8063095ea7b3116101b8578063095ea7b31461025d57806323b872dd14610279578063248a9ca3146102955780632f2ff15d146102c5576101da565b806301ffc9a7146101df57806306fdde031461020f578063081812fc1461022d575b600080fd5b6101f960048036038101906101f49190612956565b610633565b604051610206919061299e565b60405180910390f35b610217610645565b6040516102249190612a49565b60405180910390f35b61024760048036038101906102429190612aa1565b6106d7565b6040516102549190612b0f565b60405180910390f35b61027760048036038101906102729190612b56565b61071d565b005b610293600480360381019061028e9190612b96565b610834565b005b6102af60048036038101906102aa9190612c1f565b610894565b6040516102bc9190612c5b565b60405180910390f35b6102df60048036038101906102da9190612c76565b6108b4565b005b6102fb60048036038101906102f69190612c76565b6108d5565b005b61031760048036038101906103129190612b96565b610958565b005b610333600480360381019061032e9190612aa1565b610978565b6040516103409190612b0f565b60405180910390f35b6103516109fe565b60405161035e9190612cc5565b60405180910390f35b610381600480360381019061037c9190612ce0565b610a06565b60405161038e9190612cc5565b60405180910390f35b6103b160048036038101906103ac9190612aa1565b610abd565b005b6103cd60048036038101906103c89190612d32565b610b1a565b6040516103da9190612cc5565b60405180910390f35b6103fd60048036038101906103f89190612aa1565b610d69565b005b61041960048036038101906104149190612c76565b610e24565b604051610426919061299e565b60405180910390f35b610437610e8f565b6040516104449190612a49565b60405180910390f35b61046760048036038101906104629190612aa1565b610f21565b60405161047a9796959493929190612dfc565b60405180910390f35b61048b610fbd565b6040516104989190612cc5565b60405180910390f35b6104a9610fc3565b6040516104b69190612c5b565b60405180910390f35b6104d960048036038101906104d49190612e97565b610fca565b005b6104f560048036038101906104f0919061300c565b610fe0565b005b610511600480360381019061050c9190612aa1565b611042565b60405161051e9190612a49565b60405180910390f35b61052f6110aa565b60405161053c9190612c5b565b60405180910390f35b61055f600480360381019061055a9190612c76565b6110ce565b005b61057b6004803603810190610576919061308f565b6110ef565b6040516105889190612cc5565b60405180910390f35b6105ab60048036038101906105a69190613131565b611329565b6040516105b8919061299e565b60405180910390f35b6105db60048036038101906105d69190612aa1565b6113bd565b6040516105ee9796959493929190612dfc565b60405180910390f35b6105ff611475565b60405161060c9190612cc5565b60405180910390f35b61061d61147f565b60405161062a9190612c5b565b60405180910390f35b600061063e826114a3565b9050919050565b606060008054610654906131a0565b80601f0160208091040260200160405190810160405280929190818152602001828054610680906131a0565b80156106cd5780601f106106a2576101008083540402835291602001916106cd565b820191906000526020600020905b8154815290600101906020018083116106b057829003601f168201915b5050505050905090565b60006106e28261151d565b6004600083815260200190815260200160002060009054906101000a900473ffffffffffffffffffffffffffffffffffffffff169050919050565b600061072882610978565b90508073ffffffffffffffffffffffffffffffffffffffff168373ffffffffffffffffffffffffffffffffffffffff1603610798576040517f08c379a000000000000000000000000000000000000000000000000000000000815260040161078f90613243565b60405180910390fd5b8073ffffffffffffffffffffffffffffffffffffffff166107b7611568565b73ffffffffffffffffffffffffffffffffffffffff1614806107e657506107e5816107e0611568565b611329565b5b610825576040517f08c379a000000000000000000000000000000000000000000000000000000000815260040161081c906132d5565b60405180910390fd5b61082f8383611570565b505050565b61084561083f611568565b82611629565b610884576040517f08c379a000000000000000000000000000000000000000000000000000000000815260040161087b90613367565b60405180910390fd5b61088f8383836116be565b505050565b600060066000838152602001908152602001600020600101549050919050565b6108bd82610894565b6108c6816119b7565b6108d083836119cb565b505050565b6108dd611568565b73ffffffffffffffffffffffffffffffffffffffff168173ffffffffffffffffffffffffffffffffffffffff161461094a576040517f08c379a0000000000000000000000000000000000000000000000000000000008152600401610941906133f9565b60405180910390fd5b6109548282611aac565b5050565b61097383838360405180602001604052806000815250610fe0565b505050565b60008061098483611b8e565b9050600073ffffffffffffffffffffffffffffffffffffffff168173ffffffffffffffffffffffffffffffffffffffff16036109f5576040517f08c379a00000000000000000000000000000000000000000000000000000000081526004016109ec90613465565b60405180910390fd5b80915050919050565b600042905090565b60008073ffffffffffffffffffffffffffffffffffffffff168273ffffffffffffffffffffffffffffffffffffffff1603610a76576040517f08c379a0000000000000000000000000000000000000000000000000000000008152600401610a6d906134f7565b60405180910390fd5b600360008373ffffffffffffffffffffffffffffffffffffffff1673ffffffffffffffffffffffffffffffffffffffff168152602001908152602001600020549050919050565b7f9f2df0fed2c77648de5860a4cc508cd0818c85b8b8a1ab4ceeef8d981c8956a6610ae7816119b7565b60016008600084815260200190815260200160002060050160016101000a81548160ff0219169083151502179055505050565b60008060006003811115610b3157610b30612d85565b5b836003811115610b4457610b43612d85565b5b1480610b74575060016003811115610b5f57610b5e612d85565b5b836003811115610b7257610b71612d85565b5b145b9050600060075490506000601e90506000601e905060008415610c1a5787841115610bd957610bd26064610bc46050610bb68c89611bcb90919063ffffffff16565b611be190919063ffffffff16565b611bf790919063ffffffff16565b9050610c15565b610c126064610c046014610bf6888d611bcb90919063ffffffff16565b611be190919063ffffffff16565b611bf790919063ffffffff16565b90505b610c9f565b83881115610c6257610c5b6064610c4d6050610c3f888d611bcb90919063ffffffff16565b611be190919063ffffffff16565b611bf790919063ffffffff16565b9050610c9e565b610c9b6064610c8d6014610c7f8c89611bcb90919063ffffffff16565b611be190919063ffffffff16565b611bf790919063ffffffff16565b90505b5b610cfd610cee6064610ce086610cd261016d610cc48b8a611be190919063ffffffff16565b611bf790919063ffffffff16565b611be190919063ffffffff16565b611bf790919063ffffffff16565b82611c0d90919063ffffffff16565b9050610d1a670de0b6b3a764000082611be190919063ffffffff16565b9050610d5b610d3a670de0b6b3a764000086611be190919063ffffffff16565b610d4d8b84611be190919063ffffffff16565b611bf790919063ffffffff16565b955050505050509392505050565b7fd96ba01d6560c2ab35f2940dd8d70c5f5fe06236c72674237120515918198fb0610d93816119b7565b60008211610dd6576040517f08c379a0000000000000000000000000000000000000000000000000000000008152600401610dcd90613563565b60405180910390fd5b60006007549050826007819055507f378b09391f49d01e482ba75312341912ad0652cb8aa8799b6b33b624bd65d9f2818433604051610e1793929190613583565b60405180910390a1505050565b60006006600084815260200190815260200160002060000160008373ffffffffffffffffffffffffffffffffffffffff1673ffffffffffffffffffffffffffffffffffffffff16815260200190815260200160002060009054906101000a900460ff16905092915050565b606060018054610e9e906131a0565b80601f0160208091040260200160405190810160405280929190818152602001828054610eca906131a0565b8015610f175780601f10610eec57610100808354040283529160200191610f17565b820191906000526020600020905b815481529060010190602001808311610efa57829003601f168201915b5050505050905090565b60086020528060005260406000206000915090508060000160009054906101000a900473ffffffffffffffffffffffffffffffffffffffff16908060010160009054906101000a900473ffffffffffffffffffffffffffffffffffffffff16908060020154908060030154908060040154908060050160009054906101000a900460ff16908060050160019054906101000a900460ff16905087565b60075481565b6000801b81565b610fdc610fd5611568565b8383611c23565b5050565b610ff1610feb611568565b83611629565b611030576040517f08c379a000000000000000000000000000000000000000000000000000000000815260040161102790613367565b60405180910390fd5b61103c84848484611d8f565b50505050565b606061104d8261151d565b6000611057611deb565b9050600081511161107757604051806020016040528060008152506110a2565b8061108184611e02565b6040516020016110929291906135f6565b6040516020818303038152906040525b915050919050565b7f9f2df0fed2c77648de5860a4cc508cd0818c85b8b8a1ab4ceeef8d981c8956a681565b6110d782610894565b6110e0816119b7565b6110ea8383611aac565b505050565b60007f9f2df0fed2c77648de5860a4cc508cd0818c85b8b8a1ab4ceeef8d981c8956a661111b816119b7565b60006009600081548092919061113090613649565b9190505590506111408a82611ed0565b6040518060e001604052808a73ffffffffffffffffffffffffffffffffffffffff1681526020018973ffffffffffffffffffffffffffffffffffffffff1681526020018881526020018781526020018681526020018560038111156111a8576111a7612d85565b5b8152602001600015158152506008600083815260200190815260200160002060008201518160000160006101000a81548173ffffffffffffffffffffffffffffffffffffffff021916908373ffffffffffffffffffffffffffffffffffffffff16021790555060208201518160010160006101000a81548173ffffffffffffffffffffffffffffffffffffffff021916908373ffffffffffffffffffffffffffffffffffffffff16021790555060408201518160020155606082015181600301556080820151816004015560a08201518160050160006101000a81548160ff0219169083600381111561129e5761129d612d85565b5b021790555060c08201518160050160016101000a81548160ff0219169083151502179055509050508973ffffffffffffffffffffffffffffffffffffffff16817f4e8ec95275dc6a6ef3202269346e7017d3735499df49f9ea6e74d9ea8727ce3486888b60405161131193929190613691565b60405180910390a38092505050979650505050505050565b6000600560008473ffffffffffffffffffffffffffffffffffffffff1673ffffffffffffffffffffffffffffffffffffffff16815260200190815260200160002060008373ffffffffffffffffffffffffffffffffffffffff1673ffffffffffffffffffffffffffffffffffffffff16815260200190815260200160002060009054906101000a900460ff16905092915050565b600080600080600080600080600860008a815260200190815260200160002090508060000160009054906101000a900473ffffffffffffffffffffffffffffffffffffffff168160010160009054906101000a900473ffffffffffffffffffffffffffffffffffffffff168260020154836003015484600401548560050160009054906101000a900460ff168660050160019054906101000a900460ff16975097509750975097509750975050919395979092949650565b6000600754905090565b7fd96ba01d6560c2ab35f2940dd8d70c5f5fe06236c72674237120515918198fb081565b60007f7965db0b000000000000000000000000000000000000000000000000000000007bffffffffffffffffffffffffffffffffffffffffffffffffffffffff1916827bffffffffffffffffffffffffffffffffffffffffffffffffffffffff19161480611516575061151582611eee565b5b9050919050565b61152681611fd0565b611565576040517f08c379a000000000000000000000000000000000000000000000000000000000815260040161155c90613465565b60405180910390fd5b50565b600033905090565b816004600083815260200190815260200160002060006101000a81548173ffffffffffffffffffffffffffffffffffffffff021916908373ffffffffffffffffffffffffffffffffffffffff160217905550808273ffffffffffffffffffffffffffffffffffffffff166115e383610978565b73ffffffffffffffffffffffffffffffffffffffff167f8c5be1e5ebec7d5bd14f71427d1e84f3dd0314c0f7b2291e5b200ac8c7c3b92560405160405180910390a45050565b60008061163583610978565b90508073ffffffffffffffffffffffffffffffffffffffff168473ffffffffffffffffffffffffffffffffffffffff16148061167757506116768185611329565b5b806116b557508373ffffffffffffffffffffffffffffffffffffffff1661169d846106d7565b73ffffffffffffffffffffffffffffffffffffffff16145b91505092915050565b8273ffffffffffffffffffffffffffffffffffffffff166116de82610978565b73ffffffffffffffffffffffffffffffffffffffff1614611734576040517f08c379a000000000000000000000000000000000000000000000000000000000815260040161172b9061373a565b60405180910390fd5b600073ffffffffffffffffffffffffffffffffffffffff168273ffffffffffffffffffffffffffffffffffffffff16036117a3576040517f08c379a000000000000000000000000000000000000000000000000000000000815260040161179a906137cc565b60405180910390fd5b6117b08383836001612011565b8273ffffffffffffffffffffffffffffffffffffffff166117d082610978565b73ffffffffffffffffffffffffffffffffffffffff1614611826576040517f08c379a000000000000000000000000000000000000000000000000000000000815260040161181d9061373a565b60405180910390fd5b6004600082815260200190815260200160002060006101000a81549073ffffffffffffffffffffffffffffffffffffffff02191690556001600360008573ffffffffffffffffffffffffffffffffffffffff1673ffffffffffffffffffffffffffffffffffffffff168152602001908152602001600020600082825403925050819055506001600360008473ffffffffffffffffffffffffffffffffffffffff1673ffffffffffffffffffffffffffffffffffffffff16815260200190815260200160002060008282540192505081905550816002600083815260200190815260200160002060006101000a81548173ffffffffffffffffffffffffffffffffffffffff021916908373ffffffffffffffffffffffffffffffffffffffff160217905550808273ffffffffffffffffffffffffffffffffffffffff168473ffffffffffffffffffffffffffffffffffffffff167fddf252ad1be2c89b69c2b068fc378daa952ba7f163c4a11628f55a4df523b3ef60405160405180910390a46119b28383836001612017565b505050565b6119c8816119c3611568565b61201d565b50565b6119d58282610e24565b611aa85760016006600084815260200190815260200160002060000160008373ffffffffffffffffffffffffffffffffffffffff1673ffffffffffffffffffffffffffffffffffffffff16815260200190815260200160002060006101000a81548160ff021916908315150217905550611a4d611568565b73ffffffffffffffffffffffffffffffffffffffff168173ffffffffffffffffffffffffffffffffffffffff16837f2f8788117e7eff1d82e926ec794901d17c78024a50270940304540a733656f0d60405160405180910390a45b5050565b611ab68282610e24565b15611b8a5760006006600084815260200190815260200160002060000160008373ffffffffffffffffffffffffffffffffffffffff1673ffffffffffffffffffffffffffffffffffffffff16815260200190815260200160002060006101000a81548160ff021916908315150217905550611b2f611568565b73ffffffffffffffffffffffffffffffffffffffff168173ffffffffffffffffffffffffffffffffffffffff16837ff6391f5c32d9c69d2a47ea670b442974b53935d1edc7fd64eb21e047a839171b60405160405180910390a45b5050565b60006002600083815260200190815260200160002060009054906101000a900473ffffffffffffffffffffffffffffffffffffffff169050919050565b60008183611bd991906137ec565b905092915050565b60008183611bef9190613820565b905092915050565b60008183611c059190613891565b905092915050565b60008183611c1b91906138c2565b905092915050565b8173ffffffffffffffffffffffffffffffffffffffff168373ffffffffffffffffffffffffffffffffffffffff1603611c91576040517f08c379a0000000000000000000000000000000000000000000000000000000008152600401611c8890613942565b60405180910390fd5b80600560008573ffffffffffffffffffffffffffffffffffffffff1673ffffffffffffffffffffffffffffffffffffffff16815260200190815260200160002060008473ffffffffffffffffffffffffffffffffffffffff1673ffffffffffffffffffffffffffffffffffffffff16815260200190815260200160002060006101000a81548160ff0219169083151502179055508173ffffffffffffffffffffffffffffffffffffffff168373ffffffffffffffffffffffffffffffffffffffff167f17307eab39ab6107e8899845ad3d59bd9653f200f220920489ca2b5937696c3183604051611d82919061299e565b60405180910390a3505050565b611d9a8484846116be565b611da6848484846120a2565b611de5576040517f08c379a0000000000000000000000000000000000000000000000000000000008152600401611ddc906139d4565b60405180910390fd5b50505050565b606060405180602001604052806000815250905090565b606060006001611e1184612229565b01905060008167ffffffffffffffff811115611e3057611e2f612ee1565b5b6040519080825280601f01601f191660200182016040528015611e625781602001600182028036833780820191505090505b509050600082602001820190505b600115611ec5578080600190039150507f3031323334353637383961626364656600000000000000000000000000000000600a86061a8153600a8581611eb957611eb8613862565b5b04945060008503611e70575b819350505050919050565b611eea82826040518060200160405280600081525061237c565b5050565b60007f80ac58cd000000000000000000000000000000000000000000000000000000007bffffffffffffffffffffffffffffffffffffffffffffffffffffffff1916827bffffffffffffffffffffffffffffffffffffffffffffffffffffffff19161480611fb957507f5b5e139f000000000000000000000000000000000000000000000000000000007bffffffffffffffffffffffffffffffffffffffffffffffffffffffff1916827bffffffffffffffffffffffffffffffffffffffffffffffffffffffff1916145b80611fc95750611fc8826123d7565b5b9050919050565b60008073ffffffffffffffffffffffffffffffffffffffff16611ff283611b8e565b73ffffffffffffffffffffffffffffffffffffffff1614159050919050565b50505050565b50505050565b6120278282610e24565b61209e5761203481612441565b6120428360001c602061246e565b604051602001612053929190613a8c565b6040516020818303038152906040526040517f08c379a00000000000000000000000000000000000000000000000000000000081526004016120959190612a49565b60405180910390fd5b5050565b60006120c38473ffffffffffffffffffffffffffffffffffffffff166126aa565b1561221c578373ffffffffffffffffffffffffffffffffffffffff1663150b7a026120ec611568565b8786866040518563ffffffff1660e01b815260040161210e9493929190613b1b565b6020604051808303816000875af192505050801561214a57506040513d601f19601f820116820180604052508101906121479190613b7c565b60015b6121cc573d806000811461217a576040519150601f19603f3d011682016040523d82523d6000602084013e61217f565b606091505b5060008151036121c4576040517f08c379a00000000000000000000000000000000000000000000000000000000081526004016121bb906139d4565b60405180910390fd5b805181602001fd5b63150b7a0260e01b7bffffffffffffffffffffffffffffffffffffffffffffffffffffffff1916817bffffffffffffffffffffffffffffffffffffffffffffffffffffffff191614915050612221565b600190505b949350505050565b600080600090507a184f03e93ff9f4daa797ed6e38ed64bf6a1f0100000000000000008310612287577a184f03e93ff9f4daa797ed6e38ed64bf6a1f010000000000000000838161227d5761227c613862565b5b0492506040810190505b6d04ee2d6d415b85acef810000000083106122c4576d04ee2d6d415b85acef810000000083816122ba576122b9613862565b5b0492506020810190505b662386f26fc1000083106122f357662386f26fc1000083816122e9576122e8613862565b5b0492506010810190505b6305f5e100831061231c576305f5e100838161231257612311613862565b5b0492506008810190505b612710831061234157612710838161233757612336613862565b5b0492506004810190505b60648310612364576064838161235a57612359613862565b5b0492506002810190505b600a8310612373576001810190505b80915050919050565b61238683836126cd565b61239360008484846120a2565b6123d2576040517f08c379a00000000000000000000000000000000000000000000000000000000081526004016123c9906139d4565b60405180910390fd5b505050565b60007f01ffc9a7000000000000000000000000000000000000000000000000000000007bffffffffffffffffffffffffffffffffffffffffffffffffffffffff1916827bffffffffffffffffffffffffffffffffffffffffffffffffffffffff1916149050919050565b60606124678273ffffffffffffffffffffffffffffffffffffffff16601460ff1661246e565b9050919050565b6060600060028360026124819190613820565b61248b91906138c2565b67ffffffffffffffff8111156124a4576124a3612ee1565b5b6040519080825280601f01601f1916602001820160405280156124d65781602001600182028036833780820191505090505b5090507f30000000000000000000000000000000000000000000000000000000000000008160008151811061250e5761250d613ba9565b5b60200101907effffffffffffffffffffffffffffffffffffffffffffffffffffffffffffff1916908160001a9053507f78000000000000000000000000000000000000000000000000000000000000008160018151811061257257612571613ba9565b5b60200101907effffffffffffffffffffffffffffffffffffffffffffffffffffffffffffff1916908160001a905350600060018460026125b29190613820565b6125bc91906138c2565b90505b600181111561265c577f3031323334353637383961626364656600000000000000000000000000000000600f8616601081106125fe576125fd613ba9565b5b1a60f81b82828151811061261557612614613ba9565b5b60200101907effffffffffffffffffffffffffffffffffffffffffffffffffffffffffffff1916908160001a905350600485901c94508061265590613bd8565b90506125bf565b50600084146126a0576040517f08c379a000000000000000000000000000000000000000000000000000000000815260040161269790613c4d565b60405180910390fd5b8091505092915050565b6000808273ffffffffffffffffffffffffffffffffffffffff163b119050919050565b600073ffffffffffffffffffffffffffffffffffffffff168273ffffffffffffffffffffffffffffffffffffffff160361273c576040517f08c379a000000000000000000000000000000000000000000000000000000000815260040161273390613cb9565b60405180910390fd5b61274581611fd0565b15612785576040517f08c379a000000000000000000000000000000000000000000000000000000000815260040161277c90613d25565b60405180910390fd5b612793600083836001612011565b61279c81611fd0565b156127dc576040517f08c379a00000000000000000000000000000000000000000000000000000000081526004016127d390613d25565b60405180910390fd5b6001600360008473ffffffffffffffffffffffffffffffffffffffff1673ffffffffffffffffffffffffffffffffffffffff16815260200190815260200160002060008282540192505081905550816002600083815260200190815260200160002060006101000a81548173ffffffffffffffffffffffffffffffffffffffff021916908373ffffffffffffffffffffffffffffffffffffffff160217905550808273ffffffffffffffffffffffffffffffffffffffff16600073ffffffffffffffffffffffffffffffffffffffff167fddf252ad1be2c89b69c2b068fc378daa952ba7f163c4a11628f55a4df523b3ef60405160405180910390a46128e6600083836001612017565b5050565b6000604051905090565b600080fd5b600080fd5b60007fffffffff0000000000000000000000000000000000000000000000000000000082169050919050565b612933816128fe565b811461293e57600080fd5b50565b6000813590506129508161292a565b92915050565b60006020828403121561296c5761296b6128f4565b5b600061297a84828501612941565b91505092915050565b60008115159050919050565b61299881612983565b82525050565b60006020820190506129b3600083018461298f565b92915050565b600081519050919050565b600082825260208201905092915050565b60005b838110156129f35780820151818401526020810190506129d8565b60008484015250505050565b6000601f19601f8301169050919050565b6000612a1b826129b9565b612a2581856129c4565b9350612a358185602086016129d5565b612a3e816129ff565b840191505092915050565b60006020820190508181036000830152612a638184612a10565b905092915050565b6000819050919050565b612a7e81612a6b565b8114612a8957600080fd5b50565b600081359050612a9b81612a75565b92915050565b600060208284031215612ab757612ab66128f4565b5b6000612ac584828501612a8c565b91505092915050565b600073ffffffffffffffffffffffffffffffffffffffff82169050919050565b6000612af982612ace565b9050919050565b612b0981612aee565b82525050565b6000602082019050612b246000830184612b00565b92915050565b612b3381612aee565b8114612b3e57600080fd5b50565b600081359050612b5081612b2a565b92915050565b60008060408385031215612b6d57612b6c6128f4565b5b6000612b7b85828601612b41565b9250506020612b8c85828601612a8c565b9150509250929050565b600080600060608486031215612baf57612bae6128f4565b5b6000612bbd86828701612b41565b9350506020612bce86828701612b41565b9250506040612bdf86828701612a8c565b9150509250925092565b6000819050919050565b612bfc81612be9565b8114612c0757600080fd5b50565b600081359050612c1981612bf3565b92915050565b600060208284031215612c3557612c346128f4565b5b6000612c4384828501612c0a565b91505092915050565b612c5581612be9565b82525050565b6000602082019050612c706000830184612c4c565b92915050565b60008060408385031215612c8d57612c8c6128f4565b5b6000612c9b85828601612c0a565b9250506020612cac85828601612b41565b9150509250929050565b612cbf81612a6b565b82525050565b6000602082019050612cda6000830184612cb6565b92915050565b600060208284031215612cf657612cf56128f4565b5b6000612d0484828501612b41565b91505092915050565b60048110612d1a57600080fd5b50565b600081359050612d2c81612d0d565b92915050565b600080600060608486031215612d4b57612d4a6128f4565b5b6000612d5986828701612a8c565b9350506020612d6a86828701612a8c565b9250506040612d7b86828701612d1d565b9150509250925092565b7f4e487b7100000000000000000000000000000000000000000000000000000000600052602160045260246000fd5b60048110612dc557612dc4612d85565b5b50565b6000819050612dd682612db4565b919050565b6000612de682612dc8565b9050919050565b612df681612ddb565b82525050565b600060e082019050612e11600083018a612b00565b612e1e6020830189612b00565b612e2b6040830188612cb6565b612e386060830187612cb6565b612e456080830186612cb6565b612e5260a0830185612ded565b612e5f60c083018461298f565b98975050505050505050565b612e7481612983565b8114612e7f57600080fd5b50565b600081359050612e9181612e6b565b92915050565b60008060408385031215612eae57612ead6128f4565b5b6000612ebc85828601612b41565b9250506020612ecd85828601612e82565b9150509250929050565b600080fd5b600080fd5b7f4e487b7100000000000000000000000000000000000000000000000000000000600052604160045260246000fd5b612f19826129ff565b810181811067ffffffffffffffff82111715612f3857612f37612ee1565b5b80604052505050565b6000612f4b6128ea565b9050612f578282612f10565b919050565b600067ffffffffffffffff821115612f7757612f76612ee1565b5b612f80826129ff565b9050602081019050919050565b82818337600083830152505050565b6000612faf612faa84612f5c565b612f41565b905082815260208101848484011115612fcb57612fca612edc565b5b612fd6848285612f8d565b509392505050565b600082601f830112612ff357612ff2612ed7565b5b8135613003848260208601612f9c565b91505092915050565b60008060008060808587031215613026576130256128f4565b5b600061303487828801612b41565b945050602061304587828801612b41565b935050604061305687828801612a8c565b925050606085013567ffffffffffffffff811115613077576130766128f9565b5b61308387828801612fde565b91505092959194509250565b600080600080600080600060e0888a0312156130ae576130ad6128f4565b5b60006130bc8a828b01612b41565b97505060206130cd8a828b01612b41565b96505060406130de8a828b01612b41565b95505060606130ef8a828b01612a8c565b94505060806131008a828b01612a8c565b93505060a06131118a828b01612a8c565b92505060c06131228a828b01612d1d565b91505092959891949750929550565b60008060408385031215613148576131476128f4565b5b600061315685828601612b41565b925050602061316785828601612b41565b9150509250929050565b7f4e487b7100000000000000000000000000000000000000000000000000000000600052602260045260246000fd5b600060028204905060018216806131b857607f821691505b6020821081036131cb576131ca613171565b5b50919050565b7f4552433732313a20617070726f76616c20746f2063757272656e74206f776e6560008201527f7200000000000000000000000000000000000000000000000000000000000000602082015250565b600061322d6021836129c4565b9150613238826131d1565b604082019050919050565b6000602082019050818103600083015261325c81613220565b9050919050565b7f4552433732313a20617070726f76652063616c6c6572206973206e6f7420746f60008201527f6b656e206f776e6572206f7220617070726f76656420666f7220616c6c000000602082015250565b60006132bf603d836129c4565b91506132ca82613263565b604082019050919050565b600060208201905081810360008301526132ee816132b2565b9050919050565b7f4552433732313a2063616c6c6572206973206e6f7420746f6b656e206f776e6560008201527f72206f7220617070726f76656400000000000000000000000000000000000000602082015250565b6000613351602d836129c4565b915061335c826132f5565b604082019050919050565b6000602082019050818103600083015261338081613344565b9050919050565b7f416363657373436f6e74726f6c3a2063616e206f6e6c792072656e6f756e636560008201527f20726f6c657320666f722073656c660000000000000000000000000000000000602082015250565b60006133e3602f836129c4565b91506133ee82613387565b604082019050919050565b60006020820190508181036000830152613412816133d6565b9050919050565b7f4552433732313a20696e76616c696420746f6b656e2049440000000000000000600082015250565b600061344f6018836129c4565b915061345a82613419565b602082019050919050565b6000602082019050818103600083015261347e81613442565b9050919050565b7f4552433732313a2061646472657373207a65726f206973206e6f74206120766160008201527f6c6964206f776e65720000000000000000000000000000000000000000000000602082015250565b60006134e16029836129c4565b91506134ec82613485565b604082019050919050565b60006020820190508181036000830152613510816134d4565b9050919050565b7f5072696365206d7573742062652067726561746572207468616e203000000000600082015250565b600061354d601c836129c4565b915061355882613517565b602082019050919050565b6000602082019050818103600083015261357c81613540565b9050919050565b60006060820190506135986000830186612cb6565b6135a56020830185612cb6565b6135b26040830184612b00565b949350505050565b600081905092915050565b60006135d0826129b9565b6135da81856135ba565b93506135ea8185602086016129d5565b80840191505092915050565b600061360282856135c5565b915061360e82846135c5565b91508190509392505050565b7f4e487b7100000000000000000000000000000000000000000000000000000000600052601160045260246000fd5b600061365482612a6b565b91507fffffffffffffffffffffffffffffffffffffffffffffffffffffffffffffffff82036136865761368561361a565b5b600182019050919050565b60006060820190506136a66000830186612ded565b6136b36020830185612cb6565b6136c06040830184612cb6565b949350505050565b7f4552433732313a207472616e736665722066726f6d20696e636f72726563742060008201527f6f776e6572000000000000000000000000000000000000000000000000000000602082015250565b60006137246025836129c4565b915061372f826136c8565b604082019050919050565b6000602082019050818103600083015261375381613717565b9050919050565b7f4552433732313a207472616e7366657220746f20746865207a65726f2061646460008201527f7265737300000000000000000000000000000000000000000000000000000000602082015250565b60006137b66024836129c4565b91506137c18261375a565b604082019050919050565b600060208201905081810360008301526137e5816137a9565b9050919050565b60006137f782612a6b565b915061380283612a6b565b925082820390508181111561381a5761381961361a565b5b92915050565b600061382b82612a6b565b915061383683612a6b565b925082820261384481612a6b565b9150828204841483151761385b5761385a61361a565b5b5092915050565b7f4e487b7100000000000000000000000000000000000000000000000000000000600052601260045260246000fd5b600061389c82612a6b565b91506138a783612a6b565b9250826138b7576138b6613862565b5b828204905092915050565b60006138cd82612a6b565b91506138d883612a6b565b92508282019050808211156138f0576138ef61361a565b5b92915050565b7f4552433732313a20617070726f766520746f2063616c6c657200000000000000600082015250565b600061392c6019836129c4565b9150613937826138f6565b602082019050919050565b6000602082019050818103600083015261395b8161391f565b9050919050565b7f4552433732313a207472616e7366657220746f206e6f6e20455243373231526560008201527f63656976657220696d706c656d656e7465720000000000000000000000000000602082015250565b60006139be6032836129c4565b91506139c982613962565b604082019050919050565b600060208201905081810360008301526139ed816139b1565b9050919050565b7f416363657373436f6e74726f6c3a206163636f756e7420000000000000000000600082015250565b6000613a2a6017836135ba565b9150613a35826139f4565b601782019050919050565b7f206973206d697373696e6720726f6c6520000000000000000000000000000000600082015250565b6000613a766011836135ba565b9150613a8182613a40565b601182019050919050565b6000613a9782613a1d565b9150613aa382856135c5565b9150613aae82613a69565b9150613aba82846135c5565b91508190509392505050565b600081519050919050565b600082825260208201905092915050565b6000613aed82613ac6565b613af78185613ad1565b9350613b078185602086016129d5565b613b10816129ff565b840191505092915050565b6000608082019050613b306000830187612b00565b613b3d6020830186612b00565b613b4a6040830185612cb6565b8181036060830152613b5c8184613ae2565b905095945050505050565b600081519050613b768161292a565b92915050565b600060208284031215613b9257613b916128f4565b5b6000613ba084828501613b67565b91505092915050565b7f4e487b7100000000000000000000000000000000000000000000000000000000600052603260045260246000fd5b6000613be382612a6b565b915060008203613bf657613bf561361a565b5b600182039050919050565b7f537472696e67733a20686578206c656e67746820696e73756666696369656e74600082015250565b6000613c376020836129c4565b9150613c4282613c01565b602082019050919050565b60006020820190508181036000830152613c6681613c2a565b9050919050565b7f4552433732313a206d696e7420746f20746865207a65726f2061646472657373600082015250565b6000613ca36020836129c4565b9150613cae82613c6d565b602082019050919050565b60006020820190508181036000830152613cd281613c96565b9050919050565b7f4552433732313a20746f6b656e20616c7265616479206d696e74656400000000600082015250565b6000613d0f601c836129c4565b9150613d1a82613cd9565b602082019050919050565b60006020820190508181036000830152613d3e81613d02565b905091905056fea26469706673582212205823ae53da308328b1e93d6453804f1f9254e080949bfc3a1d86c5a12f3b4df964736f6c634300081c0033",
  "linkReferences": {},
  "deployedLinkReferences": {}
}