{
  "_format": "hh-sol-artifact-1",
  "contractName": "OptionsContract",
  "sourceName": "contracts/OptionsContract.sol",
  "abi": [
    {
      "inputs": [
        {
          "internalType": "address",
          "name": "_depositContract",
          "type": "address"
        },
        {
          "internalType": "address",
          "name": "_priceFeed",
          "type": "address"
        }
      ],
      "stateMutability": "nonpayable",
      "type": "constructor"
    },
    {
      "inputs": [],
      "name": "ReentrancyGuardReentrantCall",
      "type": "error"
    },
    {
      "anonymous": false,
      "inputs": [
        {
          "indexed": true,
          "internalType": "uint256",
          "name": "optionId",
          "type": "uint256"
        }
      ],
      "name": "OptionCancelled",
      "type": "event"
    },
    {
      "anonymous": false,
      "inputs": [
        {
          "indexed": true,
          "internalType": "uint256",
          "name": "optionId",
          "type": "uint256"
        },
        {
          "indexed": true,
          "internalType": "address",
          "name": "buyer",
          "type": "address"
        },
        {
          "indexed": false,
          "internalType": "uint256",
          "name": "strikePrice",
          "type": "uint256"
        },
        {
          "indexed": false,
          "internalType": "uint256",
          "name": "premium",
          "type": "uint256"
        },
        {
          "indexed": false,
          "internalType": "uint256",
          "name": "expirationTime",
          "type": "uint256"
        },
        {
          "indexed": false,
          "internalType": "bool",
          "name": "isCall",
          "type": "bool"
        }
      ],
      "name": "OptionCreated",
      "type": "event"
    },
    {
      "anonymous": false,
      "inputs": [
        {
          "indexed": true,
          "internalType": "uint256",
          "name": "optionId",
          "type": "uint256"
        }
      ],
      "name": "OptionExecuted",
      "type": "event"
    },
    {
      "inputs": [
        {
          "internalType": "uint256",
          "name": "optionId",
          "type": "uint256"
        }
      ],
      "name": "cancelOption",
      "outputs": [],
      "stateMutability": "nonpayable",
      "type": "function"
    },
    {
      "inputs": [
        {
          "internalType": "uint256",
          "name": "strikePrice",
          "type": "uint256"
        },
        {
          "internalType": "uint256",
          "name": "premium",
          "type": "uint256"
        },
        {
          "internalType": "uint256",
          "name": "duration",
          "type": "uint256"
        },
        {
          "internalType": "bool",
          "name": "isCall",
          "type": "bool"
        }
      ],
      "name": "createOption",
      "outputs": [
        {
          "internalType": "uint256",
          "name": "",
          "type": "uint256"
        }
      ],
      "stateMutability": "nonpayable",
      "type": "function"
    },
    {
      "inputs": [],
      "name": "depositContract",
      "outputs": [
        {
          "internalType": "contract DepositContract",
          "name": "",
          "type": "address"
        }
      ],
      "stateMutability": "view",
      "type": "function"
    },
    {
      "inputs": [
        {
          "internalType": "uint256",
          "name": "optionId",
          "type": "uint256"
        }
      ],
      "name": "executeOption",
      "outputs": [],
      "stateMutability": "nonpayable",
      "type": "function"
    },
    {
      "inputs": [
        {
          "internalType": "uint256",
          "name": "optionId",
          "type": "uint256"
        }
      ],
      "name": "getOption",
      "outputs": [
        {
          "components": [
            {
              "internalType": "uint256",
              "name": "strikePrice",
              "type": "uint256"
            },
            {
              "internalType": "uint256",
              "name": "premium",
              "type": "uint256"
            },
            {
              "internalType": "uint256",
              "name": "expirationTime",
              "type": "uint256"
            },
            {
              "internalType": "address",
              "name": "buyer",
              "type": "address"
            },
            {
              "internalType": "bool",
              "name": "isCall",
              "type": "bool"
            },
            {
              "internalType": "bool",
              "name": "isExecuted",
              "type": "bool"
            },
            {
              "internalType": "bool",
              "name": "isCancelled",
              "type": "bool"
            }
          ],
          "internalType": "struct OptionsContract.Option",
          "name": "",
          "type": "tuple"
        }
      ],
      "stateMutability": "view",
      "type": "function"
    },
    {
      "inputs": [],
      "name": "nextOptionId",
      "outputs": [
        {
          "internalType": "uint256",
          "name": "",
          "type": "uint256"
        }
      ],
      "stateMutability": "view",
      "type": "function"
    },
    {
      "inputs": [
        {
          "internalType": "uint256",
          "name": "",
          "type": "uint256"
        }
      ],
      "name": "options",
      "outputs": [
        {
          "internalType": "uint256",
          "name": "strikePrice",
          "type": "uint256"
        },
        {
          "internalType": "uint256",
          "name": "premium",
          "type": "uint256"
        },
        {
          "internalType": "uint256",
          "name": "expirationTime",
          "type": "uint256"
        },
        {
          "internalType": "address",
          "name": "buyer",
          "type": "address"
        },
        {
          "internalType": "bool",
          "name": "isCall",
          "type": "bool"
        },
        {
          "internalType": "bool",
          "name": "isExecuted",
          "type": "bool"
        },
        {
          "internalType": "bool",
          "name": "isCancelled",
          "type": "bool"
        }
      ],
      "stateMutability": "view",
      "type": "function"
    },
    {
      "inputs": [],
      "name": "priceFeed",
      "outputs": [
        {
          "internalType": "contract AggregatorV3Interface",
          "name": "",
          "type": "address"
        }
      ],
      "stateMutability": "view",
      "type": "function"
    }
  ],
  "bytecode": "0x60806040523480156200001157600080fd5b506040516200180a3803806200180a833981810160405281019062000037919062000133565b600160008190555081600160006101000a81548173ffffffffffffffffffffffffffffffffffffffff021916908373ffffffffffffffffffffffffffffffffffffffff16021790555080600260006101000a81548173ffffffffffffffffffffffffffffffffffffffff021916908373ffffffffffffffffffffffffffffffffffffffff16021790555050506200017a565b600080fd5b600073ffffffffffffffffffffffffffffffffffffffff82169050919050565b6000620000fb82620000ce565b9050919050565b6200010d81620000ee565b81146200011957600080fd5b50565b6000815190506200012d8162000102565b92915050565b600080604083850312156200014d576200014c620000c9565b5b60006200015d858286016200011c565b925050602062000170858286016200011c565b9150509250929050565b611680806200018a6000396000f3fe608060405234801561001057600080fd5b50600436106100885760003560e01c80639215abb01161005b5780639215abb01461012d578063de6bf6351461014b578063e94ad65b14610167578063f9c95a661461018557610088565b80631ce5e9a61461008d57806337fb409c146100bd578063409e2205146100d9578063741bef1a1461010f575b600080fd5b6100a760048036038101906100a29190610c80565b6101b5565b6040516100b49190610da6565b60405180910390f35b6100d760048036038101906100d29190610c80565b6102a7565b005b6100f360048036038101906100ee9190610c80565b6105e2565b6040516101069796959493929190610dee565b60405180910390f35b61011761066b565b6040516101249190610ebc565b60405180910390f35b610135610691565b6040516101429190610ed7565b60405180910390f35b61016560048036038101906101609190610c80565b610697565b005b61016f610842565b60405161017c9190610f13565b60405180910390f35b61019f600480360381019061019a9190610f5a565b610868565b6040516101ac9190610ed7565b60405180910390f35b6101bd610bec565b600360008381526020019081526020016000206040518060e00160405290816000820154815260200160018201548152602001600282015481526020016003820160009054906101000a900473ffffffffffffffffffffffffffffffffffffffff1673ffffffffffffffffffffffffffffffffffffffff1673ffffffffffffffffffffffffffffffffffffffff1681526020016003820160149054906101000a900460ff161515151581526020016003820160159054906101000a900460ff161515151581526020016003820160169054906101000a900460ff1615151515815250509050919050565b6102af610b9c565b60006003600083815260200190815260200160002090508060030160009054906101000a900473ffffffffffffffffffffffffffffffffffffffff1673ffffffffffffffffffffffffffffffffffffffff163373ffffffffffffffffffffffffffffffffffffffff1614610358576040517f08c379a000000000000000000000000000000000000000000000000000000000815260040161034f9061101e565b60405180910390fd5b8060030160159054906101000a900460ff16156103aa576040517f08c379a00000000000000000000000000000000000000000000000000000000081526004016103a19061108a565b60405180910390fd5b8060030160169054906101000a900460ff16156103fc576040517f08c379a00000000000000000000000000000000000000000000000000000000081526004016103f3906110f6565b60405180910390fd5b8060020154421115610443576040517f08c379a000000000000000000000000000000000000000000000000000000000815260040161043a90611162565b60405180910390fd5b6000600260009054906101000a900473ffffffffffffffffffffffffffffffffffffffff1673ffffffffffffffffffffffffffffffffffffffff1663feaf968c6040518163ffffffff1660e01b815260040160a060405180830381865afa1580156104b2573d6000803e3d6000fd5b505050506040513d601f19601f820116820180604052508101906104d6919061120f565b50505091505060008190508260030160149054906101000a900460ff1615610543578260000154811161053e576040517f08c379a0000000000000000000000000000000000000000000000000000000008152600401610535906112d6565b60405180910390fd5b61058a565b82600001548110610589576040517f08c379a000000000000000000000000000000000000000000000000000000000815260040161058090611342565b60405180910390fd5b5b60018360030160156101000a81548160ff021916908315150217905550837f71bef4a8469a3b83c64a11128d95ac7253a399544da7d5f50e8ef4a32f3fac3260405160405180910390a25050506105df610be2565b50565b60036020528060005260406000206000915090508060000154908060010154908060020154908060030160009054906101000a900473ffffffffffffffffffffffffffffffffffffffff16908060030160149054906101000a900460ff16908060030160159054906101000a900460ff16908060030160169054906101000a900460ff16905087565b600260009054906101000a900473ffffffffffffffffffffffffffffffffffffffff1681565b60045481565b61069f610b9c565b60006003600083815260200190815260200160002090508060030160009054906101000a900473ffffffffffffffffffffffffffffffffffffffff1673ffffffffffffffffffffffffffffffffffffffff163373ffffffffffffffffffffffffffffffffffffffff1614610748576040517f08c379a000000000000000000000000000000000000000000000000000000000815260040161073f9061101e565b60405180910390fd5b8060030160159054906101000a900460ff161561079a576040517f08c379a00000000000000000000000000000000000000000000000000000000081526004016107919061108a565b60405180910390fd5b8060030160169054906101000a900460ff16156107ec576040517f08c379a00000000000000000000000000000000000000000000000000000000081526004016107e3906113ae565b60405180910390fd5b60018160030160166101000a81548160ff021916908315150217905550817f7621a0eef8c39766512e6fd0e8f1bc133ec9b9b2ade3f1732962a1905002f1f960405160405180910390a25061083f610be2565b50565b600160009054906101000a900473ffffffffffffffffffffffffffffffffffffffff1681565b6000610872610b9c565b600084116108b5576040517f08c379a00000000000000000000000000000000000000000000000000000000081526004016108ac9061141a565b60405180910390fd5b600083116108f8576040517f08c379a00000000000000000000000000000000000000000000000000000000081526004016108ef90611486565b60405180910390fd5b83600160009054906101000a900473ffffffffffffffffffffffffffffffffffffffff1673ffffffffffffffffffffffffffffffffffffffff1663f8b2cb4f336040518263ffffffff1660e01b815260040161095491906114a6565b602060405180830381865afa158015610971573d6000803e3d6000fd5b505050506040513d601f19601f8201168201806040525081019061099591906114c1565b10156109d6576040517f08c379a00000000000000000000000000000000000000000000000000000000081526004016109cd9061153a565b60405180910390fd5b6000600460008154809291906109eb90611589565b9190505590506040518060e001604052808781526020018681526020018542610a1491906115d1565b81526020013373ffffffffffffffffffffffffffffffffffffffff1681526020018415158152602001600015158152602001600015158152506003600083815260200190815260200160002060008201518160000155602082015181600101556040820151816002015560608201518160030160006101000a81548173ffffffffffffffffffffffffffffffffffffffff021916908373ffffffffffffffffffffffffffffffffffffffff16021790555060808201518160030160146101000a81548160ff02191690831515021790555060a08201518160030160156101000a81548160ff02191690831515021790555060c08201518160030160166101000a81548160ff0219169083151502179055509050503373ffffffffffffffffffffffffffffffffffffffff16817f0700028c4e611afb7bcd6ffd38968402f4e242039cb76aac31f32f46294bf3a088888842610b6f91906115d1565b88604051610b809493929190611605565b60405180910390a380915050610b94610be2565b949350505050565b600260005403610bd8576040517f3ee5aeb500000000000000000000000000000000000000000000000000000000815260040160405180910390fd5b6002600081905550565b6001600081905550565b6040518060e00160405280600081526020016000815260200160008152602001600073ffffffffffffffffffffffffffffffffffffffff1681526020016000151581526020016000151581526020016000151581525090565b600080fd5b6000819050919050565b610c5d81610c4a565b8114610c6857600080fd5b50565b600081359050610c7a81610c54565b92915050565b600060208284031215610c9657610c95610c45565b5b6000610ca484828501610c6b565b91505092915050565b610cb681610c4a565b82525050565b600073ffffffffffffffffffffffffffffffffffffffff82169050919050565b6000610ce782610cbc565b9050919050565b610cf781610cdc565b82525050565b60008115159050919050565b610d1281610cfd565b82525050565b60e082016000820151610d2e6000850182610cad565b506020820151610d416020850182610cad565b506040820151610d546040850182610cad565b506060820151610d676060850182610cee565b506080820151610d7a6080850182610d09565b5060a0820151610d8d60a0850182610d09565b5060c0820151610da060c0850182610d09565b50505050565b600060e082019050610dbb6000830184610d18565b92915050565b610dca81610c4a565b82525050565b610dd981610cdc565b82525050565b610de881610cfd565b82525050565b600060e082019050610e03600083018a610dc1565b610e106020830189610dc1565b610e1d6040830188610dc1565b610e2a6060830187610dd0565b610e376080830186610ddf565b610e4460a0830185610ddf565b610e5160c0830184610ddf565b98975050505050505050565b6000819050919050565b6000610e82610e7d610e7884610cbc565b610e5d565b610cbc565b9050919050565b6000610e9482610e67565b9050919050565b6000610ea682610e89565b9050919050565b610eb681610e9b565b82525050565b6000602082019050610ed16000830184610ead565b92915050565b6000602082019050610eec6000830184610dc1565b92915050565b6000610efd82610e89565b9050919050565b610f0d81610ef2565b82525050565b6000602082019050610f286000830184610f04565b92915050565b610f3781610cfd565b8114610f4257600080fd5b50565b600081359050610f5481610f2e565b92915050565b60008060008060808587031215610f7457610f73610c45565b5b6000610f8287828801610c6b565b9450506020610f9387828801610c6b565b9350506040610fa487828801610c6b565b9250506060610fb587828801610f45565b91505092959194509250565b600082825260208201905092915050565b7f4e6f74206f7074696f6e20627579657200000000000000000000000000000000600082015250565b6000611008601083610fc1565b915061101382610fd2565b602082019050919050565b6000602082019050818103600083015261103781610ffb565b9050919050565b7f4f7074696f6e20616c7265616479206578656375746564000000000000000000600082015250565b6000611074601783610fc1565b915061107f8261103e565b602082019050919050565b600060208201905081810360008301526110a381611067565b9050919050565b7f4f7074696f6e2063616e63656c6c656400000000000000000000000000000000600082015250565b60006110e0601083610fc1565b91506110eb826110aa565b602082019050919050565b6000602082019050818103600083015261110f816110d3565b9050919050565b7f4f7074696f6e2065787069726564000000000000000000000000000000000000600082015250565b600061114c600e83610fc1565b915061115782611116565b602082019050919050565b6000602082019050818103600083015261117b8161113f565b9050919050565b600069ffffffffffffffffffff82169050919050565b6111a181611182565b81146111ac57600080fd5b50565b6000815190506111be81611198565b92915050565b6000819050919050565b6111d7816111c4565b81146111e257600080fd5b50565b6000815190506111f4816111ce565b92915050565b60008151905061120981610c54565b92915050565b600080600080600060a0868803121561122b5761122a610c45565b5b6000611239888289016111af565b955050602061124a888289016111e5565b945050604061125b888289016111fa565b935050606061126c888289016111fa565b925050608061127d888289016111af565b9150509295509295909350565b7f43757272656e742070726963652062656c6f7720737472696b65207072696365600082015250565b60006112c0602083610fc1565b91506112cb8261128a565b602082019050919050565b600060208201905081810360008301526112ef816112b3565b9050919050565b7f43757272656e742070726963652061626f766520737472696b65207072696365600082015250565b600061132c602083610fc1565b9150611337826112f6565b602082019050919050565b6000602082019050818103600083015261135b8161131f565b9050919050565b7f4f7074696f6e20616c72656164792063616e63656c6c65640000000000000000600082015250565b6000611398601883610fc1565b91506113a382611362565b602082019050919050565b600060208201905081810360008301526113c78161138b565b9050919050565b7f5072656d69756d206d7573742062652067726561746572207468616e20300000600082015250565b6000611404601e83610fc1565b915061140f826113ce565b602082019050919050565b60006020820190508181036000830152611433816113f7565b9050919050565b7f4475726174696f6e206d7573742062652067726561746572207468616e203000600082015250565b6000611470601f83610fc1565b915061147b8261143a565b602082019050919050565b6000602082019050818103600083015261149f81611463565b9050919050565b60006020820190506114bb6000830184610dd0565b92915050565b6000602082840312156114d7576114d6610c45565b5b60006114e5848285016111fa565b91505092915050565b7f496e73756666696369656e74206465706f736974000000000000000000000000600082015250565b6000611524601483610fc1565b915061152f826114ee565b602082019050919050565b6000602082019050818103600083015261155381611517565b9050919050565b7f4e487b7100000000000000000000000000000000000000000000000000000000600052601160045260246000fd5b600061159482610c4a565b91507fffffffffffffffffffffffffffffffffffffffffffffffffffffffffffffffff82036115c6576115c561155a565b5b600182019050919050565b60006115dc82610c4a565b91506115e783610c4a565b92508282019050808211156115ff576115fe61155a565b5b92915050565b600060808201905061161a6000830187610dc1565b6116276020830186610dc1565b6116346040830185610dc1565b6116416060830184610ddf565b9594505050505056fea264697066735822122016200d7e6f206fea7174d25d6f2593e5842445da1e8ded8a84c2b9d54ff280ff64736f6c63430008150033",
  "linkReferences": {},
  "deployedLinkReferences": {}
}